:020000040800F2
:10800000B8440120B1820008170E010895830008CA
:10801000150E0108B9DB0008E53501080000000075
:10802000000000000000000000000000FB1F01082D
:1080300095EA0008000000001F830008C924010819
:10804000CB820008CB820008CB820008CB820008DC
:10805000CB820008CB820008CB820008CB820008CC
:10806000CB820008CB820008CB820008CB820008BC
:10807000CB820008CB820008CB82000819E30008FD
:10808000CB820008CB820008CB820008CB8200089C
:10809000CB820008CB820008CB820008A9FC000834
:1080A000CB820008CB820008CB820008CB8200087C
:1080B00039250108D5250108CB820008CB820008AC
:1080C000CB820008CB820008CB820008CB8200085C
:1080D000CB820008852D0108CB820008CB820008E6
:1080E000CB820008CB820008CB8200080000000091
:1080F0000000000000000000000000000000000080
:108100000000000000000000CB820008CB820008C5
:10811000052D0108292D0108CB820008CB8200081B
:10812000CB820008CB82000831E30008CB82000834
:10813000CB8200089DF30008CB820008CB820008A8
:10814000CB820008CB820008CB820008CB820008DB
:1081500000F002F800F082F80AA090E8000C8244D7
:108160008344AAF10107DA4501D100F077F8AFF2B4
:10817000090EBAE80F0013F0010F18BFFB1A43F005
:108180000103184720410300404103000A444FF017
:10819000000C10F8013B13F0070408BF10F8014B66
:1081A0001D1108BF10F8015B641E05D010F8016BAB
:1081B000641E01F8016BF9D113F0080F1EBF10F80F
:1081C000014BAD1C0C1B09D16D1E58BF01F801CB32
:1081D000FAD505E014F8016B01F8016B6D1EF9D5B5
:1081E0009142D6D3704700000023002400250026CA
:1081F000103A28BF78C1FBD8520728BF30C148BF0A
:108200000B607047662931F01083642900F07E818D
:10821000752900F07B81782900F0B481632901F091
:108220000883732901F00D83002070471FB500F00B
:1082300042FD01F09BFE04000020002130F00EFC06
:10824000401C60600020002130F0F2FBE06002F092
:1082500097F91FBD10B502F0FCF910BD02F048FA05
:108260001146FFF7E3FF1CF065FD02F00EFD03B4BD
:10827000FFF7F0FF03BC0DF00AF900000B49D1F83D
:1082800000C04A685CF8043B1068184442F8040BCC
:108290008C4528BFA1F1DC0C8A4228BFA1F1DC0289
:1082A000C1F800C04A6020F000407047503D0120F6
:1082B0000948804709480047FEE7FEE7FEE7FEE77A
:1082C000FEE7FEE7FEE7FEE7FEE7FEE704480549B6
:1082D000054A064B70470000DD2401085181000863
:1082E000B83E0120B8440120B8400120B840012028
:1082F000EFF3108072B6704780F310887047314AF0
:108300001368012B04D04FF0010313602E4A106054
:108310002E4A11602E484FF0805101607047EFF3F4
:10832000108272B62748016891B14FF000010160D8
:108330002548016829B1EFF3098121E9F00F0068B0
:108340000160224909680968B1E8F00F81F30988E2
:1083500082F310884EF0040E70471C4908601A49D9
:108360004FF00000086017494FF0010008601948FD
:108370004FF47F01D0F8002041EA02010160144867
:108380004FF08051016014480068006880F308884D
:1083900062B670471EF0040F14BFEFF30880EFF3CE
:1083A000098020E9F00F40F804ED14BF80F308883D
:1083B00080F3098800B522F067FF5DF804EB4EF00A
:1083C000040E704750010020480100204C0100209D
:1083D00004ED00E020ED00E008ED00E0704770479C
:1083E000704700000FB4044910B503AA029801F0C9
:1083F0002DFA10BC5DF814FBAC3D01200FB4014612
:1084000010B504AA039801F021FA10BC5DF814FB22
:108410000FB41CB5074B06AA7B446946009005982B
:1084200001F0DDF90020694601F0ECF91CBC5DF8B3
:1084300014FB0000E91300000FB41CB50C0007AAE0
:10844000009001D02044401E074B7B4469460190B8
:10845000069801F0C4F9002C03D06946002001F011
:10846000D1F91CBC5DF814FBC113000070B50446C3
:1084700085690068C10601D5302600E02026C007C6
:1084800007D070BDD4E9012130469047206A401CD6
:1084900020626D1EF6D570BD70B504468569007802
:1084A000C00707D170BDD4E9012120209047206A80
:1084B000401C20626D1EF6D570BD70B50C46054699
:1084C000012A05D02878800600D5EA69002302E059
:1084D000012305E05B1C934202D2E05C0028F9D145
:1084E000A869E618C01AA861286A184428622846B4
:1084F000FFF7BCFF04E0D5E9012114F8010B904718
:10850000B442F8D32846FFF7C7FF70BD2DE9F0410C
:108510000646002410687529314616A510D0AFF321
:108520000080002802DA404213A507E031688A077C
:1085300001D512A502E0490704D511A5012401E0E7
:10854000AFF3008000210A2206F1240709E0B0FB06
:10855000F2FCB0FBF2F302FB1C00303078541846FA
:10856000491C0028F3D123462A463046BDE8F04195
:1085700000F0C9BE000000002D0000002B0000002C
:108580002000000070B504460D4621461068AFF388
:1085900000802188090502D50F4A7A4402E00E4A7C
:1085A0007A440E32002104F1240305E000F00F06A6
:1085B0000009965D5E54491C0028F7D120780023FD
:1085C000000704D5702D02D009B1022311322046D4
:1085D000BDE8704000F097BE0D2903002DE9F05F63
:1085E000894604464FF0000ADFF874B1FB44C0F836
:1085F00020A02046E1688847002874D0252806D0AE
:10860000D4E901219047206A401C2062F1E700264E
:108610005F462046E16888472028054607DB312D64
:1086200005D2781910F8200C08B10643F1E7B0071D
:1086300001D526F00406C4F81CA00027C4F818A031
:108640002A2D09D028460BF0FBFF38B304EB87082E
:10865000303DC8F8185019E059F8041B204604EBC7
:1086600087029161E1688847012F054618D1E069CA
:10867000002820DA26F020061DE0D8F8180000EBCC
:10868000800005EB40003038C8F818002046E1684B
:10869000884705460BF0D4FF0028EED1012F0AD001
:1086A0002E2D08D12046E16888477F1C0546022F01
:1086B00046F02006C4DBA069002803DA404246F0F9
:1086C0000106A061F00701D026F010066C2D0BD03A
:1086D000682D09D04C2D39D06A2D35D0742D35D068
:1086E0007A2D33D016E038E0E1682F4620468847DF
:1086F000B842054609D16C2F26D04FF48060E1685E
:10870000064320468847054604E06C2F1AD04FF4F4
:10871000807006430DB3A5F14100192802D8203519
:1087200046F400664A462946204626604E46FFF734
:1087300069FD80B101280BD0F61D26F0070000F17D
:10874000080956E74020E4E78020D8E70020D6E774
:1087500006F104094DE7284652E7206ABDE8F09F7C
:10876000E32803000FB400B58DB010A90990009163
:108770000B904FF0FF300A9000200C900648784490
:108780000690064878446A4607900F9909A801F0B8
:1087900083F80DB05DF814FB371100004F11000095
:1087A0002DE9FF5F1D464FF0FF3B91464FF000085B
:1087B0005F46D5E90146A96901987F1C8847296A67
:1087C000824688470028F6D1BAF1FF3F0CD0002E30
:1087D00024F4C06419DD600614D5BAF12B0F09D05A
:1087E000BAF12D0F0ED103E0584604B0BDE8F09F5A
:1087F00044F48064A96901987F1C8847761E8246EC
:10880000002E02DDBAF1300F03D0B9F1000F26D0EF
:1088100032E0A969761E01987F1C44F400748847F1
:10882000002E824605DDBAF1780F06D0BAF1580F56
:1088300003D0B9F1000F10D01EE0B9F1000F02D043
:10884000B9F1100F18D1A969761E01987F1C24F484
:10885000007488478246102002E0082000E00A20C9
:10886000814609E0A96908FB0908761E01987F1C6A
:1088700044F4007488478246002E05DD4946504680
:1088800000F0F6FF0028EDDAE96901988847A005B5
:1088900002D46FF00100A8E7E00725D1600613D5E8
:1088A000600502D5C8F1000000E0404629680A1DB5
:1088B0002A600968220501D5087015E0220701D554
:1088C000088011E008600FE02868011D2960006839
:1088D000210502D580F8008006E0210702D5A0F826
:1088E000008001E0C0F8008038467EE72DE9FF5F98
:1088F0004FF000089946144646469169D2E901A70F
:10890000DDF838B001988847054659EA0B0005D0D4
:1089100009E0A1690198761C88470546216A284626
:1089200088470028F5D1681C03D05FEACA7005D0DB
:1089300015E04FF0FF3004B0BDE8F09F2068011D46
:108940002160D0F800800AE05FEACA7001D108F81F
:10895000015BA169761C01987F1E88470546002FA0
:108960001ADD681C18D0B9F1000F0DD0E81705EB1F
:10897000D060421120F01F0059F822102A1A01205D
:1089800090400142E0D107E0BBF1000FDCD1284666
:10899000216A88470028D7D0E16901988847BBF150
:1089A000000F07D1002E05DD5FEACA7002D1002159
:1089B00088F80010A068B84203DDBBF1000F03D0B7
:1089C00017B16FF00100B6E73046B4E770B5064660
:1089D00000F08AFC0468054630460A22002100F0B7
:1089E000DBFF2C6070BD007B00F0400070472DE97C
:1089F000F04117460D4604460646012913DD384668
:108A000016F040FB411C0CD0C0B20A2804F8010B40
:108A100002D06D1E012DF2DC002020703046BDE832
:108A2000F081B44201D10020F9E7384600F0ECFFB4
:108A30000028F1D00026EFE770B50D46044604E0AB
:108A4000294617F000FE401C04D014F8010B002842
:108A5000F6D170BD4FF0FF3070BD00002DE9F04140
:108A6000044616460D464769007B80072ED03846DF
:108A70000CF011FD50BB3EB3012E02D0022E25D1C9
:108A800004E0204601F0CCF905441DE038460CF026
:108A9000FFFCE168002841F01001E16005DA2046A2
:108AA00001F0E0F90120BDE8F081C9030BD562684F
:108AB000E16A914200D81146A26911442269891ADB
:108AC000814200DD08460544002D01DA0220EAE774
:108AD000E16A6068E268814206D29103E06203D5F0
:108AE00022F4003141F01002A6690027AE4213DCE7
:108AF000E16A814201D90B4600E0034603EB060C14
:108B00002369ACEB030CAC4506DD814201D98C46F0
:108B100000E084469C4505D1A760276042F0200014
:108B2000A5620DE0AD1BE669AE1B8142A66000D9CF
:108B30000846C01A281A20605819606022F02000E8
:108B400003490840E060002084F84870ABE700006B
:108B5000BFCFD7FF2DE9F0410C4607461646104619
:108B600000F06EF82078611C61280AD0722802D0CB
:108B700077283CD102E00125002405E002250424E9
:108B800002E0082448F2020511F8010B2B2806D058
:108B9000622809D011F8010C74280AD00BE045F0C6
:108BA000030544F00204EFE745F0040544F0010436
:108BB000EAE744F01004384621460CF06FFC411CF3
:108BC00015D00021316171604FF40071F560F161E1
:108BD0007061200704D5304602220021FFF73EFFD6
:108BE000306D40F0010030653046BDE8F081002076
:108BF000FBE72DE9F0410D460646104C206DC107FC
:108C000004D0410804D020F00104F7E722460EE02A
:108C100054201CF0A6F807000ED0206D47F001018B
:108C2000084354212065384600F0F4F93A462946B5
:108C30003046BDE8F0418DE70020D6E7583D0120E1
:108C40002DE9F04704464FF000094FF0FF37C568A3
:108C5000D4E90486A80707D0204601F037F930464A
:108C60000CF00EFC002802DA3846BDE8F087280533
:108C700002D5404617F0F4FC4C21204600F0CAF91A
:108C8000206D20F0010020654846EEE70B4910B545
:108C9000A1F17C020A4CC2E93712372106E000EB51
:108CA000104342F82130074B00FB03400B1EA1F19B
:108CB0000101F4DC10BD0120E8E70000F03C0120D8
:108CC000E119D666CD0D010030B503461D781DB102
:108CD0000A4603E0AC4201D1181A30BD12F8014B2C
:108CE000002CF7D15B1CF1E710B5431E13F8014FC0
:108CF000002CFBD105E011F8014B002C03F8014BCF
:108D000003D0521EF7D20021197010BD30B50546B0
:108D10000B462A4613F8014B12F8010B08B1A0428A
:108D2000F8D01CB1002802D06D1CF1E7284630BDF8
:108D300040EA010310B59B070FD1042A0DD310C8D8
:108D400008C9121F9C42F8D020BA19BA884201D92A
:108D5000012010BD4FF0FF3010BD1AB1D30703D072
:108D6000521C07E0002010BD10F8013B11F8014B28
:108D70001B1B07D110F8013B11F8014B1B1B01D144
:108D8000921EF1D1184610BD40EA0103024630B5EB
:108D90009B0710D14FF0013400E008C208C91D1B29
:108DA0009D4315EAC41FF8D013F0FF0102F8011B20
:108DB0000DD01B0AF8E711F8013B002B02F8013B2C
:108DC00005D011F8013B002B02F8013BF3D130BD77
:108DD0000022CBB210F8011B994200D1421E00299B
:108DE000F8D11046704710B5431C02E010F8011B83
:108DF00071B18107FAD14FF0013202C88C1A8C434D
:108E000014EAC211F9D0C01A0A0603D0C01E10BD60
:108E1000C01A10BD0A0401D0801E10BD0902FCD08A
:108E2000401E10BD40EA010370B59B072ED14FF0E4
:108E30000136042A2AD308C810C99D1B9D43121F5E
:108E400015EAC61517D0D8B2E1B2401A50EA05614A
:108E500010D198B2A1B2401A50EA05410AD123F0CC
:108E60007F4024F07F41401A50EA052102D1180EBC
:108E7000A0EB146070BDA342DBD018BA21BA8842BF
:108E800001D9012070BD4FF0FF3070BD0AB900203C
:108E900070BD10F8013B11F8014B63B1A3420AD138
:108EA000521E08D010F8013B11F8014B1BB1A34230
:108EB00001D1521EEDD1181B70BD421E12F8013FA8
:108EC000002BFBD111F8013B002B02F8013BF9D13B
:108ED0007047032A40F2308010F0030C00F0158038
:108EE00011F8013BBCF1020F624498BF11F801CBAD
:108EF00000F8013B38BF11F8013BA2F1040298BF12
:108F000000F801CB38BF00F8013B11F0030300F07B
:108F10002580083AC0F0088051F8043B083A51F81F
:108F200004CBA0E80810F5E7121D5CBF51F8043B24
:108F300040F8043BAFF30080D20724BF11F8013B97
:108F400011F801CB48BF11F8012B24BF00F8013BF9
:108F500000F801CB48BF00F8012B704710B5203A4C
:108F6000C0F00B80B1E81850203AA0E81850B1E8E2
:108F70001850A0E81850BFF4F5AF5FEA027C24BF98
:108F8000B1E81850A0E8185044BF18C918C0BDE88F
:108F900010405FEA827C24BF51F8043B40F8043B58
:108FA00008BF7047D20728BF31F8023B48BF11F80D
:108FB000012B28BF20F8023B48BF00F8012B704767
:108FC00002F0FF0343EA032242EA024200F002B841
:108FD0004FF000020429C0F0128010F0030C00F0E2
:108FE0001B80CCF1040CBCF1020F18BF00F8012B60
:108FF000A8BF20F8022BA1EB0C0100F00DB85FEA2E
:10900000C17C24BF00F8012B00F8012B48BF00F8F9
:10901000012B70474FF0000200B513469446964668
:10902000203922BFA0E80C50A0E80C50B1F120017B
:10903000BFF4F7AF090728BFA0E80C5048BF0CC029
:109040005DF804EB890028BF40F8042B08BF704787
:1090500048BF20F8022B11F0804F18BF00F8012BF9
:10906000704710B5044610F0030F08BF11F0030F4E
:1090700040F015804FF0013E121FC0F20E8051F8F3
:10908000043BA3EB0E0C2CEA030C1CEACE1C08BF1D
:1090900040F8043BF0D0A1F1040102F10402521E99
:1090A00008DB11F8013B002B00F8013BF7D111461A
:1090B000FFF78EFF204610BD4FF0013C50F8042B07
:1090C00051F8043B9A4221D1A2EB0C03934313EADB
:1090D000CC1317D150F8042B51F8043B9A4215D108
:1090E000A2EB0C03934313EACC130BD150F8042BDF
:1090F00051F8043B9A4209D1A2EB0C03934313EAC3
:10910000CC13DBD04FF00000704700BFD01A01BA7B
:10911000B1FA81F101F0180122FA01F0CB40C1F15E
:109120002001DBB2C0B2C01A2CFA01F3D11A91436C
:1091300011EAC311E6D1704710B503681C1404EBA3
:1091400021449BB289B2194494FBF2F302FB13430E
:1091500094FBF2F401EB034393FBF2F102FB1131B8
:1091600093FBF2F301E05B1E11440029FBDB01607D
:1091700003EB044010BD2DE9F04704464FF0FF3AE1
:1091800086B00068029060680390A0680490E06870
:10919000019020690090656905F18040B0F1004FB1
:1091A0007DD83C22002102A8FFF7C6FF3C220146E1
:1091B00003A8FFF7C1FF1822014604A8FFF7BCFF70
:1091C000411E40F2B55201A8FFF7B6FF0C22064639
:1091D00068460021FFF7B0FF00EB860028443E4DB3
:1091E00000267D440FE09A1A491CCDE9001202299D
:1091F00002D00C2907D104E0810704D0521C01924F
:1092000001E0401C00960099019B6A5C9A42EADDED
:10921000012906D11C2B04D1810702D00221CDE9FE
:109220000016A0F146018B2940D20199009B002233
:109230000F4602E0AE5C521C31449A42FADB012B2D
:1092400002DD820700D0491E40F2B55540F26D168E
:10925000C21700EB927292106A4300F0030505FBFF
:10926000062285070A4400D1521E049D02EB4206E5
:10927000DDF80C80A94605EBC605184EC5EB0515B3
:10928000DDF808C008EB850535442E14ADB2C6EBF9
:109290000616C5EB0515B6000CEB850500E005E0EC
:1092A00006EB154666F31F45360C03D0504606B054
:1092B000BDE8F087C4E904307F1C0720521CC4E9D4
:1092C000029792FBF0F3E4E806C800FB132084E861
:1092D00003042846EBE70000FE1C0300A039CEFD86
:1092E000704770477047000000487047543E0120A7
:1092F00010B5FFF7F9FF006810BD10B50446FFF781
:10930000F3FF046010BD2DE9F0470D4699469246E3
:10931000044600F124080168880604D5E06921F0BC
:109320001001216000E00120A84201DD471B00E0A0
:109330000027A1697A1902EB0900081AA0612078B8
:10934000C00602D42046FFF791F8002608E0D4E9D1
:1093500001211AF806009047206A401C761C206202
:109360004E45F4DB2078C0060AD52046FFF77EF88C
:1093700006E0D4E9012130209047206A401C206299
:10938000381EA7F10107F4DC07E0D4E9012118F841
:1093900005009047206A401C2062281EA5F10105A7
:1093A000F3DC2046FFF778F82078000602D502208B
:1093B000BDE8F0870120FBE770472DE9FF4F0C4621
:1093C0001E464FF0FF378BB0D2E90001DDF8608018
:1093D0000A908A46C1F30A5505B93D460021084660
:1093E0004FF00000BAF1000F00F4400005DA00EB86
:1093F00080004FF4400101EA50004FEA9059B9F162
:10940000010F00DDB9460A9850EA4A000ED044F632
:109410001050A5F2FF3545432F14B8F1000F1ED0B0
:109420007542291E1EDDC9F100021CE0B8F1010FD2
:109430004FF0000001D0302103E0F24305E0215459
:10944000401CB042FBDB30460022002121540B9926
:10945000C1F80880C1E900200FB0BDE8F08FBD1B46
:109460006D1CDEE74A4600DA694206A801F01AF8E8
:1094700006AB93E8070003AB83E8070050460A9960
:1094800001F082FE8DE80700A0F500501F38009023
:109490000398002D09DD42F21F014A46084403A942
:1094A0000390684602F00BF908E0A0F500504A4628
:1094B0001F3803A90390684602F029F98DE80700D8
:1094C0000004000C03D04FF0FF30410800E01046CC
:1094D000B8F1000F03D00022009215461EE0751E61
:1094E00005D400F047FD303262556D1EF9D5B34604
:1094F0000122084302D000227F1C04E0207830289B
:1095000001D100227F1E002A099786D01DE0112D6F
:1095100007DA00F02FFD303262556D1C50EA01026F
:10952000F5D1084302D00098C8B10EE00021681EB2
:1095300005E0235C625C63542254401E491C814256
:10954000F7DBAB46A81B401E0990002004F80B0077
:109550000B98099AC0F80880C0E9002B7CE7112617
:109560004FF0000859E72DE9F04F88460446D21D18
:1095700022F0070191B0D1E90001CDE90A010AF01A
:10958000AEFF02460B98C00F01D02D2007E02068E7
:10959000810701D52B2002E0202101EAC000032A27
:1095A000099001D0072A05DB03464146204600F01A
:1095B0002FFD0BE12078800601D5E06900E0062050
:1095C000B8F1650F814606D0B8F1660F18D0B8F132
:1095D000670F70D131E00020B9F1110F009001DB6D
:1095E000112301E009F101030AAA01A90CA8FFF760
:1095F000E4FEDDE90C70002609F10105834647E031
:1096000001204B4600904FF000470AAA01A90CA880
:10961000FFF7D3FEDDE90DB00C995D46002610B9C9
:1096200009F101000D18B9EB050003D4C0F1FF36B4
:1096300009F10105A5EB09002BE0B9F1010F01DAF1
:109640004FF001090020B9F1110F0090484601DDEB
:10965000112300E003460AAA01A90CA8FFF7ADFEFA
:10966000DDE90C704D4600268346207800070AD4B9
:10967000AB4500DA5D4601A8012D04DD411911F862
:10968000011C302907D04F4502DA17F1040F04DA24
:10969000012082460FE06D1EEEE7002F02DCED1B7D
:1096A0003E4403E0781CA84200DD7D1CB81B00F19D
:1096B000010A4FF000472078000703D4AA4501DBD8
:1096C0004FF0FF3A0021B7F1004F0DF143088DF83C
:1096D000431024D002202B23002F01DA7F422D23B8
:1096E0000A21021EA0F1010000DC5FB197FBF1FC32
:1096F00097FBF1F201FB1C7C17460CF1300C08F8CB
:1097000001CDEEE7A8F1010003702188090501D51C
:10971000452100E06521A0F1010800F8011C09982D
:109720000FA9A1EB0807FF1D00B10120411901EBB2
:10973000EA70A1693844081A401EA0612078C0066A
:1097400002D42046FEF792FE099828B1D4E90121FF
:109750009047206A401C20622078C00622D520460F
:10976000FEF784FE1EE0002E04DBB34502DD01A8F7
:10977000805D00E03020D4E901219047206A401C40
:109780002062761CAAF101005FEA000A0AD100F00B
:10979000EDFBC0680168405CD4E901219047206A74
:1097A000401C2062281EA5F10105DCDC07E0D4E99D
:1097B000012118F8010B9047206A401C2062381ED6
:1097C000A7F10107F3DC2046FEF766FE032011B087
:1097D00043E6000001694A1C02610878704700B541
:1097E0008FB0CDE901310021059105497944CDE9DA
:1097F000031011466846FEF7F1FE0FB000BD0000F1
:10980000E5FFFFFF0A6802F8010B0A607047D1E923
:1098100000239A4202D2531C0B601070704710B59F
:10982000436913B1AFF3008001E0FEF746FE01206B
:1098300010BD127800F124010A7000224A70012242
:10984000EDE711684FF0FF32E9E70000074B70B514
:109850000D467B44FFF7C3FF0446284600F0D4F8CA
:1098600010B14FF0FF3070BD204670BDF16D0100AA
:109870003A2800D2303820F02002412A01D3A2F148
:109880003700884201D34FF0FF307047026811441F
:109890001378016018467047D160054979445161D9
:1098A00004497944116200211161114600F0F0BBB6
:1098B000EDFFFFFF59070000426842B1016811F84F
:1098C000013B23B1521EC0E9001218467047012126
:1098D000C160881E704742685AB1C368016843B9C5
:1098E00083688B4205D0491E521CC0E9001200203B
:1098F00070474FF0FF3070470FB4002300B589B0B8
:109900000CA900910B99CB60204B7B440693204B14
:109910007B44079304236FF00042CDE901321D4AD6
:109920007A446B460892024600202FF0E0FF09B00F
:109930005DF814FB70B506464FF0FF3015460C4637
:10994000324686B00091CDE90101694600200490BD
:1099500004A8FFF7D1FF03460498211825B108B1E8
:109960000A4600E022462A6000280DD0002B02DDC6
:109970000098884208D03246081B69460094CDE919
:10998000010404A8FFF7B8FF06B070BDABFFFFFFEE
:10999000C3FFFFFFDB0600002DE9F04791460F46AD
:1099A00080460446002614F8015B2DB100F0D6FA7B
:1099B0000068405DC007F6D12B2D02D02D2D18D0A8
:1099C000641E4A463946204600F01CFD27B139681E
:1099D000A14201D1C7F800804FF0020471050BD5F8
:1099E0004042002803DDFFF77FFC0460A007BDE8CC
:1099F000F08746F48066E4E70028F8DAFFF774FCA5
:109A000004606FF00040F2E7007B00F080007047D8
:109A100070B50D4601461446D36850692A460BF0CE
:109A20007FFD002807DA411C07D0E16820F00040E4
:109A300041F48041E160281A70BD204600F012FA1E
:109A40004FF0FF3070BDC1680022026021F48051E8
:109A500041F0400111F4C06FC16001D082607047D5
:109A600002694168891AC269891A816070472DE9C3
:109A7000F0470446C06840F48000E060010312D55E
:109A800020F40020E060810606D4E26A61688A4220
:109A900000D80A46511A216040F40010E06094F8A2
:109AA0002500BDE8F08720F40010E060800602D5B4
:109AB000204600F02EFAE06842F281014FF0FF39B3
:109AC0000140012903D0204600F0CCF9B6E021681E
:109AD000002600290ADAC94340F480502160C4E915
:109AE00002606068411C61600078DAE744F240017E
:109AF00008420CD020F4A04040F040002660E06016
:109B000021696068401AE169401AA06096E0216905
:109B100091B9C00310D4E0691BF023F92061B0B102
:109B2000E06840F4006010F4407FE06002D140F44F
:109B30008070E06020696060E068D4F814A0C1061D
:109B40001AD5C0030ED5204600F0C0F914E004F188
:109B5000240020610120E061E06820F4407040F4BE
:109B60008060E6E721696068401AA16901445046B7
:109B70000BF0EBFC0028A6DBE068C0032AD5616887
:109B8000E06A884200D808462169451AE069471B07
:109B90001BD02046D4F8188000F098F908EB050196
:109BA0005046C4F818800BF0D0FC00288BDBE0682E
:109BB00040F40030E060000202D5A0692844A061B2
:109BC000E1692069C91B45180DE0204600F07EF9C7
:109BD000E769F5E725696168D4E90607491BE5628D
:109BE00008446560A061E06820F0100010F4C06FC8
:109BF000E06002D0204600F05FFDE06840F4805055
:109C0000C4E90260000205D52069E06260606FF07F
:109C1000010046E7224639462846FFF7F9FE411C77
:109C20000CD02918E16258B1401E2060681C6060A9
:109C3000E06840F40030E060287832E7484630E7DA
:109C400065602046FFF7FFFEF8E72DE9F04705467F
:109C50000C46C86820F4201040F48000C8608006DC
:109C600002D5084600F055F9E06841F282014FF054
:109C7000FF390140022903D0204600F0F3F8B5E097
:109C800000F42041B1F5004F0FD1C00306D5616843
:109C9000E06A884200D80846606006E02069E06219
:109CA000606060690BF0F4FBA061A0680022EEB276
:109CB00000280DDAE1688B050AD4C043A06041F4A6
:109CC00090302260E0606068411C61600670A5E031
:109CD000E0689046226040F40050E060206968BB74
:109CE00060690BF0D8FB012704F12405A0B1A0891D
:109CF00010F4407F08D0E0691BF033F8206118B100
:109D0000E06840F4006016E0E7612561E06820F457
:109D1000407040F480600EE0E0691BF022F80028FB
:109D20002061F1D0E06840F4006010F4407FE06012
:109D300002D140F48070E06020696060E0682569CD
:109D40006FF0010AC1051FD56168E06A884200D83A
:109D50000846411B04D02246284600F08DF8F0BB8F
:109D6000E068010203D5E562C4E9015854E0691CCA
:109D7000E1626160E16940F48030491EC4E902108B
:109D800030462E70BDE8F087010202D500F4803223
:109D90000AE06068411C61600670E0680A2E40F4C9
:109DA0008030E06006D00022E16A6068814203D919
:109DB0000B4602E00122F7E70346A7895B1B7F05FC
:109DC00003D4E7699F4200DDE2B1814200D8014639
:109DD000E5620F1AC4E90158002B09DD00E005E037
:109DE00022461946284600F047F808B14846C9E718
:109DF00047B1A069E5626560C01BA061E06840F002
:109E00001000E060E068000208D56168A069E562C2
:109E1000491B08446560A0615046B3E73046B1E78E
:109E200010B50146C268900703D0900607D5886A2E
:109E30000AE0FFF759FA01210160881E10BD8B6905
:109E4000486818440B69C01A91F848301BB191F862
:109E50004910401A10BD1103FCD50028FADD401E40
:109E600010BD0000C16821F4001141F08001C16003
:109E700000218160016070472DE9F047814614465A
:109E80000E464FF0FF383248D5685769054209D071
:109E90003846A1690BF059FB002811DB2C48C04360
:109EA0000540E5602B463246494638460BF056FBE6
:109EB000A16920F00042B21A11440028A16103D028
:109EC0002046FFF7CFFF4046BDE8F08770B5044657
:109ED0000569C06A6168884200D80846E16821F4D3
:109EE0002011E160C90312D5A84208D02246411BC7
:109EF0002846FFF7C1FF10B14FF0FF3070BD0020C2
:109F0000E562C4E90150E06820F48030E0600020A0
:109F100070BD10B50446C06820F02000E060A16A62
:109F2000A06988420DD02046FFF7D0FFE06820F4FA
:109F3000405040F01000E060A06AA0612069E0623B
:109F4000606044F24001E0688843E06010BD0000BA
:109F50001000020000487047543E012010B500F088
:109F600005F8001D10BD00BFF5EA0200004870476B
:109F7000743E012030B5B0F10A024FEA900E71F143
:109F800000034EEA817EB0EB0E0061EB91014FEAD7
:109F9000101E4EEA017E10EB0E0041EB11114FEA4C
:109FA000102E4EEA016E10EB0E0041EB11214FEA2C
:109FB000104E4EEA014E10EB0E0041EB11414018DD
:109FC00041F100014FEAD00040EA41704FEAD1016F
:109FD00010EB80054FEA810444EA907444EB0104DD
:109FE0006D1944EB0404521BA3414FF0000348BF1A
:109FF0000A3200D530BD401C41F1000130BD10B522
:10A000000446FFF7ABFF0068005D00F0010010BDE3
:10A010002DE9F0411F46044603260168072A01F492
:10A02000006004DB08B116A505E016A503E008B141
:10A0300015A500E015A521F010002060A069C01E44
:10A04000A0610FB1401EA0612046FEF70FFA4FB18C
:10A05000D4E9012138469047206A401C2062C01C88
:10A06000206206E0206AFAE7D4E9012115F8010B25
:10A070009047761EF8D22046FEF70EFABDE8F08132
:10A080004E414E006E616E00494E4600696E66009C
:10A090002DE9F34F4FF0000A0C4656468DB00120D3
:10A0A0000C9001F10C000B9062690B980121904714
:10A0B00005002DD0252D2CD0216A8847C0B16269BA
:10A0C0000B9801219047216A88470028F7D16269DF
:10A0D000411E0B98904700E0761CA1690D988847B7
:10A0E000216A88470028F7D1E1690D988847DBE7A6
:10A0F000A1690D988847A842074601D1761CD3E78D
:10A10000E1690D9888477F1C02D1BAF1000F6FD02A
:10A110006BE162690B9800273D46394690472A2833
:10A1200004D162690B98012190470125DFF8D082A4
:10A1300062690B9801219047A0F130010A290AD2E7
:10A140004745E5DC07EB870100EB4107303FDFD4F3
:10A1500045F01005ECE7E90601D46FF000476C28E4
:10A160000AD04C2814D0682815D06A280DD074283D
:10A170001CD07A281AD01DE062690B980121904703
:10A180006C2802D045F0040514E045F002050DE00E
:10A1900045F020050AE062690B9801219047682884
:10A1A00002D045F0080505E045F4006562690B98AA
:10A1B00001219047C4E9015765283DD019DC582892
:10A1C0007AD00CDC452837D004DC252826D041285D
:10A1D0009ED131E046282FD0472899D12CE05B282A
:10A1E00077D0612828D063287CD0642823D15AE016
:10A1F000F6E06F2848D008DC66281DD067281BD001
:10A20000692821D06E2816D127E0702845D0732800
:10A2100068D0752847D078280DD14DE0A1690D98F8
:10A220008847252805463FF469AFE1690D988847BE
:10A230006D1C3FF46AAFD8E00D9923466A466FF073
:10A2400001002FF054FBC5E045F0400023464FF0DD
:10A2500000026060A80736D43EE0E8077FF447AF0D
:10A260002068011D21600068290501D506701BE7E3
:10A27000290701D5068017E7A90703D5F117C0E91B
:10A28000006111E706600FE745F0400023464FF0FC
:10A2900008026060A80716D41EE040F60E0125EA09
:10A2A0000100606016E045F0400023464FF00A02CE
:10A2B0006060A80707D40FE045F040006060A80781
:10A2C00008D5234610220D996FF00100AFF30080EE
:10A2D00080E007E0102223460D996FF00100FEF7A1
:10A2E0005FFA77E04FF0000963284F46C8464B46B7
:10A2F000CB4602D05B2806D038E0E80601D4012026
:10A30000A060012732E06269D4F80CB00B980121FB
:10A3100090475E2807D14FF0010949466269D4F899
:10A320000CB00B989047216939B900210A4603AB5C
:10A3300043F82120491C0829FADBD8B3216949B325
:10A3400008F1010862690B98012190475D28F4D15A
:10A35000B9F1000F09D0002003A951F82020D24301
:10A3600041F82020401C0828F7DB03AB20690028B7
:10A3700020794FEA40701ED05B462246CDF800801F
:10A38000CDE901970D9900286FF0010020DAAFF3B5
:10A3900000801FE0C11703AA00EBD1614B1121F02F
:10A3A0001F0102EB8302411A136801208840034316
:10A3B0001360C7E719E00D99224600286FF00100ED
:10A3C000009702DAAFF3008004E0FEF78FFA01E0B5
:10A3D000AFF3008000280ADA401C06D10C9820B1A7
:10A3E0004FF0FF300FB0BDE8F08F5046FAE7E907B5
:10A3F00001D10AF1010A064400200C9054E6000045
:10A40000CCCCCC0C2DE9F05F824615468B4600275C
:10A410000AF10104B9460078302801D09DB113E05B
:10A4200014F8010B0127782803D0582801D045B132
:10A430000AE00DB1102D07D1002714F8010B1025EB
:10A4400002E0082500E00A250026B0460EE005FBE4
:10A45000080005FB06F101271FFA80F801EB104602
:10A46000B6F5803F00D3B94614F8010B2946FFF733
:10A47000FFF90028EBDABBF1000F05D00FB1641E25
:10A4800000E05446CBF80040B9F1000F06D0FEF7CB
:10A490002BFF02210160C81EBDE8F09F48EA06407C
:10A4A000FAE700002DE9F047814616468AB03348A6
:10A4B00078440DC88DE80D0030487844801C03AC0A
:10A4C0000DC884E80D0041F69B300844372190FB0D
:10A4D000F1F290FBF1F5A5F1800501FB12041B3CA4
:10A4E00002D56442012000E00020DFF890A0804601
:10A4F0000027FA44AAF1BE0A0DE0E00709D032466F
:10A50000684607EB47010AEB810101F000F98DE88D
:10A51000070064107F1C002CEFD1184F7F44AC3F24
:10A5200018E0E80714D007EB04100DF1180A90E8C2
:10A530000E008AE80E00C068F04201D19819089018
:10A54000324606A903A801F0E2F803AB83E807004E
:10A550006D10641C002DE4D132466946B8F1000F3D
:10A5600003A802D001F0ABF801E001F0D0F8C9E98E
:10A570000001C9F808200AB0BDE8F087B80A030056
:10A5800010B542485421FEF745FD41485421FEF7DD
:10A5900041FD40485421FEF73DFD3F493B483C4AC0
:10A5A0003F4B08603D490A603A491960531C0365F6
:10A5B000481C1065012008653B48344A39A178449D
:10A5C000FEF7C8FA20B9384878440A3800F063FB2F
:10A5D00037482F4A35A17844FEF7BCFA20B93448F1
:10A5E00078440A3800F057FB32482A4A2FA17844B1
:10A5F000FEF7B0FA20B92F4878440A3800F04BFB38
:10A6000040232248DC000021224600F01BFB20B141
:10A6100025487844543800F03EFB1D48224640232C
:10A62000002100F00FFB20B121487844543800F09D
:10A6300032FB184822461023002100F003FB0028BB
:10A6400006D01C487844BDE81040563800F023BBC3
:10A6500010BD104870B5006D20F001040B48FEF7E6
:10A66000EFFA0B48FEF7ECFA0A48FEF7E9FA09E0C0
:10A67000206D20F001052046FEF7E2FA204615F095
:10A68000EFFF2C46002CF3D170BD0000583D012097
:10A69000AC3D0120003E0120E8040020EC04002035
:10A6A000F0040020720000000100030077000000A9
:10A6B000EFFF0200DEFF020070B5054640F2022601
:10A6C0000A4C0FE094F85000C00708D0AC4206D006
:10A6D000E06836EA000002D1204600F081FA206DE1
:10A6E00020F00104002CEDD170BD0000583D012088
:10A6F0007546FFF72FFCAE4605006946534620F02D
:10A700000700854618B020B5FDF7E0FDBDE8204004
:10A710004FF000064FF000074FF000084FF0000B1D
:10A7200021F00701AC46ACE8C009ACE8C009ACE8D0
:10A73000C009ACE8C0098D46704700002DE9FF4F05
:10A74000064689B00878FF2806D0491C2D2805D078
:10A7500000244FF0000908E000200CE00124F8E795
:10A7600009EB8903491C00EB43090878FF28F7D15E
:10A7700014B1C9F100008146107800252C46AA4684
:10A7800029462D2801D02B2804D1521C2D2813D066
:10A79000002082468B461078FF280FD04FF0000C27
:10A7A0000A21521CA5FB017804FB018105FB0C1159
:10A7B000C5194BEB0104EEE70120EAE7002108464A
:10A7C0004FF00000BAF1000F02D000EB800040080B
:10A7D000C0F38158B8F1010F01DD4FF0FF380C983C
:10A7E00009EB000755EA040009D04FF0020917F5FC
:10A7F000FA7F0BDA4FEACA70C6E900B012E04FEAFE
:10A80000CA70C6E900B00DB0BDE8F08FB7F5FA7FA9
:10A810000DDDF0487844D0E90010C6E9001040EAA8
:10A82000CA707060FEF760FDC0F80090EBE7391E5B
:10A8300002DAC8F1000200E0424600DA794206A8D6
:10A84000FFF730FE06AB93E8070003AB83E8070091
:10A8500044F23E005BEA04010090584604D144F201
:10A860001E012C465D460091210C0904014306D1CE
:10A870000099240444EA15442D041039009104F091
:10A880007F41014306D10099240244EA15642D0258
:10A890000839009104F07041014306D10099240168
:10A8A00044EA15742D01091F009104F04041014351
:10A8B00006D10099A40044EA9574AD00891E009168
:10A8C00004F00041084304D100986D196441401E12
:10A8D000009042466846002FCDE9014503A902DDFC
:10A8E00000F029FF01E000F0FEFEBAF1000F04467F
:10A8F0000D4601D084F0004440F2FF7724F0004080
:10A90000284303D0C4F30A50B84212D1FEF7ECFC3E
:10A91000C0F80090C4F30A50B8420AD1AE48784457
:10A92000D0E90010C6E9001004F00041084370604F
:10A9300069E7C6E9005466E72DE9FF4F1F464FF06F
:10A94000000A4FF0FF38454691B0D7E90146CDF8EF
:10A950003CA0FFF70BFBC0680168405C1090B96930
:10A9600012986D1C8847396A814688470028F6D1BD
:10A97000B9F1FF3F0AD0002E24F4D06411DDB9F103
:10A980002B0F08D0B9F12D0F0BD102E0404615B0C6
:10A990003AE744F48064B96912986D1C8847761EC2
:10A9A0008146600504A901D52D2000E02B20002E52
:10A9B00001F1010B0DF130088DF810003FDDB9F108
:10A9C000690F08D0B9F1490F05D0B9F16E0F02D067
:10A9D000B9F14E0F1CD13B4601A8009580E850020A
:10A9E000DDE912126FF002002EF085FFC11CCED1FE
:10A9F0000EE0B96912986D1C884781461398761E3F
:10AA000044F4007405600F98401C002E0F9016DD72
:10AA1000B9F1300FEDD0B9F1780F02D0B9F1580F7C
:10AA20000DD10F9801280AD13B46CDE90054DDE94C
:10AA30001212001F02962EF05CFFC11CA7D11099C4
:10AA400089453ED144F0800406E01399681CAAF1C0
:10AA5000010A44F400740860B9696D1C1298761EEE
:10AA6000884730288146F0D02BE01099894505D1E0
:10AA7000200603D4761E44F0800418E0484609F00E
:10AA8000DFFD08B3761E0DF123018B4544F40074FD
:10AA900008D2A9F130000BF8010B200607D5AAF166
:10AAA000010003E0200602D40AF101008246A0055D
:10AAB00002D51399681C0860B96912986D1C884703
:10AAC0008146002ED1DC53E0002E51DDB9F1650F37
:10AAD00002D0B9F1450F4BD1A00549D5B9696D1C1C
:10AAE0001298761E24F440748847002E81460CDDAF
:10AAF0002B2804D0B9F12D0F07D144F48074B96923
:10AB000012986D1C8847761E8146E00501D52D21DF
:10AB100000E02B2108F8011BCDF8008021E0761E13
:10AB20000DF13901884544F400740CD2A9F13000CC
:10AB300010F0FF0088F8000002D10099884509D97B
:10AB400008F1010806E0E00501D5244801E042F2E1
:10AB50000F708246B96912986D1C88478146139818
:10AB60000560002E04DD484609F06AFD0028D6D1B4
:10AB7000F96912988847FF2053468BF8000088F83F
:10AB8000000000200A900B9004AA0CA90AA8FFF765
:10AB9000D5FDA00502D46FF00100F8E614F0240FF3
:10ABA0000AD0E00714D13868DDE90A12031D3B60C2
:10ABB0000068C0E900120BE00AA9684609F0B2FC7F
:10ABC000E00705D13868009A011D3960006802600D
:10ABD0002846DCE6BC1A0300B2190300F1D8FFFFD7
:10ABE00070B50446C068810713D0800601D5A56AF8
:10ABF00004E0A169606808442169451A2046FFF70E
:10AC000065F90022064629462046FDF727FF304613
:10AC100070BD002070BD70B510B1BDE87040DFE7B9
:10AC20000025074C6E1E07E02046FFF7D9FF00B154
:10AC30003546206D20F00104002CF5D1284670BD6A
:10AC4000583D012070B5C468A50713D0650211D422
:10AC5000B2F5807F09D0B2F5007F06D0B2F5806FE3
:10AC600008D1012300F1240106E05D1E6FF07F464C
:10AC7000B54201D3012070BD0161C361416024F47C
:10AC800070611143C160002070BD0446AFF30080C5
:10AC90002046FDF7ECFA10B500F00AF8BDE81040C8
:10ACA000AFF30080002801D00AF0F1BB704700002C
:10ACB00010B5014602A000F03BFA012010BD0000D3
:10ACC00053494752545245443A205265646972656B
:10ACD00063743A2063616E2774206F70656E3A204A
:10ACE000000000002DE9FF4F1F464FF03C0987B0E0
:10ACF0004FF00042DDE9141001F10108DDF858A021
:10AD000002EA405003900020049083460546044622
:10AD10000590B969461E08988847AAF1010A029071
:10AD2000BAF1000F37DD02982E2815D01021FEF75A
:10AD30009FFD00282ADB4FF0010B0499014316D038
:10AD4000B9F1000F0BDB4A46C11700F00AFA0543C0
:10AD50000C43A9F1040905E00120059007E008B1C2
:10AD600045F0010501200490059800B9361DB96928
:10AD7000089808F101088847BBF1000FAAF1010A01
:10AD80000290CDD00999C1F80080C9E702987028D7
:10AD900008D0502806D0F96908988847BBF1000F01
:10ADA00014D04FE0002002900120BBF1000F04906E
:10ADB00009D0B969089808F101088847AAF1010982
:10ADC000B9F1000F07DCF969089888476FF00100B6
:10ADD0000BB0BDE8F08F2B2804D02D280CD14FF0FC
:10ADE000FF300490B969089808F101088847A9F173
:10ADF0000109B9F1000FE6DD411CE4D00A21FEF79C
:10AE000037FD0028DFDB029908F1010801EB810121
:10AE100000EB41000290B969089888470A21FEF7C3
:10AE200027FD099AA9F10109B9F1000FC2F80080C4
:10AE300001DD0028E7DAF969089888470499029843
:10AE400000FB016655EA040004D004F0404109000B
:10AE500002D006E0039898E0A40044EA9574AD009F
:10AE6000B61E04F00041080002D16D196441761E3F
:10AE7000159810F0240F03D04FF00B095C4803E045
:10AE80004FF028096FF07D008246564507DAAAEB9D
:10AE900006018944B9F1410F01DD4FF0410901205C
:10AEA0000021A9F1010200F05CF9024628400B469E
:10AEB0002140084301D0012100E00021501E0291F1
:10AEC00043F1FF3128402140084301D0012000E038
:10AED00000200299834651EA0B014FD00021084619
:10AEE0004FF00000039900F4400039B100EB8000FE
:10AEF0004FF4400100EBD07001EA6000801501289A
:10AF000002DD4FF0FF3000E013D0401C36D0029835
:10AF100060B3BBF1000F0CD14A460120002100F0C4
:10AF200020F928402140084301D0012000E0002002
:10AF3000E0B101204A46002100F013F90346401910
:10AF40000A4661412D1A8C4111D3B9F1400F09DD38
:10AF5000159810F0240F02D0AAF1340603E0AAF1EC
:10AF6000170600E0761C00254FF0004406E05B1E4B
:10AF700042F1FF3220EA030521EA0204CAF101008E
:10AF8000B04206DA1B490398084301900020009064
:10AF90000EE0039AC4F3D321E80A0A43164940EAB3
:10AFA00044500A433146CDE90002684609F028FBC7
:10AFB000159810F0240F0BD01598C00715D13868DC
:10AFC000DDE90012031D3B600068C0E900120CE0DF
:10AFD00002A8694609F0A6FA1598C00705D1386895
:10AFE000029A011D3960006802604046F0E60000E8
:10AFF00002FCFFFF0000F07F0000F03F2DE9FF4F53
:10B0000092461D4685B04FF00041DDE9124BDDE967
:10B0100014727F1E01EA4B50414940F0FF4940EA5B
:10B020000108002122F020004928049102D04E2876
:10B0300028D04CE03BA0012607C88DE80700A9698D
:10B040000698641C88477F1E014606D41DF806003A
:10B0500018B121F0200181420BD0E9690698884798
:10B06000032E34D0082E32D06FF0010009B0BDE8B5
:10B07000F08F761C032E01D0082EE0D1601CCAF898
:10B080000000DCE7A9690698641C88477F1E2AD463
:10B0900020F02000412826D1A9690698641C884721
:10B0A0007F1E20D420F020004E281CD1A9690698CC
:10B0B000641C88477F1E48F4002849F48009CAF8B8
:10B0C000004001D4282806D0E969069888475FEA3D
:10B0D000CB7012D022E0A9690698641C88477F1EB5
:10B0E00001D4002803DAE96906988847BCE72928D3
:10B0F000F1D1641CCAF80040E9E71BF0240F07D027
:10B1000028680499031D2B600068C0E9001805E059
:10B110002868021D2A600068C0F800902046A5E754
:10B120000000F07F494E46494E4954590000000046
:10B1300070B505460C460A2000E06D1C0AF02CFA9A
:10B1400035B128780028F8D102E0641C0AF024FA0E
:10B1500014B120780028F8D1BDE870400A200AF028
:10B160001BBAB2F120030AD5C2F1200301FA02F1A1
:10B1700020FA03F300FA02F041EA0301704700FAF3
:10B1800003F14FF0000070475FEA400C08BF91F0F8
:10B19000000F4FEA8C234FEAC12243EA51514FEA94
:10B1A0001C5018BF00F5F0404FEA300018BF41F0C6
:10B1B00000415FEA6C5C00F02980BCF1FF3F08BFF2
:10B1C00040F080407047130C06BF12044FF0100C83
:10B1D0004FF0000C130E04BF12020CF1080C130FF9
:10B1E00004BF12010CF1040C930F04BF92000CF188
:10B1F000020CD30F04BF52000CF1010C11464FF0AA
:10B200000002A0F11F00A0EB0C00704711F0004FEE
:10B2100008BF704731F000413FF4D5AF0B0C06BFBB
:10B2200009044FF0100C4FF0000C0B0E04BF090284
:10B230000CF1080C0B0F04BF09010CF1040C8B0F6F
:10B2400004BF89000CF1020CCB0F04BF49000CF1C4
:10B25000010CCCF12003A0EB0C0022FA03F302FA5C
:10B260000CF241EA030100F10100704720F07F4C2D
:10B2700080EA030023F07F47ACEB070303F57C5320
:10B2800000F0004003F1FF032DE980494FEA154B20
:10B2900009B44FEA144325EA0B4E24EA03480FF29F
:10B2A000042606EB132749083E785FEA320203FBC7
:10B2B0000667C7F5000707FB06F64FEA54374FEA63
:10B2C000D64606F1020607FB066CCCF1005C4FEA9D
:10B2D0001C472CEA074C07FB06F40CFB06F504EBB5
:10B2E00015464FEA961634BF00204FF000404FEA53
:10B2F000D13706FB07FC4FEA1C4C0CFB0BF7D21BAB
:10B3000003FB0CF761EB07010CFB0EF7B0EB0740FA
:10B3100072EB17420CFB08F734BFA2EB0742B2EB0B
:10B32000074261EB17414FEA0C444FEA910706FBD5
:10B3300007FC4FEA1C4C0CFB0BF7B0EBC74072EB61
:10B34000573203FB0CF734BFA2EBC742B2EBC74244
:10B3500061EB57310CFB0EF7B0EBC70072EB577285
:10B360000CFB08F734BFA2EBC702B2EBC70261EBDC
:10B370005771039F4FEA816141EA921104EBCC04BB
:10B380004FEAD1374FEA826206FB07FC42EA90128D
:10B390004FEA80604FEA1C4C0CFB0BF7D21B03FBFF
:10B3A0000CF761EB07010CFB0EF7B0EB074072EBFB
:10B3B00017420CFB08F734BFA2EB0742B2EB07427F
:10B3C00061EB17414FEA8C554FEA910704EB9C243F
:10B3D00006FB07FC4FEA1C4C0CFB0BF7B0EBC7401D
:10B3E00072EB573203FB0CF734BFA2EBC742B2EB50
:10B3F000C74261EB57310CFB0EF7B0EBC70072EBA5
:10B4000057720CFB08F734BFA2EBC702B2EBC702BE
:10B4100061EB577115EB4C254FEA816141EA9211BE
:10B420004FEA82624FEAD13742EA901206FB07FCEC
:10B4300044F100044FEA80604FEA1C4C0CFB0BF710
:10B44000D21B03FB0CF761EB07010CFB0EF7B0EB13
:10B45000074072EB17420CFB08F734BFA2EB074220
:10B46000B2EB074261EB174115EB1C154FEA813136
:10B4700041EA92414FEA823242EA90424FEA8030FA
:10B480004FEA0C7644F1000448EA03434EEA0B48C5
:10B490004FF0000EB2EB080C71EB030724BF6246BD
:10B4A00039464EEB0E0E4FF0000B00185241494149
:10B4B0004BEB0B0BB2EB080C71EB03077BF1000BB2
:10B4C00024BF624639464EEB0E0E4FF0000B0018BB
:10B4D000524149414BEB0B0BB2EB080C71EB0307EC
:10B4E0007BF1000B24BF624639464EEB0E0E51EA4B
:10B4F000020718BF46F0010616EB0E7655F1000262
:10B5000054F1000103D5BDE88901BDE80088BDE81C
:10B510008901BDE80048B619524141EB0101A3F190
:10B520000103704780807F7E7D7C7B7A7978777697
:10B5300076757473727171706F6E6E6D6C6C6B6A10
:10B540006A696868676666656464636362616160AE
:10B55000605F5F5E5E5D5D5C5C5B5B5A5A5959582B
:10B560005857575656555555545453535252525195
:10B57000515050504F4F4F4E4E4D4D4D4C4C4C4BEB
:10B580004B4B4A4A4A494949484848474747474632
:10B59000464645454544444444434343434242426E
:10B5A0004241414146EA0646A3F570534FEA16462A
:10B5B00046EA42564FEAD22242EA415210B54FEAD9
:10B5C000D121A3F1010300F017F820F0004000F1B1
:10B5D000010C00F0004701EB00501146BCF5006F74
:10B5E00040EA070000D210BD02484FF0000140EAD7
:10B5F000070010BD0000F07F002B26D4770021D07B
:10B600001CB54FEA370703B44FF010004FF010019C
:10B610004FF000000FBCBDE810400BF1010BBBF177
:10B62000010F08BF5FEA170722BF12F1010211F1F3
:10B6300001014FF0004143F1000300F0004043EAF4
:10B6400000007047F9D35708DAE746EA064613F1D7
:10B65000400F4FEA16461FDD13F1200FDFBF1643E0
:10B660000A46002120335B42C8D0C3F1200746EAD6
:10B67000064602FA07F74FEA164646EA0706C3F1FE
:10B68000200722FA03F201FA07F721FA03F14FF03B
:10B69000000342EA0702B1E746EA020646EA064626
:10B6A0004FEA164646EA0106BCBF46EA0646360C95
:10B6B0004FF000034FF000024FF000019EE72DE92C
:10B6C000C048934630B491E8380007C831EA400CCE
:10B6D00048BF34EA430C03D5FFF7C8FDFFF78CFFE2
:10B6E000F0BCBDE800882DE9C048934630B491E82D
:10B6F000380007C831EA400C48BF34EA430C03D590
:10B70000FFF7B4FDFFF74EFFF0BCBDE800882DE960
:10B71000C048934630B491E8380007C810F0804F15
:10B7200008BF13F0804F03D100F019F8FFF764FF52
:10B73000F0BCBDE800882DE9C048934630B491E8DC
:10B74000380007C810F0804F08BF13F0804F03D1B6
:10B7500000F005F8FFF726FFF0BCBDE8008820F0F8
:10B760007F4780EA030023F07F4C07EB0C03A3F52F
:10B770007C5300F00040A3F1FE0392F0000F00F0B4
:10B78000B38095F0000F00F077802DE901494FEA72
:10B7900011404FEA144621EA004800FB06FC24EA67
:10B7A000064708FB06F607FB08F800FB07F718EB4F
:10B7B00006484CEB164C4FEA124B18EB07484FEA81
:10B7C00015464CEB174022EA0B4E0BFB06FC25EA14
:10B7D00006470EFB06F607FB0EFE0BFB07F71EEBFC
:10B7E000064E4CEB164C4FF000061EEB074E4CEB92
:10B7F000174B18EB0B0840F1000018EB0E0B58EB41
:10B80000000840F100008F1A4FF000013CBFC9430F
:10B81000661B14BFB5EB040C00213CBFC943F61BEB
:10B820004FEA17444EEA8E0E27EA04454FEA1C47BA
:10B8300004FB07622CEA074C05FB07F70CFB05F637
:10B8400004FB0CFC16EB074642EB174216EB0C46CA
:10B8500042EB1C421BEB060658EB0202414146EA52
:10B860009E0601D5BDE80189B619524141EB01019F
:10B87000A3F10103BDE801894FEA14454FEA1147DE
:10B8800024EA054621EA074C05FB07F406FB07F707
:10B890000CFB06F105FB0CFC11EB074144EB1744D4
:10B8A0004FEA124711EB0C4144EB1C4422EA074CCF
:10B8B00005FB07F206FB07F70CFB06F605FB0CFC85
:10B8C00016EB074642EB174216EB0C4642EB1C45C3
:10B8D0006A1854F1000148BF7047B619524141EB54
:10B8E0000101A3F10103704795F0000F37D04FEA33
:10B8F00011424FEA144721EA024624EA074C02FBB0
:10B9000007F106FB07F70CFB06F402FB0CFC14EB3B
:10B91000074441EB17414FEA154714EB0C4441EB48
:10B920001C4125EA074C02FB07F506FB07F70CFB59
:10B9300006F602FB0CFC16EB074645EB174516EB2B
:10B940000C4645EB1C42121951F1000148BF7047EB
:10B95000B619524141EB0101A3F1010370474FEACF
:10B9600014454FEA114724EA054621EA074C05FB36
:10B9700007F106FB07F70CFB06F24FF0000605FB8C
:10B980000CFC12EB074241EB174112EB0C4251EB5E
:10B990001C4148BF7047921841EB0101A3F101031C
:10B9A0007047000070B586B0002506461446009525
:10B9B00001950295039510A1022004951CF08AF9C7
:10B9C000E0690090206A01908DF80850606A039049
:10B9D000208DADF810000C220C4904F10D00FDF78C
:10B9E000A7F903AB6A46314620B1012000F0DEFA28
:10B9F00006B070BD0020F9E7574946495F526563BC
:10BA0000765F4576656E742031372000F89B002004
:10BA100070B5054614460AA102201CF05BF90C2201
:10BA20000C4904F10D00FDF783F90B4A294620B1BA
:10BA30000120BDE8704000F037BB0020F9E70000AE
:10BA4000574946495F526563765F4576656E742057
:10BA500031382000F89B0020F40400200FB42DE9B9
:10BA6000FE430646DDE9218100204A7F209D17091B
:10BA70000FE000BFC0EBC00202EB801201EB4202FC
:10BA8000527FB7EB121F01D0022706E0401C64284A
:10BA900003DADDF849208242ECDC0BAA56A15A48B1
:10BAA000FCF7B6FC584C3020584904F8190F3220E6
:10BAB000607017982DF078FD2DF02AFD010EA17011
:10BAC000010CE170010A217160711A98C11700EB35
:10BAD00011200016A0711A9800EB11400014E071BB
:10BAE0001A9800EB1161081220721A986072484986
:10BAF00019982DF059FD2DF00BFD010EA172010CCE
:10BB0000E172010A21736073DDF84900C11700EB8F
:10BB10001161080AA0739DF84900E073DDF8450043
:10BB2000C11700EB1161080A20749DF8450060748C
:10BB30009DF8432037A16846FCF76AFC9DF8000099
:10BB4000A0749DF80100E0749DF8020020759DF836
:10BB5000422032A102A8FCF75BFC9DF8080060754A
:10BB60009DF80900A0753037E7752A4629A101A87C
:10BB7000FCF74EFC9DF8040020769DF805006076E9
:10BB80009DF80600A07620484246343025A1193C95
:10BB9000FCF73EFC3435452060556D1C4E20605549
:10BBA000691C442060544FF47A70A91C91FBF0F09A
:10BBB00030306071642091FBF0F20A2092FBF0F3C8
:10BBC00000FB13223032A27191FBF0F292FBF0F3F2
:10BBD00000FB13223032E27191FBF0F200FB1212F3
:10BBE00030322272605432460748491C06F028FA67
:10BBF000BDE8FE035DF814FB415053313130303065
:10BC000030303030312573000F1F012000002041FB
:10BC10000000C8422530336400000000253032782F
:10BC2000000000002573000070B50D46064614465E
:10BC300041F2FA512048FDF7CBF92EB1BDE8704032
:10BC40001EA11D48FCF7E4BB21A11B48FCF7E0FB4B
:10BC50001948210E4FF47A72C173210C0174210A24
:10BC6000417484744521C1744E210175442141758C
:10BC7000162191FBF2F230324271642291FBF2F311
:10BC80000A2293FBF2F402FB14333033837191FBED
:10BC9000F2F393FBF2F402FB14333033C37191FBE4
:10BCA000F2F302FB13113031017282752A46BDE8AE
:10BCB0007040172106F0C4B90F1F012041505331C5
:10BCC00031303031353030313330310A000000004E
:10BCD000415053313130303030303031333030003A
:10BCE00070B586B0044600200D4600900190029089
:10BCF00003900490164641F2FA513548FDF768F971
:10BD000001A809F0BDFD012C0FD032A13048FCF78D
:10BD10007FFB2F4C0F21302204F11100302E0CD06C
:10BD2000312E12D0322E19D022E02EA12848FCF755
:10BD30006FFB10212A46264845E0E2732274014633
:10BD40006A4601A81DF044FB10E0E2733121217422
:10BD500001466A4601A81DF087F907E0E273322127
:10BD6000217401466A4601A81DF068FC0099113152
:10BD700045206054491C4E206054491C44206054A6
:10BD80004FF47A70491C91FBF0F030306071642000
:10BD900091FBF0F20A2092FBF0F300FB1322303209
:10BDA000A27191FBF0F292FBF0F300FB1322303210
:10BDB000E27191FBF0F200FB1212303222726054F9
:10BDC0002A460348491C06F03BF906B070BD000046
:10BDD0000F1F012041505331313030313530303078
:10BDE0003430300041505331313030313530303023
:10BDF0003430310A0000000010B5044651B111A1E1
:10BE00001548FCF705FB10212246BDE810401248FA
:10BE100006F016B9002211A10F48FCF7F9FA0E48F6
:10BE2000302264211130FDF7CBF80B49452001F891
:10BE3000750F4E204870442088700A20C870792100
:10BE4000E2E700004150533131303031353030308D
:10BE50003830310A000000000F1F012041505331DB
:10BE600031303132303030303830302530326400CB
:10BE70002DE9FC41884605460027144641F2FA5157
:10BE80004048FDF7A5F85DB13FA13E48FCF7C0FA78
:10BE9000102102B04246BDE8F0413A4806F0D0B861
:10BEA0003EA13848FCF7B4FA0F26364D3AE06078E8
:10BEB00021787F1C00EB0110A0F54C708DF800007C
:10BEC000E078A17800EB0110A0F54C708DF801002E
:10BED0006079217900EB0110A0F54C708DF802001B
:10BEE000E079A17900EB0110A0F54C708DF803000A
:10BEF000607A217A00EB0110A0F54C708DF80400F7
:10BF0000E07AA17A8E3400EB0110A0F54C708DF828
:10BF10000500A81900990160BDF80410B61D8180C4
:10BF2000642F04DA2046FCF75EFF0C28BFD04520C2
:10BF3000A855761C4E20A855761C4420A855711C87
:10BF40004FF47A7091FBF0F030306871642091FB0F
:10BF5000F0F20A2092FBF0F300FB13223032AA71B8
:10BF600091FBF0F292FBF0F300FB13223032EA7106
:10BF700091FBF0F200FB121230322A726854491C15
:10BF800087E700000F1F012041505331313030311D
:10BF9000353030313130310A00000000415053312A
:10BFA000313030313530303131303000F8B507467E
:10BFB00000200C4600901D46164641F2FA512A48D0
:10BFC000FDF706F8012F45D0324628A12648FCF798
:10BFD0001FFA25482968244A40F8171FA98881803C
:10BFE0001D326B46294630461CF030FF009800F1A8
:10BFF0001D0170B31C4845224254491C4E22425434
:10C00000491C442242544FF47A72491C91FBF2F2CB
:10C0100030324271642291FBF2F30A2293FBF2F573
:10C0200002FB15333033837191FBF2F393FBF2F58E
:10C0300002FB15333033C37191FBF2F302FB131390
:10C04000303303724254224611F1010105F0F8FF2A
:10C05000F8BD01E00AA100E00EA10348FCF7D8F901
:10C06000102122460048F1E70F1F012041505331B3
:10C070003130303135303031373030257300000009
:10C080004150533131303031353030313730310A71
:10C090000000000041505331313030313530303103
:10C0A0003730320A000000002DE9FC418846044682
:10C0B0000027154641F2FA514548FCF789FF5CB16B
:10C0C00044A14348FCF7A4F9102102B04246BDE860
:10C0D000F0413F4805F0B4BF43A13D48FCF798F953
:10C0E00045483B4E10240078F07342E06878297888
:10C0F0007F1C00EB0110A0F54C708DF80000E87873
:10C10000A97800EB0110A0F54C708DF8010068795A
:10C11000297900EB0110A0F54C708DF80200E87948
:10C12000A97900EB0110A0F54C708DF80300687A36
:10C13000297A00EB0110A0F54C708DF80400E87A24
:10C14000A97A00EB0110A0F54C708DF805003019AC
:10C1500000990160BDF80410818035F80D0FA41D11
:10C16000000A3055641C15F8810B3055641C642F8F
:10C1700004DA2846FCF737FE0C28B7D045203055A6
:10C18000611C4E207054A11C442070544FF47A70EE
:10C19000E11C91FBF0F030307071642091FBF0F203
:10C1A0000A2092FBF0F300FB13223032B27191FBB4
:10C1B000F0F292FBF0F300FB13223032F27191FBAC
:10C1C000F0F200FB1212303232727054491C7CE7DC
:10C1D0000F1F012041505331313030313530303173
:10C1E0003830310A000000004150533131303031D5
:10C1F0003530303138303000D804002070B50D466D
:10C20000044616464FF480510A48FCF7E1FE54B14B
:10C2100009A10848FCF7FCF810212A46BDE8704047
:10C22000044805F00DBF324608A10248FCF7F0F8BB
:10C230002121F2E70F1F01204150533131303031BD
:10C24000353030313230310A000000004150533176
:10C2500031303033323030313230302573454E4456
:10C260000A0000000FB42DE9F04F89B00446002009
:10C27000DDF868B0DDF880A0DDF87490259F299D79
:10C2800004900590069007901E46904641F2FA51A0
:10C290004548FCF79DFE4448012C224643A17ED030
:10C2A000FCF7B6F8404C3020B8F1000FE07300D036
:10C2B0003120207466741698A0741798E07418984A
:10C2C00020751998607584F816B01B98E0751C9855
:10C2D000207684F819901E98A0761F98E07684F84E
:10C2E0001CA0219860772298A0772398E077249863
:10C2F00084F8200084F82170269884F8220027987A
:10C3000084F82300289884F82400A8786B792A7987
:10C31000E9788DE80F006B782A7829A104A8641DBC
:10C32000FCF776F82048049940F8251F05994160EC
:10C3300006998160452084F82C004E2084F82D0059
:10C34000442084F82E0034214FF47A7091FBF0F0F1
:10C3500030302070642091FBF0F20A2092FBF0F361
:10C3600000FB13223032627091FBF0F292FBF0F38B
:10C3700000FB13223032A27091FBF0F200FB12118D
:10C380003031E17084F82F0035210748139A05F009
:10C3900057FE09B0BDE8F00F5DF814FBFFE7FCF7AE
:10C3A00037F81021F1E700000F1F012041505331F1
:10C3B000313030313530303134253032640A0000CC
:10C3C0002530327825303278253032782530327871
:10C3D00025303278253032780000000070B50C46E8
:10C3E000054641F2FA510748FCF7F2FD224606A144
:10C3F0000448FCF70DF82A46BDE8704010210148BA
:10C4000005F01EBE0F1F0120415053313130303135
:10C410003530303136253032640A0000F8B5054633
:10C4200000200C460090164641F2FA512348FCF7D2
:10C43000CFFD012D39D022A12048FBF7E9FF1F498C
:10C440006A460F3130461CF045FF00991B480F31FA
:10C4500045224254491C4E224254491C4422425413
:10C460004FF47A72491C91FBF2F23032427164222D
:10C4700091FBF2F30A2293FBF2F502FB1533303302
:10C48000837191FBF2F393FBF2F502FB153330332A
:10C49000C37191FBF2F302FB131330330372425466
:10C4A0002246491C05F0CCFDF8BD09A10348FBF765
:10C4B000AFFF102122460148F4E700000F1F0120C2
:10C4C000415053313130303135303030333030003D
:10C4D0004150533131303031353030303330310A22
:10C4E000000000002DE9F0410C4605461E461746A7
:10C4F00041F2FA510C48FCF76BFD012C0CD033468D
:10C500003A460AA10848FBF783FF2A461821BDE8EE
:10C51000F041054805F094BD0BA10348FBF778FFF7
:10C520002A461021F3E700000F1F0120415053312C
:10C5300031303032333030313530302530327825BB
:10C54000303364454E440A0041505331313030316C
:10C55000353030313530310A0000000070B50C46FE
:10C56000054641F2FA510748FCF732FD224606A182
:10C570000448FBF74DFF2A46BDE8704010210148F2
:10C5800005F05EBD0F1F0120415053313130303175
:10C590003530303035253032640A000070B50D4634
:10C5A000044641F2FA510748FCF712FD2A4606A15B
:10C5B0000448FBF72DFF2246BDE8704010210148DA
:10C5C00005F03EBD0F1F0120415053313130303155
:10C5D0003530303036253032640A000070B50C46F4
:10C5E000054641F2FA510748FCF7F2FC224606A143
:10C5F0000448FBF70DFF2A46BDE8704010210148B2
:10C6000005F01EBD0F1F0120415053313130303134
:10C610003530303130253032640A000070B50C46B8
:10C62000054641F2FA510748FCF7D2FC2A4606A11A
:10C630000448FBF7EDFE2246BDE87040102101489A
:10C6400005F0FEBC0F1F0120415053313130303115
:10C650003530303037253032640A00002DE9F043A0
:10C6600093B0814600200F460F90109011901290C9
:10C670001D4614463C216846FCF7CCFC002641F2DE
:10C68000FA51C148FCF7A4FC0E22C0490FA8FCF7E0
:10C6900020FC012F58D0BEA1BB48FBF7B9FEDFF844
:10C6A000E8823021404688F80F10322188F81010B7
:10C6B000E91705EB11610A0A88F81120294688F864
:10C6C00012109DF83D109DF83C201A2701EB021135
:10C6D000A1F54C7188F813109DF83F109DF83E208D
:10C6E00001EB0211A1F54C7101759DF841109DF807
:10C6F000402001EB0211A1F54C7141759DF84320DA
:10C700009DF8421002EB0111A1F54C7181759DF865
:10C7100045109DF8442001EB0211A1F54C71C17543
:10C720009DF847109DF8462001EB0211A1F54C71D0
:10C7300001769DF849109DF8482001EB0211A1F502
:10C740004C7188F81910DBE095A111E13C21684695
:10C75000FCF760FC60782178392200EB0110A0F52D
:10C760004C708DF80000E078A17800EB0110A0F586
:10C770004C708DF801006079217900EB0110A0F573
:10C780004C708DF80200E079A17900EB0110A0F562
:10C790004C708DF80300607A217A00EB0110A0F54F
:10C7A0004C708DF80400E07AA17A00EB0110A0F53E
:10C7B0004C708DF80500607F01098DF806109DF81A
:10C7C000071000F001031943C0F3400341EA43019D
:10C7D000C0F3800341EA8301C0F3C00041EAC00016
:10C7E0008DF80700B4F81900010A8DF808108DF8CB
:10C7F0000900B4F81B00010A8DF80A108DF80B002F
:10C80000E07F8DF80C00208C010A8DF80D108DF85A
:10C810000E00608C8DF81000010A8DF80F10A08CAE
:10C82000010A8DF811108DF81200E08C8DF81400BB
:10C83000010A8DF81310A08D010A8DF815108DF8DE
:10C840001600E08D8DF81800010A8DF81710208D64
:10C85000010A8DF819108DF81A00608D8DF81C00F2
:10C86000010A8DF81B10208E010A8DF81D108DF81D
:10C870001E0094F832008DF81F00D4F882002421A5
:10C88000B0FBF1F0030E8DF82030030C8DF8213051
:10C89000030A8DF822308DF82300D4F88600B0FB0F
:10C8A000F1F0030E8DF82430030C8DF82530030AC7
:10C8B0008DF826308DF82700D4F88A00B0FBF1F00F
:10C8C000010E8DF82810010C8DF82910010A8DF841
:10C8D0002A108DF82B0094F83F008DF82C00B4F846
:10C8E0001700010A8DF82D108DF82E0008EB0700B7
:10C8F0006946FCF7EEFA8E34761C3937642E02DA7C
:10C90000AE42FFF623AF002D31DD452108F80710B8
:10C91000791C4E2208F80120B91C442208F8012095
:10C920004FF47A72F91C91FBF2F2303288F805204C
:10C93000642291FBF2F30A2293FBF2F402FB14331C
:10C9400040463033837191FBF2F393FBF2F402FB28
:10C9500014333033C37191FBF2F302FB1313303302
:10C96000037208F801204A460748491C06E011A155
:10C970000548FBF74DFD4A461021034805F060FBD2
:10C9800013B0BDE8F08300000F1F01203C9C002085
:10C990004150533131303031353030303230300069
:10C9A0004150533131303031353030303230310A4E
:10C9B00000000000415053313130303135303030DB
:10C9C0003230320A0000000070B51D4C4FF0FF35C8
:10C9D0002946E0681FF064FF09F0F8FF032119A061
:10C9E00007F09EFB4FF4AF7630461EF0A3FDE088C3
:10C9F000B8B1012214A11548FCF79AF988B909F0D9
:10CA0000E5FF012110A007F08BFB30461EF092FDE0
:10CA1000E088032805D303220DA10C48FCF788F910
:10CA200020B1E0681FF096FE284670BD09A0FBF714
:10CA3000D9FC09F0CBFFE0681FF08CFE002070BD30
:10CA4000B40100202B2B2B00610000003EEB0020E6
:10CA50002B6F6B004154203A612B6F6B0A00000072
:10CA600070B5144C4FF0FF352946E0681FF018FFF1
:10CA700009F0ACFF082110A007F052FB4FF49670AC
:10CA80001EF058FDE0880A2805D303220DA10E48A8
:10CA9000FCF74EF920B1E0681FF05CFE284670BD3F
:10CAA0000AA0FBF79FFC09F091FFE0681FF052FE1F
:10CAB000002070BDB401002041542B454E544D0A56
:10CAC000000000002B6F6B0047EB002041542B450A
:10CAD0004E544D203A2B6F6B0A000000F0B5C1B0E8
:10CAE00000254FF480716846FCF794FA204C6E1EC6
:10CAF0003146E0681FF0D4FE09F068FF1DA16846CA
:10CB0000FBF786FC69461FA0FBF76CFC6846FCF748
:10CB10006AF9411C684607F003FB4FF416770520BD
:10CB20001EF008FD6846FCF75EF9E188001D8842AA
:10CB30000BD86846FCF757F913490322084413A1A0
:10CB4000401CFCF7F5F818B908E06D1CBD42E6DBA7
:10CB5000E0681FF0FFFD304641B0F0BD0CA0FBF7D0
:10CB600041FC09F033FFE0681FF0F4FD0020F3E71B
:10CB7000B401002041542B4641505354413D6F6E47
:10CB80000A00000025730A003EEB00202B6F6B00AB
:10CB900041542B4641505354413A2B6F6B0A0000CD
:10CBA000F0B5C1B0074600254FF480716846FCF728
:10CBB00031FA214C6E1E3146E0681FF071FE09F01B
:10CBC00005FF3A461DA16846FBF722FC69461FA0F7
:10CBD000FBF708FC6846FCF706F9411C684607F0BD
:10CBE0009FFA4FF4C87705201EF0A4FC6846FCF7B6
:10CBF000FAF8E188001D88420BD86846FCF7F3F884
:10CC000013490322084413A1401CFCF791F818B9FA
:10CC100008E06D1CBD42E6DBE0681FF09BFD30467E
:10CC200041B0F0BD0CA0FBF7DDFB09F0CFFEE068E2
:10CC30001FF090FD0020F3E7B401002041542B5475
:10CC40004350414444423D25730A000025730A00C5
:10CC50003EEB00202B6F6B0041542B54435041445A
:10CC60004442203A2B6F6B0A00000000F0B5C1B0BF
:10CC7000074600254FF480716846FCF7CBF9214C3C
:10CC80006E1E3146E0681FF00BFE09F09FFE3A462B
:10CC90001DA16846FBF7BCFB69461FA0FBF7A2FB82
:10CCA0006846FCF7A0F8411C684607F039FA4FF4D3
:10CCB000C87705201EF03EFC6846FCF794F8E18832
:10CCC000001D88420BD86846FCF78DF813490322F3
:10CCD000084413A1401CFCF72BF818B908E06D1CA0
:10CCE000BD42E6DBE0681FF035FD304641B0F0BDE7
:10CCF0000CA0FBF777FB09F069FEE0681FF02AFD46
:10CD00000020F3E7B401002041542B544350414428
:10CD100044433D25730A000025730A003EEB0020C2
:10CD20002B6F6B0041542B54435041444443203AF1
:10CD30002B6F6B0A00000000F0B5C1B000254FF466
:10CD400080716846FCF766F9204C6E1E3146E0683B
:10CD50001FF0A6FD09F03AFE1DA16846FBF758FB3F
:10CD600069461EA0FBF73EFB6846FCF73CF8411CF9
:10CD7000684607F0D5F94FF4C87705201EF0DAFBB6
:10CD80006846FCF730F8E188001D88420BD86846F9
:10CD9000FCF729F812490322084412A1401CFBF7B2
:10CDA000C7FF18B908E06D1CBD42E6DBE0681FF064
:10CDB000D1FC304641B0F0BD0BA0FBF713FB09F0EE
:10CDC00005FEE0681FF0C6FC0020F3E7B401002078
:10CDD00041542B544350423D6F6E0A0025730A00A4
:10CDE0003EEB00202B6F6B0041542B544350423DCF
:10CDF0006F6E203A2B6F6B0A00000000F0B5C1B0D7
:10CE000000254FF480716846FCF704F9204C6E1E33
:10CE10003146E0681FF044FD09F0D8FD1DA16846C9
:10CE2000FBF7F6FA69461EA0FBF7DCFA6846FBF74B
:10CE3000DAFF411C684607F073F94FF4C877052004
:10CE40001EF078FB6846FBF7CEFFE188001D8842A4
:10CE50000BD86846FBF7C7FF12490322084412A10A
:10CE6000401CFBF765FF18B908E06D1CBD42E6DB0E
:10CE7000E0681FF06FFC304641B0F0BD0BA0FBF73F
:10CE8000B1FA09F0A3FDE0681FF064FC0020F3E7AD
:10CE9000B401002041542B544350433D6F6E0A00AF
:10CEA00025730A003EEB00202B6F6B0041542B547E
:10CEB000435043203A2B6F6B0A000000F0B5C1B01D
:10CEC000074600254FF480716846FCF7A3F8214C13
:10CED0006E1E3146E0681FF0E3FC09F077FD3A462C
:10CEE0001DA16846FBF794FA69461FA0FBF77AFA82
:10CEF0006846FBF778FF411C684607F011F94FF4CC
:10CF0000C87705201EF016FB6846FBF76CFFE1882A
:10CF1000001D88420BD86846FBF765FF13490322C2
:10CF2000084413A1401CFBF703FF18B908E06D1C6F
:10CF3000BD42E6DBE0681FF00DFC304641B0F0BDBD
:10CF40000CA0FBF74FFA09F041FDE0681FF002FC6E
:10CF50000020F3E7B401002041542B5443505054B7
:10CF6000423D25640A00000025730A003EEB0020C4
:10CF70002B6F6B0041542B544350505442203A2B9A
:10CF80006F6B0A00F0B5C1B0074600254FF4807101
:10CF90006846FCF73FF8214C6E1E3146E0681FF0F2
:10CFA0007FFC09F013FD3A461DA16846FBF730FAF5
:10CFB00069461FA0FBF716FA6846FBF714FF411CF1
:10CFC000684607F0ADF84FF4C87705201EF0B2FAB6
:10CFD0006846FBF708FFE188001D88420BD86846C9
:10CFE000FBF701FF13490322084413A1401CFBF780
:10CFF0009FFE18B908E06D1CBD42E6DBE0681FF03B
:10D00000A9FB304641B0F0BD0CA0FBF7EBF909F0ED
:10D01000DDFCE0681FF09EFB0020F3E7B401002078
:10D0200041542B5443505054433D25640A000000A2
:10D0300025730A003EEB00202B6F6B0041542B54EC
:10D0400043505054433A2B6F6B0A000070B59AB0AE
:10D05000064664216846FBF7DDFF1D4C4FF0FF35A7
:10D060002946E0681FF01CFC09F0B0FC324619A10B
:10D070006846FBF7CDF969461DA0FBF7B3F9684692
:10D08000FBF7B1FE411C684607F04AF84FF47A708E
:10D090001EF050FAE0880A280AD36846FBF7A3FE80
:10D0A00014490322084414A1401CFBF741FE28B197
:10D0B000E0681FF04FFB28461AB070BD0FA0FBF7C9
:10D0C00091F909F083FCE0681FF044FB0020F3E7CE
:10D0D000B401002041542B57414B45593D57504115
:10D0E0003250534B2C4145532C25730A000000004D
:10D0F000257300003EEB00202B6F6B0041542B5733
:10D10000414B4559203A2B6F6B0A000070B59AB01D
:10D11000064664216846FBF77DFF1D4C4FF0FF3546
:10D120002946E0681FF0BCFB09F050FC324619A10B
:10D130006846FBF76DF969461DA0FBF753F9684691
:10D14000FBF751FE411C684606F0EAFF4FF47A7087
:10D150001EF0F0F9E0880A280AD36846FBF743FE80
:10D1600014490322084414A1401CFBF7E1FD28B137
:10D17000E0681FF0EFFA28461AB070BD0FA0FBF769
:10D1800031F909F023FCE0681FF0E4FA0020F3E72E
:10D19000B401002041542B5741503D313142474E9C
:10D1A0002C4543555F525F25732C4175746F0A00FF
:10D1B000257300003EEB00202B6F6B0041542B5772
:10D1C0004150203A2B6F6B0A000000002DE9F0411E
:10D1D000C0B0804600254FF480716846FBF71AFF07
:10D1E000224C6E1E3146E0681FF05AFB09F0EEFB40
:10D1F00042461FA16846FBF70BF9694620A0FBF7E2
:10D20000F1F86846FBF7EFFD411C684606F088FF21
:10D210004FF4C87705201EF08DF96846FBF7E3FD53
:10D22000E188001D88420BD86846FBF7DCFD1549F4
:10D230000322084414A1401CFBF77AFD18B909E049
:10D240006D1CBD42E6DBE0681FF084FA304640B05A
:10D25000BDE8F08141460DA0FBF7C4F809F0B6FB2C
:10D26000E0681FF077FA0020F1E70000B401002029
:10D2700041542B574D4F44453D25730A0000000093
:10D2800025730A003EEB00202B6F6B0041542B41AD
:10D29000545F574D4F44453A2573202B6F6B0A005E
:10D2A00070B5144C4FF0FF352946E0681FF0F8FACE
:10D2B00009F08CFB052110A006F032FF4FF49670A8
:10D2C0001EF038F9E088062805D303220CA10D488A
:10D2D000FBF72EFD20B1E0681FF03CFA284670BD38
:10D2E00009A0FBF77FF809F071FBE0681FF032FA44
:10D2F000002070BDB401002041542B5A0A000000E8
:10D300002B6F6B0044EB002041542B5A203A2B6FBB
:10D310006B0A000010B50446B8B013A102201AF041
:10D32000D9FC16A0009016A316A219A12AA8FBF7F3
:10D330006FF812AB194A2AA90C2083E8070047228C
:10D3400017496846FBF7C5FD154953220C3915A846
:10D35000FBF7BFFD0DF1540C20469CE80E00FEF7D4
:10D360007DFB38B010BD0000574946495F526563E8
:10D37000765F4576656E7420312000003000000035
:10D38000310000004543555F525F525300000000DA
:10D3900025735F25735F257300000000F4040020EF
:10D3A000049C002070B50546144609A102201AF01D
:10D3B00091FC0C220B4904F10D00FBF7B9FC28B1DC
:10D3C00001212846BDE87040FEF716BD0021F8E7B0
:10D3D000574946495F526563765F4576656E7420AE
:10D3E00038200000F89B00203EB5044615460FA1EA
:10D3F00002201AF06FFC0C22114905F10D00FBF719
:10D4000097FC18B10022214601200CE069460DA0CE
:10D410000CF062FA08B1002203E002990098484338
:10D42000820A21460020FEF7FFFB3EBD57494649D0
:10D430005F526563765F4576656E74203133000018
:10D44000F89B00202F00000070B5054614460AA185
:10D4500002201AF03FFC0C220C4904F10D00FBF7EE
:10D4600067FC627F294620B10120BDE87040FEF7CD
:10D4700037BC0020F9E70000574946495F52656311
:10D48000765F4576656E742034200000F89B00209E
:10D4900070B5054614460AA102201AF01BFC0C22A6
:10D4A0000C4904F10D00FBF743FC0B4A294620B15F
:10D4B0000120BDE87040FEF7DBBC0020F9E700006A
:10D4C000574946495F526563765F4576656E7420BD
:10D4D00031312000F89B0020F40400203EB50546C1
:10D4E00014460DA102201AF0F5FB002001900290D5
:10D4F000E0690090206A01900C220C4904F10D00B3
:10D50000FBF716FC6A46294618B10120FEF786FF94
:10D510003EBD0020FAE70000574946495F52656367
:10D52000765F4576656E742033200000F89B0020FE
:10D5300070B50546144610A102201AF0CBFB0C2250
:10D54000124904F10D00FBF7F3FB58B110A10020C4
:10D5500004F07EFC0023174A01212846BDE87040F4
:10D56000FFF77CB814A1002004F072FC0748114AB0
:10D570000021D0F81D30F0E7574946495F526563F6
:10D58000765F4576656E742032200000F89B00209F
:10D59000434F4D4D414E445F53595354454D494EB1
:10D5A000464F2020204E6F74204D617070696E6769
:10D5B00000000000F4040020434F4D4D414E445FF5
:10D5C00053595354454D494E464F20204D6170707C
:10D5D000696E670A000000007FB500240646154604
:10D5E0000094019402940DA1022003941AF072FB9E
:10D5F000684608F045F98DF80E400C220C4905F1FB
:10D600000D00FBF795FB6A46314620B15FF0010043
:10D61000FEF7F4FD7FBD0020FAE7000057494649B8
:10D620005F526563765F4576656E74203132200007
:10D63000F89B00202DE9F74F94B0144639A1022041
:10D640001AF048FB0C223C4904F10D00FBF770FB7B
:10D65000394C2934C8B1CDE912540BAB28462946C0
:10D660002A462C4683E8170E07AB0A9583E8030188
:10D67000CDE905558DE8C70000222B4601201499FD
:10D68000FEF7F0FD17B0BDE8F08F2C480168486840
:10D69000060EC0F30743C0F307228DE84C00C5B265
:10D6A0008868020EC0F30746CDE90562C0F3072380
:10D6B000C7B2CDE90373C86807AFC0F30743C0F32F
:10D6C0000722C1B287E80E00060E00200DF0ECFF25
:10D6D000C0F30721C2B2030ECDE90A21C0F3074708
:10D6E00001200C930DF0E0FF4FEA106BC0F3074AE6
:10D6F000C0F3072900F0FF0813F06EFECDE912B465
:10D700000FA981E800070DF1280898E80E000DF137
:10D710002C080E930A9688E88600C2B22B46002099
:10D720001499ADE7574946495F526563765F457680
:10D73000656E742031340000F89B0020A4020020A4
:10D7400070B50546144618A102201AF0C3FA0C223F
:10D750001A4904F10D00FBF7EBFA38B12846BDE891
:10D76000704000231A460121FEF7BCBE1348002179
:10D77000C37D827D2846FEF7B5FE04F11C0023F030
:10D780001FFDC3B204F11E0023F01AFDC4B21846F7
:10D7900021F08EFC204621F065FC21F00FFCBDE855
:10D7A000704005201CF0BEBD574946495F52656375
:10D7B000765F4576656E742031352000F89B002039
:10D7C00070B5054614460FA102201AF083FA0C2208
:10D7D000114904F10D00FBF7ABFA28B12846BDE86A
:10D7E00070400121FEF7FABD00212846FEF7F6FD44
:10D7F000607E21F0BDFB21F0EBFDBDE8704005200F
:10D800001CF090BD574946495F526563765F457687
:10D81000656E742031362000F89B00202DE9F04120
:10D82000804614461BA102201AF054FA0C221E490D
:10D8300004F10D00FBF77CFA48B101214046FEF7E8
:10D840008DFEBDE8F04119A1002004F001BB214884
:10D850000621002500681E4E1F38B0FBF1F729464F
:10D860004046FEF77BFE04F11C01384619F076FFB6
:10D870000D22002130461EF099FE6D1C8E36642D5F
:10D88000F6DB134813F0EAFEBDE8F04105201CF07A
:10D8900049BD0000574946495F526563765F45764A
:10D8A000656E742035200000F89B0020434F4D4DDD
:10D8B000414E445F5345544E4554574F524B2020E0
:10D8C000204E6F74204D617070696E67000000001B
:10D8D000F4040020C401002030B5054689B0144688
:10D8E0001EA102201AF0F6F90C22214904F10D00C4
:10D8F000FBF71EFA08B101212AE0002000900190F8
:10D90000029003900E2204F11C016846FBF7E1FA35
:10D9100004A807F0B5FF0822694616A0FBF708FA2D
:10D9200018B9DDE90401CDE90001062214A002A91D
:10D93000FBF7FEF928B906980290BDF81C00ADF877
:10D940000C00684623F004F905201CF0EBFC0021D4
:10D950002846FEF723FE09B030BD0000574946496E
:10D960005F526563765F4576656E742036200000F1
:10D97000F89B00203939393939393939000000002C
:10D98000393939393939000030B50546CFB0144638
:10D9900026A102201AF09EF90C22294904F10D005B
:10D9A000FBF7C6F930B14FB02846BDE83040012141
:10D9B000FEF714BE64211BA8FBF72CFB642102A810
:10D9C000FBF728FB642134A8FBF724FB1C344EAB87
:10D9D00002AA4DA91BA8009404F066F902A94E986A
:10D9E000CDE900011BAB17A100204D9A04F030FADD
:10D9F000642134A804F02CF91BA934A84D9AFBF734
:10DA000097F928B102212846FEF7E8FD4FB030BD56
:10DA100000212846FEF7E2FD02A805F0E4FD4E983D
:10DA2000C1B202A806F04EFCF0E700005749464993
:10DA30005F526563765F4576656E742031302000F5
:10DA4000F89B0020434F4D4D414E445F5345545782
:10DA500049464950415353574F524420256420258D
:10DA6000732025642025730A0000000030B50546A8
:10DA7000D9B014463DA102201AF02CF90C224049DD
:10DA800004F10D00FBF754F930B159B02946BDE857
:10DA900030400120FEF7C2BDC82112A8FBF7BAFA38
:10DAA00029460020FEF7BAFD54A950A8CDE900018F
:10DAB0004CAB48AA44A904F11C0004F01EF900284C
:10DAC00049D0012845D12FA107201AF017FB54ACEB
:10DAD00094E80F000EAC84E80F0050AC94E80F00FF
