:020000040800F2
:10800000E8B10120B5820008EB350108998300082A
:10801000E935010821ED0008817E0108000000001B
:10802000000000000000000000000000E95A010804
:108030007D0401080000000023830008316301086B
:10804000CF820008CF820008CF820008CF820008CC
:10805000CF820008CF820008CF820008CF820008BC
:10806000CF820008CF820008CF820008CF820008AC
:10807000CF820008CF820008CF820008A1FA000852
:10808000CF820008CF820008CF820008CF8200088C
:10809000CF820008CF820008CF8200085D1B010854
:1080A000CF820008CF820008CF820008CF8200086C
:1080B000A16301083D640108CF820008CF82000857
:1080C000CF820008CF820008CF820008CF8200084C
:1080D000CF820008A1750108B9750108CF82000898
:1080E000CF820008CF820008CF8200080000000085
:1080F0000000000000000000000000000000000080
:108100000000000000000000CF820008CF820008BD
:108110003D75010861750108CF820008CF82000813
:10812000CF820008CF820008B9FA0008CF82000889
:10813000CF82000851120108CF820008CF820008C8
:10814000CF820008CF820008CF820008CF820008CB
:1081500000F002F800F085F80AA090E8000C8244D4
:108160008344AAF10107DA4501D100F07AF8AFF2B1
:10817000090EBAE80F0013F0010F18BFFB1A43F005
:1081800001031847041A0400241A04000A444FF09B
:10819000000C10F8013B13F0070408BF10F8014B66
:1081A0001D1108BF10F8015B641E05D010F8016BAB
:1081B000641E01F8016BF9D113F0080F1EBF10F80F
:1081C000014BAD1C0C1B09D16D1E58BF01F801CB32
:1081D000FAD505E014F8016B01F8016B6D1EF9D5B5
:1081E0009142D6D3704700000023002400250026CA
:1081F000103A28BF78C1FBD8520728BF30C148BF0A
:108200000B60704766293EF0968465293EF09384A2
:10821000642900F08981752900F08681782900F0B1
:10822000BF81632901F02583732901F02A8300208F
:1082300070471FB500F04DFD01F0B0FE04000020B6
:1082400000213DF085FA401C6060002000213DF0D7
:1082500095FAE06002F0ACF91FBD10B502F011FA1A
:1082600010BD02F05DFA1146FFF7E3FF24F0EEF8CF
:1082700002F023FD03B4FFF7F0FF03BC11F05FF839
:108280000B49D1F800C04A685CF8043B10681844F8
:1082900042F8040B8C4528BFA1F1DC0C8A4228BFB0
:1082A000A1F1DC02C1F800C04A6020F00040704734
:1082B00084AA01200948804709480047FEE7FEE7F5
:1082C000FEE7FEE7FEE7FEE7FEE7FEE7FEE7FEE786
:1082D00004480549054A064B7047000045630108FC
:1082E00051810008E8AB0120E8B10120E8AD012090
:1082F000E8AD0120EFF3108072B6704780F310886C
:108300007047314A1368012B04D04FF0010313600A
:108310002E4A10602E4A11602E484FF080510160A5
:108320007047EFF3108272B62748016891B14FF0A1
:10833000000101602548016829B1EFF3098121E9B5
:10834000F00F00680160224909680968B1E8F00F80
:1083500081F3098882F310884EF0040E70471C499F
:1083600008601A494FF00000086017494FF00100FB
:10837000086019484FF47F01D0F8002041EA02015B
:10838000016014484FF08051016014480068006893
:1083900080F3088862B670471EF0040F14BFEFF335
:1083A0000880EFF3098020E9F00F40F804ED14BFD6
:1083B00080F3088880F3098800B52EF07FF85DF817
:1083C00004EB4EF0040E70475001002048010020DD
:1083D0004C01002004ED00E020ED00E008ED00E09D
:1083E00070477047704710B5044600F095FF00686D
:1083F000005DC00602D504F1200010BD204610BD6E
:108400000FB4044910B503AA029801F03FFA10BC5A
:108410005DF814FBE0AA01200FB4014610B504AAD0
:10842000039801F033FA10BC5DF814FB0FB41CB5CF
:10843000074B06AA7B4469460090059801F0EFF9C6
:108440000020694601F0FEF91CBC5DF814FB000039
:108450000D1400000FB41CB50C0007AA009001D049
:108460002044401E074B7B4469460190069801F06A
:10847000D6F9002C03D06946002001F0E3F91CBCBA
:108480005DF814FBE513000070B5044685690068CB
:10849000C10601D5302600E02026C00707D070BDF8
:1084A000D4E9012130469047206A401C20626D1EAD
:1084B000F6D570BD70B5044685690078C00707D150
:1084C00070BDD4E9012120209047206A401C206221
:1084D0006D1EF6D570BD70B50C460546012A05D057
:1084E0002878800600D5EA69002302E0012305E030
:1084F0005B1C934202D2E05C0028F9D1A869E6181F
:10850000C01AA861286A184428622846FFF7BCFFF1
:1085100004E0D5E9012114F8010B9047B442F8D3E7
:108520002846FFF7C7FF70BD2DE9F041064600243D
:1085300010687529314616A510D0AFF300800028C9
:1085400002DA404213A507E031688A0701D512A577
:1085500002E0490704D511A5012401E0AFF3008032
:1085600000210A2206F1240709E0B0FBF2FCB0FB6F
:10857000F2F302FB1C00303078541846491C0028E6
:10858000F3D123462A463046BDE8F04100F0DBBE79
:10859000000000002D0000002B0000002000000063
:1085A00070B504460D4621461068AFF3008021885F
:1085B000090502D50F4A7A4402E00E4A7A440E3287
:1085C000002104F1240305E000F00F060009965D88
:1085D0005E54491C0028F7D120780023000704D5F9
:1085E000702D02D009B1022311322046BDE870403F
:1085F00000F0A9BE90FD03002DE9F05F8946044616
:108600004FF0000ADFF874B1FB44C0F820A0204608
:10861000E1688847002874D0252806D0D4E90121D4
:108620009047206A401C2062F1E700265F46204602
:10863000E16888472028054607DB312D05D27819E7
:1086400010F8200C08B10643F1E7B00701D526F079
:108650000406C4F81CA00027C4F818A02A2D09D0CD
:1086600028460FF046FF38B304EB8708303DC8F8C2
:10867000185019E059F8041B204604EB8702916159
:10868000E1688847012F054618D1E069002820DA03
:1086900026F020061DE0D8F8180000EB800005EB5E
:1086A00040003038C8F818002046E1688847054681
:1086B0000FF01FFF0028EED1012F0AD02E2D08D178
:1086C0002046E16888477F1C0546022F46F02006B9
:1086D000C4DBA069002803DA404246F00106A0612D
:1086E000F00701D026F010066C2D0BD0682D09D0B4
:1086F0004C2D39D06A2D35D0742D35D07A2D33D00C
:1087000016E038E0E1682F4620468847B842054623
:1087100009D16C2F26D04FF48060E16806432046D3
:108720008847054604E06C2F1AD04FF4807006434A
:108730000DB3A5F14100192802D8203546F4006692
:108740004A462946204626604E46FFF75BFD80B12B
:1087500001280BD0F61D26F0070000F1080956E7A6
:108760004020E4E78020D8E70020D6E706F104099E
:108770004DE7284652E7206ABDE8F09F66FD0300FA
:108780000FB400B58DB010A9099000910B904FF077
:10879000FF300A9000200C90064878440690064866
:1087A00078446A4607900F9909A801F095F80DB032
:1087B0005DF814FB5B110000731100002DE9FF5FF1
:1087C0001D464FF0FF3B91464FF000085F46D5E94C
:1087D0000146A96901987F1C8847296A8246884713
:1087E0000028F6D1BAF1FF3F0CD0002E24F4C0646B
:1087F00019DD600614D5BAF12B0F09D0BAF12D0F8F
:108800000ED103E0584604B0BDE8F09F44F4806404
:10881000A96901987F1C8847761E8246002E02DDDA
:10882000BAF1300F03D0B9F1000F26D032E0A969B8
:10883000761E01987F1C44F400748847002E8246FF
:1088400005DDBAF1780F06D0BAF1580F03D0B9F1AF
:10885000000F10D01EE0B9F1000F02D0B9F1100FD7
:1088600018D1A969761E01987F1C24F400748847EA
:108870008246102002E0082000E00A20814609E03C
:10888000A96908FB0908761E01987F1C44F400744E
:1088900088478246002E05DD4946504601F008F81B
:1088A0000028EDDAE96901988847A00502D46FF045
:1088B0000100A8E7E00725D1600613D5600502D5C1
:1088C000C8F1000000E0404629680A1D2A600968D6
:1088D000220501D5087015E0220701D5088011E0B6
:1088E00008600FE02868011D29600068210502D595
:1088F00080F8008006E0210702D5A0F8008001E0A2
:10890000C0F8008038467EE72DE9FF5F4FF0000891
:108910009946144646469169D2E901A7DDF838B078
:1089200001988847054659EA0B0005D009E0A1697E
:108930000198761C88470546216A28468847002802
:10894000F5D1681C03D05FEACA7005D015E04FF07E
:10895000FF3004B0BDE8F09F2068011D2160D0F811
:1089600000800AE05FEACA7001D108F8015BA169E2
:10897000761C01987F1E88470546002F1ADD681C6B
:1089800018D0B9F1000F0DD0E81705EBD0604211F7
:1089900020F01F0059F822102A1A012090400142AD
:1089A000E0D107E0BBF1000FDCD12846216A8847FF
:1089B0000028D7D0E16901988847BBF1000F07D1A3
:1089C000002E05DD5FEACA7002D1002188F8001090
:1089D000A068B84203DDBBF1000F03D017B16FF000
:1089E0000100B6E73046B4E770B5064600F09CFCDF
:1089F0000468054630460A22002100F0EDFF2C6095
:108A000070BD007B00F0400070472DE9F041174633
:108A10000D4604460646012913DD38461BF022FFA9
:108A2000411C0CD0C0B20A2804F8010B02D06D1E04
:108A3000012DF2DC002020703046BDE8F081B44208
:108A400001D10020F9E7384600F0FEFF0028F1D000
:108A50000026EFE770B50D46044604E029461DF0F8
:108A600051FA401C04D014F8010B0028F6D170BD57
:108A70004FF0FF3070BD00002DE9F041044616466E
:108A80000D464769007B80072ED0384610F05BFC0E
:108A900050BB3EB3012E02D0022E25D104E0204669
:108AA00001F0DEF905441DE0384610F049FCE168AC
:108AB000002841F01001E16005DA204601F0F2F9EA
:108AC0000120BDE8F081C9030BD56268E16A9142DB
:108AD00000D81146A26911442269891A814200DD39
:108AE00008460544002D01DA0220EAE7E16A6068E1
:108AF000E268814206D29103E06203D522F400319C
:108B000041F01002A6690027AE4213DCE16A8142FF
:108B100001D90B4600E0034603EB060C2369ACEBDE
:108B2000030CAC4506DD814201D98C4600E0844649
:108B30009C4505D1A760276042F02000A5620DE0AA
:108B4000AD1BE669AE1B8142A66000D90846C01A7B
:108B5000281A20605819606022F02000034908405C
:108B6000E060002084F84870ABE70000BFCFD7FF7B
:108B70002DE9F0410C4607461646104600F06EF807
:108B80002078611C61280AD0722802D077283CD155
:108B900002E00125002405E00225042402E0082467
:108BA00048F2020511F8010B2B2806D0622809D0E3
:108BB00011F8010C74280AD00BE045F0030544F0CD
:108BC0000204EFE745F0040544F00104EAE744F04D
:108BD00010043846214610F0B9FB411C15D0002185
:108BE000316171604FF40071F560F16170612007CF
:108BF00004D5304602220021FFF73EFF306D40F0E1
:108C0000010030653046BDE8F0810020FBE72DE92A
:108C1000F0410D460646104C206DC10704D04108B6
:108C200004D020F00104F7E722460EE0542023F0A0
:108C300024FC07000ED0206D47F0010108435421A9
:108C40002065384600F0FEF93A4629463046BDE830
:108C5000F0418DE70020D6E78CAA01202DE9F047EE
:108C600004464FF000094FF0FF37C568D4E9048689
:108C7000A80707D0204601F049F9304610F058FB0C
:108C8000002802DA3846BDE8F087280502D54046BC
:108C90001DF045F94C21204600F0D4F9206D20F05C
:108CA000010020654846EEE70B4910B5A1F17C02B2
:108CB0000A4CC2E93712372106E000EB104342F8B4
:108CC0002130074B00FB03400B1EA1F10101F4DC36
:108CD00010BD0120E8E7000024AA0120E119D666B2
:108CE000CD0D0100401ECAB210F8011F8A4202D009
:108CF0000029F9D10020704730B503461D781DB119
:108D00000A4603E0AC4201D1181A30BD12F8014BFB
:108D1000002CF7D15B1CF1E710B5431E13F8014F8F
:108D2000002CFBD105E011F8014B002C03F8014B9E
:108D300003D0521EF7D20021197010BD30B5054680
:108D40000B462A4613F8014B12F8010B08B1A0425A
:108D5000F8D01CB1002802D06D1CF1E7284630BDC8
:108D600040EA010310B59B070FD1042A0DD310C8A8
:108D700008C9121F9C42F8D020BA19BA884201D9FA
:108D8000012010BD4FF0FF3010BD1AB1D30703D042
:108D9000521C07E0002010BD10F8013B11F8014BF8
:108DA0001B1B07D110F8013B11F8014B1B1B01D114
:108DB000921EF1D1184610BD40EA0103024630B5BB
:108DC0009B0710D14FF0013400E008C208C91D1BF9
:108DD0009D4315EAC41FF8D013F0FF0102F8011BF0
:108DE0000DD01B0AF8E711F8013B002B02F8013BFC
:108DF00005D011F8013B002B02F8013BF3D130BD47
:108E00000022CBB210F8011B994200D1421E00296A
:108E1000F8D11046704710B5431C02E010F8011B52
:108E200071B18107FAD14FF0013202C88C1A8C431C
:108E300014EAC211F9D0C01A0A0603D0C01E10BD30
:108E4000C01A10BD0A0401D0801E10BD0902FCD05A
:108E5000401E10BD40EA010370B59B072ED14FF0B4
:108E60000136042A2AD308C810C99D1B9D43121F2E
:108E700015EAC61517D0D8B2E1B2401A50EA05611A
:108E800010D198B2A1B2401A50EA05410AD123F09C
:108E90007F4024F07F41401A50EA052102D1180E8C
:108EA000A0EB146070BDA342DBD018BA21BA88428F
:108EB00001D9012070BD4FF0FF3070BD0AB900200C
:108EC00070BD10F8013B11F8014B63B1A3420AD108
:108ED000521E08D010F8013B11F8014B1BB1A34200
:108EE00001D1521EEDD1181B70BD421E12F8013F78
:108EF000002BFBD111F8013B002B02F8013BF9D10B
:108F00007047032A40F2308010F0030C00F0158007
:108F100011F8013BBCF1020F624498BF11F801CB7C
:108F200000F8013B38BF11F8013BA2F1040298BFE1
:108F300000F801CB38BF00F8013B11F0030300F04B
:108F40002580083AC0F0088051F8043B083A51F8EF
:108F500004CBA0E80810F5E7121D5CBF51F8043BF4
:108F600040F8043BAFF30080D20724BF11F8013B67
:108F700011F801CB48BF11F8012B24BF00F8013BC9
:108F800000F801CB48BF00F8012B704710B5203A1C
:108F9000C0F00B80B1E81850203AA0E81850B1E8B2
:108FA0001850A0E81850BFF4F5AF5FEA027C24BF68
:108FB000B1E81850A0E8185044BF18C918C0BDE85F
:108FC00010405FEA827C24BF51F8043B40F8043B28
:108FD00008BF7047D20728BF31F8023B48BF11F8DD
:108FE000012B28BF20F8023B48BF00F8012B704737
:108FF00002F0FF0343EA032242EA024200F002B811
:109000004FF000020429C0F0128010F0030C00F0B1
:109010001B80CCF1040CBCF1020F18BF00F8012B2F
:10902000A8BF20F8022BA1EB0C0100F00DB85FEAFD
:10903000C17C24BF00F8012B00F8012B48BF00F8C9
:10904000012B70474FF0000200B513469446964638
:10905000203922BFA0E80C50A0E80C50B1F120014B
:10906000BFF4F7AF090728BFA0E80C5048BF0CC0F9
:109070005DF804EB890028BF40F8042B08BF704757
:1090800048BF20F8022B11F0804F18BF00F8012BC9
:10909000704710B5044610F0030F08BF11F0030F1E
:1090A00040F015804FF0013E121FC0F20E8051F8C3
:1090B000043BA3EB0E0C2CEA030C1CEACE1C08BFED
:1090C00040F8043BF0D0A1F1040102F10402521E69
:1090D00008DB11F8013B002B00F8013BF7D11146EA
:1090E000FFF78EFF204610BD4FF0013C50F8042BD7
:1090F00051F8043B9A4221D1A2EB0C03934313EAAB
:10910000CC1317D150F8042B51F8043B9A4215D1D7
:10911000A2EB0C03934313EACC130BD150F8042BAE
:1091200051F8043B9A4209D1A2EB0C03934313EA92
:10913000CC13DBD04FF00000704700BFD01A01BA4B
:10914000B1FA81F101F0180122FA01F0CB40C1F12E
:109150002001DBB2C0B2C01A2CFA01F3D11A91433C
:1091600011EAC311E6D1704710B503681C1404EB73
:1091700021449BB289B2194494FBF2F302FB1343DE
:1091800094FBF2F401EB034393FBF2F102FB113188
:1091900093FBF2F301E05B1E11440029FBDB01604D
:1091A00003EB044010BD2DE9F04704464FF0FF3AB1
:1091B00086B00068029060680390A0680490E06840
:1091C000019020690090656905F18040B0F1004F81
:1091D0007DD83C22002102A8FFF7C6FF3C220146B1
:1091E00003A8FFF7C1FF1822014604A8FFF7BCFF40
:1091F000411E40F2B55201A8FFF7B6FF0C22064609
:1092000068460021FFF7B0FF00EB860028443E4D82
:1092100000267D440FE09A1A491CCDE9001202296C
:1092200002D00C2907D104E0810704D0521C01921E
:1092300001E0401C00960099019B6A5C9A42EADDBD
:10924000012906D11C2B04D1810702D00221CDE9CE
:109250000016A0F146018B2940D20199009B002203
:109260000F4602E0AE5C521C31449A42FADB012BFD
:1092700002DD820700D0491E40F2B55540F26D165E
:10928000C21700EB927292106A4300F0030505FBCF
:10929000062285070A4400D1521E049D02EB4206B5
:1092A000DDF80C80A94605EBC605184EC5EB051583
:1092B000DDF808C008EB850535442E14ADB2C6EBC9
:1092C0000616C5EB0515B6000CEB850500E005E0BC
:1092D00006EB154666F31F45360C03D0504606B024
:1092E000BDE8F087C4E904307F1C0720521CC4E9A4
:1092F000029792FBF0F3E4E806C800FB132084E831
:1093000003042846EBE70000FAF10300A039CEFD84
:10931000704770477047000010B500F03FFE001D19
:1093200010BD00BF2DC403000048704788AB01206A
:1093300010B5FFF7F9FF006810BD10B50446FFF740
:10934000F3FF046010BD2DE9F0470D4699469246A3
:10935000044600F124080168880604D5E06921F07C
:109360001001216000E00120A84201DD471B00E060
:109370000027A1697A1902EB0900081AA061207878
:10938000C00602D42046FFF77FF8002608E0D4E9A3
:1093900001211AF806009047206A401C761C2062C2
:1093A0004E45F4DB2078C0060AD52046FFF76CF85E
:1093B00006E0D4E9012130209047206A401C206259
:1093C000381EA7F10107F4DC07E0D4E9012118F801
:1093D00005009047206A401C2062281EA5F1010567
:1093E000F3DC2046FFF766F82078000602D502205D
:1093F000BDE8F0870120FBE770472DE9FF4F0C46E1
:109400001E464FF0FF378BB0D2E90001DDF86080D7
:109410000A908A46C1F30A5505B93D46002108461F
:109420004FF00000BAF1000F00F4400005DA00EB45
:1094300080004FF4400101EA50004FEA9059B9F121
:10944000010F00DDB9460A9850EA4A000ED044F6F2
:109450001050A5F2FF3545432F14B8F1000F1ED070
:109460007542291E1EDDC9F100021CE0B8F1010F92
:109470004FF0000001D0302103E0F24305E0215419
:10948000401CB042FBDB30460022002121540B99E6
:10949000C1F80880C1E900200FB0BDE8F08FBD1B06
:1094A0006D1CDEE74A4600DA694206A801F012F8B0
:1094B00006AB93E8070003AB83E8070050460A9920
:1094C00001F07AFE8DE80700A0F500501F380090EB
:1094D0000398002D09DD42F21F014A46084403A902
:1094E0000390684602F003F908E0A0F500504A46F0
:1094F0001F3803A90390684602F021F98DE80700A0
:109500000004000C03D04FF0FF30410800E010468B
:10951000B8F1000F03D00022009215461EE0751E20
:1095200005D400F03FFD303262556D1EF9D5B346CB
:109530000122084302D000227F1C04E0207830285A
:1095400001D100227F1E002A099786D01DE0112D2F
:1095500007DA00F027FD303262556D1C50EA010237
:10956000F5D1084302D00098C8B10EE00021681E72
:1095700005E0235C625C63542254401E491C814216
:10958000F7DBAB46A81B401E0990002004F80B0037
:109590000B98099AC0F80880C0E9002B7CE71126D7
:1095A0004FF0000859E72DE9F04F88460446D21DD8
:1095B00022F0070191B0D1E90001CDE90A010EF0D6
:1095C0007CFE02460B98C00F01D02D2007E02068DA
:1095D000810701D52B2002E0202101EAC000032AE7
:1095E000099001D0072A05DB03464146204600F0DA
:1095F00027FD0BE12078800601D5E06900E0062018
:10960000B8F1650F814606D0B8F1660F18D0B8F1F1
:10961000670F70D131E00020B9F1110F009001DB2C
:10962000112301E009F101030AAA01A90CA8FFF71F
:10963000E4FEDDE90C70002609F10105834647E0F0
:1096400001204B4600904FF000470AAA01A90CA840
:10965000FFF7D3FEDDE90DB00C995D46002610B989
:1096600009F101000D18B9EB050003D4C0F1FF3674
:1096700009F10105A5EB09002BE0B9F1010F01DAB1
:109680004FF001090020B9F1110F0090484601DDAB
:10969000112300E003460AAA01A90CA8FFF7ADFEBA
:1096A000DDE90C704D4600268346207800070AD479
:1096B000AB4500DA5D4601A8012D04DD411911F822
:1096C000011C302907D04F4502DA17F1040F04DAE4
:1096D000012082460FE06D1EEEE7002F02DCED1B3D
:1096E0003E4403E0781CA84200DD7D1CB81B00F15D
:1096F000010A4FF000472078000703D4AA4501DB98
:109700004FF0FF3A0021B7F1004F0DF143088DF8FB
:10971000431024D002202B23002F01DA7F422D2377
:109720000A21021EA0F1010000DC5FB197FBF1FCF1
:1097300097FBF1F201FB1C7C17460CF1300C08F88A
:1097400001CDEEE7A8F1010003702188090501D5DC
:10975000452100E06521A0F1010800F8011C0998ED
:109760000FA9A1EB0807FF1D00B10120411901EB72
:10977000EA70A1693844081A401EA0612078C0062A
:1097800002D42046FEF780FE099828B1D4E90121D1
:109790009047206A401C20622078C00622D52046CF
:1097A000FEF772FE1EE0002E04DBB34502DD01A8C9
:1097B000805D00E03020D4E901219047206A401C00
:1097C0002062761CAAF101005FEA000A0AD100F0CB
:1097D000E5FBC0680168405CD4E901219047206A3C
:1097E000401C2062281EA5F10105DCDC07E0D4E95D
:1097F000012118F8010B9047206A401C2062381E96
:10980000A7F10107F3DC2046FEF754FE032011B058
:1098100043E6000001694A1C02610878704700B500
:109820008FB0CDE901310021059105497944CDE999
:10983000031011466846FEF7DFFE0FB000BD0000C2
:10984000E5FFFFFF0A6802F8010B0A607047D1E9E3
:1098500000239A4202D2531C0B601070704710B55F
:10986000436913B1AFF3008001E0FEF734FE01203D
:1098700010BD127800F124010A7000224A70012202
:10988000EDE711684FF0FF32E9E70000074B70B5D4
:109890000D467B44FFF7C3FF0446284600F0D4F88A
:1098A00010B14FF0FF3070BD204670BD6FC6010093
:1098B0003A2800D2303820F02002412A01D3A2F108
:1098C0003700884201D34FF0FF30704702681144DF
:1098D0001378016018467047D16005497944516199
:1098E00004497944116200211161114600F0E8BB7E
:1098F000EDFFFFFF49070000426842B1016811F81F
:10990000013B23B1521EC0E90012184670470121E5
:10991000C160881E704742685AB1C368016843B984
:1099200083688B4205D0491E521CC0E900120020FA
:1099300070474FF0FF3070470FB4002300B589B077
:109940000CA900910B99CB60204B7B440693204BD4
:109950007B44079304236FF00042CDE901321D4A96
:109960007A446B460892024600203DF06CF909B03B
:109970005DF814FB70B506464FF0FF3015460C46F7
:10998000324686B00091CDE901016946002004907D
:1099900004A8FFF7D1FF03460498211825B108B1A8
:1099A0000A4600E022462A6000280DD0002B02DD86
:1099B0000098884208D03246081B69460094CDE9D9
:1099C000010404A8FFF7B8FF06B070BDABFFFFFFAE
:1099D000C3FFFFFFCB0600002DE9F04791460F467D
:1099E00080460446002614F8015B2DB1FFF794FC75
:1099F0000068405DC007F6D12B2D02D02D2D18D068
:109A0000641E4A463946204600F014FD27B13968E5
:109A1000A14201D1C7F800804FF0020471050BD5B7
:109A20004042002803DDFFF77FFC0460A007BDE88B
:109A3000F08746F48066E4E70028F8DAFFF774FC64
:109A400004606FF00040F2E7007B00F08000704798
:109A500070B50D4601461446D36850692A460FF08A
:109A6000B7FC002807DA411C07D0E16820F000406D
:109A700041F48041E160281A70BD204600F012FADE
:109A80004FF0FF3070BDC1680022026021F48051A8
:109A900041F0400111F4C06FC16001D08260704795
:109AA00002694168891AC269891A816070472DE983
:109AB000F0470446C06840F48000E060010312D51E
:109AC00020F40020E060810606D4E26A61688A42E0
:109AD00000D80A46511A216040F40010E06094F862
:109AE0002500BDE8F08720F40010E060800602D574
:109AF000204600F02EFAE06842F281014FF0FF3973
:109B00000140012903D0204600F0CCF9B6E02168DD
:109B1000002600290ADAC94340F480502160C4E9D4
:109B200002606068411C61600078DAE744F240013D
:109B300008420CD020F4A04040F040002660E060D5
:109B400021696068401AE169401AA06096E02169C5
:109B500091B9C00310D4E06922F08FFC2061B0B14C
:109B6000E06840F4006010F4407FE06002D140F40F
:109B70008070E06020696060E068D4F814A0C106DD
:109B80001AD5C0030ED5204600F0C0F914E004F148
:109B9000240020610120E061E06820F4407040F47E
:109BA0008060E6E721696068401AA1690144504677
:109BB0000FF023FC0028A6DBE068C0032AD561680B
:109BC000E06A884200D808462169451AE069471BC7
:109BD0001BD02046D4F8188000F098F908EB050156
:109BE0005046C4F818800FF008FC00288BDBE068B2
:109BF00040F40030E060000202D5A0692844A06172
:109C0000E1692069C91B45180DE0204600F07EF986
:109C1000E769F5E725696168D4E90607491BE5624C
:109C200008446560A061E06820F0100010F4C06F87
:109C3000E06002D0204600F057FDE06840F480501C
:109C4000C4E90260000205D52069E06260606FF03F
:109C5000010046E7224639462846FFF7F9FE411C37
:109C60000CD02918E16258B1401E2060681C606069
:109C7000E06840F40030E060287832E7484630E79A
:109C800065602046FFF7FFFEF8E72DE9F04705463F
:109C90000C46C86820F4201040F48000C86080069C
:109CA00002D5084600F055F9E06841F282014FF014
:109CB000FF390140022903D0204600F0F3F8B5E057
:109CC00000F42041B1F5004F0FD1C00306D5616803
:109CD000E06A884200D80846606006E02069E062D9
:109CE000606060690FF02CFBA061A0680022EEB2FA
:109CF00000280DDAE1688B050AD4C043A06041F466
:109D000090302260E0606068411C61600670A5E0F0
:109D1000E0689046226040F40050E060206968BB33
:109D200060690FF010FB012704F12405A0B1A089A0
:109D300010F4407F08D0E06922F09FFB206118B149
:109D4000E06840F4006016E0E7612561E06820F417
:109D5000407040F480600EE0E06922F08EFB002845
:109D60002061F1D0E06840F4006010F4407FE060D2
:109D700002D140F48070E06020696060E06825698D
:109D80006FF0010AC1051FD56168E06A884200D8FA
:109D90000846411B04D02246284600F08DF8F0BB4F
:109DA000E068010203D5E562C4E9015854E0691C8A
:109DB000E1626160E16940F48030491EC4E902104B
:109DC00030462E70BDE8F087010202D500F48032E3
:109DD0000AE06068411C61600670E0680A2E40F489
:109DE0008030E06006D00022E16A6068814203D9D9
:109DF0000B4602E00122F7E70346A7895B1B7F05BC
:109E000003D4E7699F4200DDE2B1814200D80146F8
:109E1000E5620F1AC4E90158002B09DD00E005E0F6
:109E200022461946284600F047F808B14846C9E7D7
:109E300047B1A069E5626560C01BA061E06840F0C1
:109E40001000E060E068000208D56168A069E56282
:109E5000491B08446560A0615046B3E73046B1E74E
:109E600010B50146C268900703D0900607D5886AEE
:109E70000AE0FFF759FA01210160881E10BD8B69C5
:109E8000486818440B69C01A91F848301BB191F822
:109E90004910401A10BD1103FCD50028FADD401E00
:109EA00010BD0000C16821F4001141F08001C160C3
:109EB00000218160016070472DE9F047814614461A
:109EC0000E464FF0FF383248D5685769054209D031
:109ED0003846A1690FF091FA002811DB2C48C043E5
:109EE0000540E5602B463246494638460FF08EFA6B
:109EF000A16920F00042B21A11440028A16103D0E8
:109F00002046FFF7CFFF4046BDE8F08770B5044616
:109F10000569C06A6168884200D80846E16821F492
:109F20002011E160C90312D5A84208D02246411B86
:109F30002846FFF7C1FF10B14FF0FF3070BD002081
:109F4000E562C4E90150E06820F48030E060002060
:109F500070BD10B50446C06820F02000E060A16A22
:109F6000A06988420DD02046FFF7D0FFE06820F4BA
:109F7000405040F01000E060A06AA0612069E062FB
:109F8000606044F24001E0688843E06010BD00007A
:109F9000100002000048704788AB0120004870475D
:109FA000A8AB012030B5B0F10A024FEA900E71F172
:109FB00000034EEA817EB0EB0E0061EB91014FEAA7
:109FC000101E4EEA017E10EB0E0041EB11114FEA1C
:109FD000102E4EEA016E10EB0E0041EB11214FEAFC
:109FE000104E4EEA014E10EB0E0041EB11414018AD
:109FF00041F100014FEAD00040EA41704FEAD1013F
:10A0000010EB80054FEA810444EA907444EB0104AC
:10A010006D1944EB0404521BA3414FF0000348BFE9
:10A020000A3200D530BD401C41F1000130BD10B5F1
:10A030000446FFF771F90068005D00F0010010BDF3
:10A040002DE9F0411F46044603260168072A01F462
:10A05000006004DB08B116A505E016A503E008B111
:10A0600015A500E015A521F010002060A069C01E14
:10A07000A0610FB1401EA0612046FEF705FA4FB166
:10A08000D4E9012138469047206A401C2062C01C58
:10A09000206206E0206AFAE7D4E9012115F8010BF5
:10A0A0009047761EF8D22046FEF704FABDE8F0810C
:10A0B0004E414E006E616E00494E4600696E66006C
:10A0C0002DE9F34F4FF0000A0C4656468DB00120A3
:10A0D0000C9001F10C000B9062690B9801219047E4
:10A0E00005002DD0252D2CD0216A8847C0B162698A
:10A0F0000B9801219047216A88470028F7D16269AF
:10A10000411E0B98904700E0761CA1690D98884786
:10A11000216A88470028F7D1E1690D988847DBE775
:10A12000A1690D988847A842074601D1761CD3E75C
:10A13000E1690D9888477F1C02D1BAF1000F6FD0FA
:10A140006BE162690B9800273D46394690472A2803
:10A1500004D162690B98012190470125DFF8D08274
:10A1600062690B9801219047A0F130010A290AD2B7
:10A170004745E5DC07EB870100EB4107303FDFD4C3
:10A1800045F01005ECE7E90601D46FF000476C28B4
:10A190000AD04C2814D0682815D06A280DD074280D
:10A1A0001CD07A281AD01DE062690B9801219047D3
:10A1B0006C2802D045F0040514E045F002050DE0DE
:10A1C00045F020050AE062690B9801219047682854
:10A1D00002D045F0080505E045F4006562690B987A
:10A1E00001219047C4E9015765283DD019DC582862
:10A1F0007AD00CDC452837D004DC252826D041282D
:10A200009ED131E046282FD0472899D12CE05B28F9
:10A2100077D0612828D063287CD0642823D15AE0E5
:10A22000F6E06F2848D008DC66281DD067281BD0D0
:10A23000692821D06E2816D127E0702845D07328D0
:10A2400068D0752847D078280DD14DE0A1690D98C8
:10A250008847252805463FF469AFE1690D9888478E
:10A260006D1C3FF46AAFD8E00D9923466A466FF043
:10A2700001003CF0E8FCC5E045F0400023464FF00B
:10A2800000026060A80736D43EE0E8077FF447AFDD
:10A290002068011D21600068290501D506701BE7B3
:10A2A000290701D5068017E7A90703D5F117C0E9EB
:10A2B000006111E706600FE745F0400023464FF0CC
:10A2C00008026060A80716D41EE040F60E0125EAD9
:10A2D0000100606016E045F0400023464FF00A029E
:10A2E0006060A80707D40FE045F040006060A80751
:10A2F00008D5234610220D996FF00100AFF30080BE
:10A3000080E007E0102223460D996FF00100FEF770
:10A3100055FA77E04FF0000963284F46C8464B4690
:10A32000CB4602D05B2806D038E0E80601D40120F5
:10A33000A060012732E06269D4F80CB00B980121CB
:10A3400090475E2807D14FF0010949466269D4F869
:10A350000CB00B989047216939B900210A4603AB2C
:10A3600043F82120491C0829FADBD8B3216949B3F5
:10A3700008F1010862690B98012190475D28F4D12A
:10A38000B9F1000F09D0002003A951F82020D243D1
:10A3900041F82020401C0828F7DB03AB2069002887
:10A3A00020794FEA40701ED05B462246CDF80080EF
:10A3B000CDE901970D9900286FF0010020DAAFF385
:10A3C00000801FE0C11703AA00EBD1614B1121F0FF
:10A3D0001F0102EB8302411A1368012088400343E6
:10A3E0001360C7E719E00D99224600286FF00100BD
:10A3F000009702DAAFF3008004E0FEF785FA01E08F
:10A40000AFF3008000280ADA401C06D10C9820B176
:10A410004FF0FF300FB0BDE8F08F5046FAE7E90784
:10A4200001D10AF1010A064400200C9054E6000014
:10A43000CCCCCC0C2DE9F05F824615468B4600272C
:10A440000AF10104B9460078302801D09DB113E02B
:10A4500014F8010B0127782803D0582801D045B102
:10A460000AE00DB1102D07D1002714F8010B1025BB
:10A4700002E0082500E00A250026B0460EE005FBB4
:10A48000080005FB06F101271FFA80F801EB1046D2
:10A49000B6F5803F00D3B94614F8010B2946FFF703
:10A4A00007FA0028EBDABBF1000F05D00FB1641EEC
:10A4B00000E05446CBF80040B9F1000F06D0FEF79B
:10A4C00033FF02210160C81EBDE8F09F48EA064044
:10A4D000FAE700002DE9F047814616468AB0334876
:10A4E00078440DC88DE80D0030487844801C03ACDA
:10A4F0000DC884E80D0041F69B300844372190FBDD
:10A50000F1F290FBF1F5A5F1800501FB12041B3C73
:10A5100002D56442012000E00020DFF890A08046D0
:10A520000027FA44AAF1BE0A0DE0E00709D032463E
:10A53000684607EB47010AEB810101F000F98DE85D
:10A54000070064107F1C002CEFD1184F7F44AC3FF4
:10A5500018E0E80714D007EB04100DF1180A90E892
:10A560000E008AE80E00C068F04201D198190890E8
:10A57000324606A903A801F0E2F803AB83E807001E
:10A580006D10641C002DE4D132466946B8F1000F0D
:10A5900003A802D001F0ABF801E001F0D0F8C9E95E
:10A5A0000001C9F808200AB0BDE8F087C0DF030049
:10A5B00010B542485421FEF745FD41485421FEF7AD
:10A5C00041FD40485421FEF73DFD3F493B483C4A90
:10A5D0003F4B08603D490A603A491960531C0365C6
:10A5E000481C1065012008653B48344A39A178446D
:10A5F000FEF7BEFA20B9384878440A3800F063FB09
:10A6000037482F4A35A17844FEF7B2FA20B93448CA
:10A6100078440A3800F057FB32482A4A2FA1784480
:10A62000FEF7A6FA20B92F4878440A3800F04BFB11
:10A6300040232248DC000021224600F01BFB20B111
:10A6400025487844543800F03EFB1D4822464023FC
:10A65000002100F00FFB20B121487844543800F06D
:10A6600032FB184822461023002100F003FB00288B
:10A6700006D01C487844BDE81040563800F023BB93
:10A6800010BD104870B5006D20F001040B48FEF7B6
:10A69000E5FA0B48FEF7E2FA0A48FEF7DFFA09E0AE
:10A6A000206D20F001052046FEF7D8FA20461BF069
:10A6B00036FC2C46002CF3D170BD00008CAA012082
:10A6C000E0AA012034AB01200C0500201005002079
:10A6D000140500207200000029D303007700000059
:10A6E00017D3030006D3030070B5054640F20226D7
:10A6F0000A4C0FE094F85000C00708D0AC4206D0D6
:10A70000E06836EA000002D1204600F081FA206DB0
:10A7100020F00104002CEDD170BD00008CAA0120B6
:10A720007546FFF737FCAE4605006946534620F0F4
:10A730000700854618B020B5FDF7CAFDBDE82040EA
:10A740004FF000064FF000074FF000084FF0000BED
:10A7500021F00701AC46ACE8C009ACE8C009ACE8A0
:10A76000C009ACE8C0098D46704700002DE9FF4FD5
:10A77000064689B00878FF2806D0491C2D2805D048
:10A7800000244FF0000908E000200CE00124F8E765
:10A7900009EB8903491C00EB43090878FF28F7D12E
:10A7A00014B1C9F100008146107800252C46AA4654
:10A7B00029462D2801D02B2804D1521C2D2813D036
:10A7C000002082468B461078FF280FD04FF0000CF7
:10A7D0000A21521CA5FB017804FB018105FB0C1129
:10A7E000C5194BEB0104EEE70120EAE7002108461A
:10A7F0004FF00000BAF1000F02D000EB80004008DB
:10A80000C0F38158B8F1010F01DD4FF0FF380C980B
:10A8100009EB000755EA040009D04FF0020917F5CB
:10A82000FA7F0BDA4FEACA70C6E900B012E04FEACD
:10A83000CA70C6E900B00DB0BDE8F08FB7F5FA7F79
:10A840000DDDF0487844D0E90010C6E9001040EA78
:10A85000CA707060FEF768FDC0F80090EBE7391E23
:10A8600002DAC8F1000200E0424600DA794206A8A6
:10A87000FFF730FE06AB93E8070003AB83E8070061
:10A8800044F23E005BEA04010090584604D144F2D1
:10A890001E012C465D460091210C0904014306D19E
:10A8A0000099240444EA15442D041039009104F061
:10A8B0007F41014306D10099240244EA15642D0228
:10A8C0000839009104F07041014306D10099240138
:10A8D00044EA15742D01091F009104F04041014321
:10A8E00006D10099A40044EA9574AD00891E009138
:10A8F00004F00041084304D100986D196441401EE2
:10A90000009042466846002FCDE9014503A902DDCB
:10A9100000F029FF01E000F0FEFEBAF1000F04464E
:10A920000D4601D084F0004440F2FF7724F000404F
:10A93000284303D0C4F30A50B84212D1FEF7F4FC06
:10A94000C0F80090C4F30A50B8420AD1AE48784427
:10A95000D0E90010C6E9001004F00041084370601F
:10A9600069E7C6E9005466E72DE9FF4F1F464FF03F
:10A97000000A4FF0FF38454691B0D7E90146CDF8BF
:10A980003CA0FFF70BFBC0680168405C1090B96900
:10A9900012986D1C8847396A814688470028F6D18D
:10A9A000B9F1FF3F0AD0002E24F4D06411DDB9F1D3
:10A9B0002B0F08D0B9F12D0F0BD102E0404615B096
:10A9C0003AE744F48064B96912986D1C8847761E92
:10A9D0008146600504A901D52D2000E02B20002E22
:10A9E00001F1010B0DF130088DF810003FDDB9F1D8
:10A9F000690F08D0B9F1490F05D0B9F16E0F02D037
:10AA0000B9F14E0F1CD13B4601A8009580E85002D9
:10AA1000DDE912126FF002003CF019F9C11CCED131
:10AA20000EE0B96912986D1C884781461398761E0E
:10AA300044F4007405600F98401C002E0F9016DD42
:10AA4000B9F1300FEDD0B9F1780F02D0B9F1580F4C
:10AA50000DD10F9801280AD13B46CDE90054DDE91C
:10AA60001212001F02963CF0F0F8C11CA7D11099F9
:10AA700089453ED144F0800406E01399681CAAF190
:10AA8000010A44F400740860B9696D1C1298761EBE
:10AA9000884730288146F0D02BE01099894505D1B0
:10AAA000200603D4761E44F0800418E048460DF0DA
:10AAB00020FD08B3761E0DF123018B4544F400748C
:10AAC00008D2A9F130000BF8010B200607D5AAF136
:10AAD000010003E0200602D40AF101008246A0052D
:10AAE00002D51399681C0860B96912986D1C8847D3
:10AAF0008146002ED1DC53E0002E51DDB9F1650F07
:10AB000002D0B9F1450F4BD1A00549D5B9696D1CEB
:10AB10001298761E24F440748847002E81460CDD7E
:10AB20002B2804D0B9F12D0F07D144F48074B969F2
:10AB300012986D1C8847761E8146E00501D52D21AF
:10AB400000E02B2108F8011BCDF8008021E0761EE3
:10AB50000DF13901884544F400740CD2A9F130009C
:10AB600010F0FF0088F8000002D10099884509D94B
:10AB700008F1010806E0E00501D5244801E042F2B1
:10AB80000F708246B96912986D1C884781461398E8
:10AB90000560002E04DD48460DF0ABFC0028D6D140
:10ABA000F96912988847FF2053468BF8000088F80F
:10ABB000000000200A900B9004AA0CA90AA8FFF735
:10ABC000D5FDA00502D46FF00100F8E614F0240FC3
:10ABD0000AD0E00714D13868DDE90A12031D3B6092
:10ABE0000068C0E900120BE00AA968460DF0EEFB10
:10ABF000E00705D13868009A011D396000680260DD
:10AC00002846DCE670F3030066F20300F1D8FFFF8C
:10AC100070B50446C068810713D0800601D5A56AC7
:10AC200004E0A169606808442169451A2046FFF7DD
:10AC30006DF90022064629462046FDF71DFF3046E5
:10AC400070BD002070BD70B510B1BDE87040DFE789
:10AC50000025074C6E1E07E02046FFF7D9FF00B124
:10AC60003546206D20F00104002CF5D1284670BD3A
:10AC70008CAA012070B5C468A50713D0650211D451
:10AC8000B2F5807F09D0B2F5007F06D0B2F5806FB3
:10AC900008D1012300F1240106E05D1E6FF07F461C
:10ACA000B54201D3012070BD0161C361416024F44C
:10ACB00070611143C160002070BD0446AFF3008095
:10ACC0002046FDF7D7FA10B500F00AF8BDE81040AD
:10ACD000AFF30080002801D00EF031BB70470000B8
:10ACE00010B5014602A000F03BFA012010BD0000A3
:10ACF00053494752545245443A205265646972653B
:10AD000063743A2063616E2774206F70656E3A2019
:10AD1000000000002DE9FF4F1F464FF03C0987B0AF
:10AD20004FF00042DDE9141001F10108DDF858A0F0
:10AD300002EA4050039000200490834605460446F2
:10AD40000590B969461E08988847AAF1010A029041
:10AD5000BAF1000F37DD02982E2815D01021FEF72A
:10AD6000A7FD00282ADB4FF0010B0499014316D000
:10AD7000B9F1000F0BDB4A46C11700F00AFA054390
:10AD80000C43A9F1040905E00120059007E008B192
:10AD900045F0010501200490059800B9361DB969F8
:10ADA000089808F101088847BBF1000FAAF1010AD1
:10ADB0000290CDD00999C1F80080C9E702987028A7
:10ADC00008D0502806D0F96908988847BBF1000FD1
:10ADD00014D04FE0002002900120BBF1000F04903E
:10ADE00009D0B969089808F101088847AAF1010952
:10ADF000B9F1000F07DCF969089888476FF0010086
:10AE00000BB0BDE8F08F2B2804D02D280CD14FF0CB
:10AE1000FF300490B969089808F101088847A9F142
:10AE20000109B9F1000FE6DD411CE4D00A21FEF76B
:10AE30003FFD0028DFDB029908F1010801EB8101E9
:10AE400000EB41000290B969089888470A21FEF793
:10AE50002FFD099AA9F10109B9F1000FC2F800808C
:10AE600001DD0028E7DAF969089888470499029813
:10AE700000FB016655EA040004D004F040410900DB
:10AE800002D006E0039898E0A40044EA9574AD006F
:10AE9000B61E04F00041080002D16D196441761E0F
:10AEA000159810F0240F03D04FF00B095C4803E015
:10AEB0004FF028096FF07D008246564507DAAAEB6D
:10AEC00006018944B9F1410F01DD4FF0410901202C
:10AED0000021A9F1010200F05CF9024628400B466E
:10AEE0002140084301D0012100E00021501E0291C1
:10AEF00043F1FF3128402140084301D0012000E008
:10AF000000200299834651EA0B014FD000210846E8
:10AF10004FF00000039900F4400039B100EB8000CD
:10AF20004FF4400100EBD07001EA60008015012869
:10AF300002DD4FF0FF3000E013D0401C36D0029805
:10AF400060B3BBF1000F0CD14A460120002100F094
:10AF500020F928402140084301D0012000E00020D2
:10AF6000E0B101204A46002100F013F903464019E0
:10AF70000A4661412D1A8C4111D3B9F1400F09DD08
:10AF8000159810F0240F02D0AAF1340603E0AAF1BC
:10AF9000170600E0761C00254FF0004406E05B1E1B
:10AFA00042F1FF3220EA030521EA0204CAF101005E
:10AFB000B04206DA1B490398084301900020009034
:10AFC0000EE0039AC4F3D321E80A0A43164940EA83
:10AFD00044500A433146CDE9000268460DF064FA58
:10AFE000159810F0240F0BD01598C00715D13868AC
:10AFF000DDE90012031D3B600068C0E900120CE0AF
:10B0000002A869460DF0E2F91598C00705D1386825
:10B01000029A011D3960006802604046F0E60000B7
:10B0200002FCFFFF0000F07F0000F03F2DE9FF4F22
:10B0300092461D4685B04FF00041DDE9124BDDE937
:10B0400014727F1E01EA4B50414940F0FF4940EA2B
:10B050000108002122F020004928049102D04E2846
:10B0600028D04CE03BA0012607C88DE80700A9695D
:10B070000698641C88477F1E014606D41DF806000A
:10B0800018B121F0200181420BD0E9690698884768
:10B09000032E34D0082E32D06FF0010009B0BDE885
:10B0A000F08F761C032E01D0082EE0D1601CCAF868
:10B0B0000000DCE7A9690698641C88477F1E2AD433
:10B0C00020F02000412826D1A9690698641C8847F1
:10B0D0007F1E20D420F020004E281CD1A96906989C
:10B0E000641C88477F1E48F4002849F48009CAF888
:10B0F000004001D4282806D0E969069888475FEA0D
:10B10000CB7012D022E0A9690698641C88477F1E84
:10B1100001D4002803DAE96906988847BCE72928A2
:10B12000F1D1641CCAF80040E9E71BF0240F07D0F6
:10B1300028680499031D2B600068C0E9001805E029
:10B140002868021D2A600068C0F800902046A5E724
:10B150000000F07F494E46494E4954590000000016
:10B1600070B505460C460A2000E06D1C0EF06CF927
:10B1700035B128780028F8D102E0641C0EF064F99B
:10B1800014B120780028F8D1BDE870400A200EF0F4
:10B190005BB9B2F120030AD5C2F1200301FA02F132
:10B1A00020FA03F300FA02F041EA0301704700FAC3
:10B1B00003F14FF0000070475FEA400C08BF91F0C8
:10B1C000000F4FEA8C234FEAC12243EA51514FEA64
:10B1D0001C5018BF00F5F0404FEA300018BF41F096
:10B1E00000415FEA6C5C00F02980BCF1FF3F08BFC2
:10B1F00040F080407047130C06BF12044FF0100C53
:10B200004FF0000C130E04BF12020CF1080C130FC8
:10B2100004BF12010CF1040C930F04BF92000CF157
:10B22000020CD30F04BF52000CF1010C11464FF079
:10B230000002A0F11F00A0EB0C00704711F0004FBE
:10B2400008BF704731F000413FF4D5AF0B0C06BF8B
:10B2500009044FF0100C4FF0000C0B0E04BF090254
:10B260000CF1080C0B0F04BF09010CF1040C8B0F3F
:10B2700004BF89000CF1020CCB0F04BF49000CF194
:10B28000010CCCF12003A0EB0C0022FA03F302FA2C
:10B290000CF241EA030100F10100704720F07F4CFD
:10B2A00080EA030023F07F47ACEB070303F57C53F0
:10B2B00000F0004003F1FF032DE980494FEA154BF0
:10B2C00009B44FEA144325EA0B4E24EA03480FF26F
:10B2D000042606EB132749083E785FEA320203FB97
:10B2E0000667C7F5000707FB06F64FEA54374FEA33
:10B2F000D64606F1020607FB066CCCF1005C4FEA6D
:10B300001C472CEA074C07FB06F40CFB06F504EB84
:10B3100015464FEA961634BF00204FF000404FEA22
:10B32000D13706FB07FC4FEA1C4C0CFB0BF7D21B7A
:10B3300003FB0CF761EB07010CFB0EF7B0EB0740CA
:10B3400072EB17420CFB08F734BFA2EB0742B2EBDB
:10B35000074261EB17414FEA0C444FEA910706FBA5
:10B3600007FC4FEA1C4C0CFB0BF7B0EBC74072EB31
:10B37000573203FB0CF734BFA2EBC742B2EBC74214
:10B3800061EB57310CFB0EF7B0EBC70072EB577255
:10B390000CFB08F734BFA2EBC702B2EBC70261EBAC
:10B3A0005771039F4FEA816141EA921104EBCC048B
:10B3B0004FEAD1374FEA826206FB07FC42EA90125D
:10B3C0004FEA80604FEA1C4C0CFB0BF7D21B03FBCF
:10B3D0000CF761EB07010CFB0EF7B0EB074072EBCB
:10B3E00017420CFB08F734BFA2EB0742B2EB07424F
:10B3F00061EB17414FEA8C554FEA910704EB9C240F
:10B4000006FB07FC4FEA1C4C0CFB0BF7B0EBC740EC
:10B4100072EB573203FB0CF734BFA2EBC742B2EB1F
:10B42000C74261EB57310CFB0EF7B0EBC70072EB74
:10B4300057720CFB08F734BFA2EBC702B2EBC7028E
:10B4400061EB577115EB4C254FEA816141EA92118E
:10B450004FEA82624FEAD13742EA901206FB07FCBC
:10B4600044F100044FEA80604FEA1C4C0CFB0BF7E0
:10B47000D21B03FB0CF761EB07010CFB0EF7B0EBE3
:10B48000074072EB17420CFB08F734BFA2EB0742F0
:10B49000B2EB074261EB174115EB1C154FEA813106
:10B4A00041EA92414FEA823242EA90424FEA8030CA
:10B4B0004FEA0C7644F1000448EA03434EEA0B4895
:10B4C0004FF0000EB2EB080C71EB030724BF62468D
:10B4D00039464EEB0E0E4FF0000B00185241494119
:10B4E0004BEB0B0BB2EB080C71EB03077BF1000B82
:10B4F00024BF624639464EEB0E0E4FF0000B00188B
:10B50000524149414BEB0B0BB2EB080C71EB0307BB
:10B510007BF1000B24BF624639464EEB0E0E51EA1A
:10B52000020718BF46F0010616EB0E7655F1000231
:10B5300054F1000103D5BDE88901BDE80088BDE8EC
:10B540008901BDE80048B619524141EB0101A3F160
:10B550000103704780807F7E7D7C7B7A7978777667
:10B5600076757473727171706F6E6E6D6C6C6B6AE0
:10B570006A6968686766666564646363626161607E
:10B58000605F5F5E5E5D5D5C5C5B5B5A5A595958FB
:10B590005857575656555555545453535252525165
:10B5A000515050504F4F4F4E4E4D4D4D4C4C4C4BBB
:10B5B0004B4B4A4A4A494949484848474747474602
:10B5C000464645454544444444434343434242423E
:10B5D0004241414146EA0646A3F570534FEA1646FA
:10B5E00046EA42564FEAD22242EA415210B54FEAA9
:10B5F000D121A3F1010300F017F820F0004000F181
:10B60000010C00F0004701EB00501146BCF5006F43
:10B6100040EA070000D210BD02484FF0000140EAA6
:10B62000070010BD0000F07F002B26D4770021D04A
:10B630001CB54FEA370703B44FF010004FF010016C
:10B640004FF000000FBCBDE810400BF1010BBBF147
:10B65000010F08BF5FEA170722BF12F1010211F1C3
:10B6600001014FF0004143F1000300F0004043EAC4
:10B6700000007047F9D35708DAE746EA064613F1A7
:10B68000400F4FEA16461FDD13F1200FDFBF1643B0
:10B690000A46002120335B42C8D0C3F1200746EAA6
:10B6A000064602FA07F74FEA164646EA0706C3F1CE
:10B6B000200722FA03F201FA07F721FA03F14FF00B
:10B6C000000342EA0702B1E746EA020646EA0646F6
:10B6D0004FEA164646EA0106BCBF46EA0646360C65
:10B6E0004FF000034FF000024FF000019EE72DE9FC
:10B6F000C048934630B491E8380007C831EA400C9E
:10B7000048BF34EA430C03D5FFF7C8FDFFF78CFFB1
:10B71000F0BCBDE800882DE9C048934630B491E8FC
:10B72000380007C831EA400C48BF34EA430C03D55F
:10B73000FFF7B4FDFFF74EFFF0BCBDE800882DE930
:10B74000C048934630B491E8380007C810F0804FE5
:10B7500008BF13F0804F03D100F019F8FFF764FF22
:10B76000F0BCBDE800882DE9C048934630B491E8AC
:10B77000380007C810F0804F08BF13F0804F03D186
:10B7800000F005F8FFF726FFF0BCBDE8008820F0C8
:10B790007F4780EA030023F07F4C07EB0C03A3F5FF
:10B7A0007C5300F00040A3F1FE0392F0000F00F084
:10B7B000B38095F0000F00F077802DE901494FEA42
:10B7C00011404FEA144621EA004800FB06FC24EA37
:10B7D000064708FB06F607FB08F800FB07F718EB1F
:10B7E00006484CEB164C4FEA124B18EB07484FEA51
:10B7F00015464CEB174022EA0B4E0BFB06FC25EAE4
:10B8000006470EFB06F607FB0EFE0BFB07F71EEBCB
:10B81000064E4CEB164C4FF000061EEB074E4CEB61
:10B82000174B18EB0B0840F1000018EB0E0B58EB10
:10B83000000840F100008F1A4FF000013CBFC943DF
:10B84000661B14BFB5EB040C00213CBFC943F61BBB
:10B850004FEA17444EEA8E0E27EA04454FEA1C478A
:10B8600004FB07622CEA074C05FB07F70CFB05F607
:10B8700004FB0CFC16EB074642EB174216EB0C469A
:10B8800042EB1C421BEB060658EB0202414146EA22
:10B890009E0601D5BDE80189B619524141EB01016F
:10B8A000A3F10103BDE801894FEA14454FEA1147AE
:10B8B00024EA054621EA074C05FB07F406FB07F7D7
:10B8C0000CFB06F105FB0CFC11EB074144EB1744A4
:10B8D0004FEA124711EB0C4144EB1C4422EA074C9F
:10B8E00005FB07F206FB07F70CFB06F605FB0CFC55
:10B8F00016EB074642EB174216EB0C4642EB1C4593
:10B900006A1854F1000148BF7047B619524141EB23
:10B910000101A3F10103704795F0000F37D04FEA02
:10B9200011424FEA144721EA024624EA074C02FB7F
:10B9300007F106FB07F70CFB06F402FB0CFC14EB0B
:10B94000074441EB17414FEA154714EB0C4441EB18
:10B950001C4125EA074C02FB07F506FB07F70CFB29
:10B9600006F602FB0CFC16EB074645EB174516EBFB
:10B970000C4645EB1C42121951F1000148BF7047BB
:10B98000B619524141EB0101A3F1010370474FEA9F
:10B9900014454FEA114724EA054621EA074C05FB06
:10B9A00007F106FB07F70CFB06F24FF0000605FB5C
:10B9B0000CFC12EB074241EB174112EB0C4251EB2E
:10B9C0001C4148BF7047921841EB0101A3F10103EC
:10B9D00070473EB500F026F80121084608F018FB34
:10B9E0000821002006F0C2FC4FF480700024009073
:10B9F0008DF804400C208DF8050001258DF80650C7
:10BA0000684606F043F917208DF808008DF80940C4
:10BA100003208DF80A008DF80B5002A807F0FCFDFA
:10BA20003EBD000008B50121042008F0F1FA4FF4F2
:10BA30008070ADF8000048208DF803006946024888
:10BA400006F000FD08BD00000008014030B599B0C7
:10BA50000C46002564216846FDF7F4FA22460FA142
:10BA6000022024F04DFD0C22114904F10D00FDF7D8
:10BA700077F938B16A4629465FF0010000F01EFBF5
:10BA800019B030BD684602F071FBC4B2214609A06E
:10BA9000FCF7B6FC6A4621460020EFE757494649C5
:10BAA0005F526563765F4576656E742032302000A4
:10BAB00070BC0020636F6E6E65637453746174753F
:10BAC000733A25640A00000010B50C460A4608A126
:10BAD000022024F015FD0C220A4904F10D00FDF7A7
:10BAE0003FF900B10120BDE8104000F0B1BB0000FB
:10BAF000574946495F526563765F4576656E7420A7
:10BB00003233200070BC002030B585B000250C46D3
:10BB10000A46009501950295039510A1022004950F
:10BB200024F0EEFCE0690090206A01908DF8085046
:10BB3000606A0390208DADF810000C220C4904F1CE
:10BB40000D00FDF70DF903AA694628B15FF0010069
:10BB500000F082FC05B030BD0020F9E757494649A6
:10BB60005F526563765F4576656E742031372000DD
:10BB700070BC002010B50C460A4609A1022024F032
:10BB8000BFFC0C220B4904F10D00FDF7E9F80A494E
:10BB900020B10120BDE8104000F0DABC0020F9E738
:10BBA000574946495F526563765F4576656E7420F6
:10BBB0003138200070BC00201805002010B50C465C
:10BBC0000A4608A1022024F09BFC0C220A4904F139
:10BBD0000D00FDF7C5F800B10120BDE8104000F0F0
:10BBE0005FBD0000574946495F526563765F457601
:10BBF000656E74203334200070BC002070B54FF4A3
:10BC000080550C46284620F038FC06462946FDF7AC
:10BC1000F7F922460FA1022024F072FC0C221249EF
:10BC200004F10D00FDF79CF810B13146012007E04A
:10BC3000304602F027FB10F0FF0F08D00BA10020C8
:10BC400000F090FA3046BDE870401AF068B931460D
:10BC5000F5E70000574946495F526563765F4576D0
:10BC6000656E74203232200070BC0020000000009D
:10BC70002DE9F8430C4600250A4624A10220009530
:10BC800024F03EFCB4F81900ADF800008DF8025025
:10BC90006846FCF7A9FE07460C22214904F10D0075
:10BCA000FDF75EF808B1012104E0012F07D0022F53
:10BCB00003D10021384601F039FBBDE8F8831A486A
:10BCC000362100250068174E2138B0FBF1F0804680
:10BCD000014616A0FCF794FB0021384601F026FB34
:10BCE00004F11E01404623F02DFC202200213046A5
:10BCF0002BF0D0FD6D1CC336142DF6DB09481BF06C
:10BD00007DF8052029F0BCFBD7E7000057494649DC
:10BD10005F526563765F4576656E7420333320002D
:10BD200070BC0020EC710120B80100206E756D3AE6
:10BD300025640A000FB4FEB50020DDE92671259DBB
:10BD40008A7EC2F301160FE0C0EB001202EB820202
:10BD500001EB4202927EC2F30112B24201D00226EE
:10BD600006E0401C782803DADDF83D208242EBDC57
:10BD700008AA56A15948FCF759FB584C302058499D
:10BD800004F8190F3220607014983AF061FD3AF00F
:10BD9000DFFC010EA170010CE170010A21716071DC
:10BDA0001798C11700EB11200016A071179800EB2F
:10BDB00011400014E071179800EB11610812207215
:10BDC00017986072474916983AF042FD3AF0C0FC65
:10BDD000010EA172010CE172010A21736073DDF89A
:10BDE0003D00C11700EB1161080AA0739DF83D00EA
:10BDF000E073DDF83900C11700EB1161080A207407
:10BE00009DF8390060749DF8372037A16846FCF72B
:10BE10000DFB9DF80000A0749DF80100E0749DF8F2
:10BE2000020020759DF8362031A102A8FCF7FEFA29
:10BE30009DF8080060759DF80900A0753036E6751C
:10BE40002A4629A101A8FCF7F1FA9DF80400207602
:10BE50009DF8050060769DF80600A0761F483A46DA
:10BE6000343025A1193CFCF7E1FA34354520605502
:10BE70006D1C4E206055691C442060544FF47A704C
:10BE8000A91C91FBF0F030306071642091FBF0F25E
:10BE90000A2092FBF0F300FB13223032A27191FBD7
:10BEA000F0F292FBF0F300FB13223032E27191FBCF
:10BEB000F0F200FB12123032227260540748491C23
:10BEC00009F0B2FFFEBC5DF814FB00004150533195
:10BED0003130303030303030312573008F55012013
:10BEE000000020410000C8422530336400000000FB
:10BEF00025303278000000002573000070B50C4634
:10BF0000054641F65A212048FDF77AF82DB1BDE8E3
:10BF100070401EA11C48FCF789BA21A11A48FCF701
:10BF200085FA1948210E1622C173210C0174210AC9
:10BF3000417484744521C1744E21017544214175B9
:10BF40004FF47A7192FBF1F130314171642192FB2F
:10BF5000F1F30A2193FBF1F401FB143330338371C5
:10BF600092FBF1F393FBF1F401FB14333033C37113
:10BF700092FBF1F301FB1322303202728175BDE8AE
:10BF80007040172109F050BF8F55012041505331A7
:10BF900031303031353030313330310A000000007B
:10BFA0004150533131303030303030313330300067
:10BFB00030B585B0044600200D46009001900290F7
:10BFC0000390049041F65A213248FDF719F801A870
:10BFD0000DF060FC012C0FD02FA12E48FCF726FAA3
:10BFE0002C4C0F20302204F11101302D0BD0312DBB
:10BFF00010D0322D16D01EE02BA12648FCF716FAE1
:10C000001021244841E0E27322746A4601A827F017
:10C0100037FF0EE0E273312020746A4601A827F052
:10C020007BFD06E0E273322020746A4601A828F006
:10C030005DF80098113045212154401C4E212154B7
:10C04000401C44212154411C4FF47A7091FBF0F0C4
:10C0500030306071642091FBF0F20A2092FBF0F323
:10C0600000FB13223032A27191FBF0F292FBF0F34D
:10C0700000FB13223032E27191FBF0F200FB12124E
:10C080003032227260540348491C09F0CDFE05B0DD
:10C0900030BD00008F5501204150533131303031D7
:10C0A0003530303034303000415053313130303160
:10C0B000353030303430310A00000000F8B50C461D
:10C0C0000646154641F65A211348FCF799FF4EB132
:10C0D00012A11148FCF7AAF91021BDE8F8400E485A
:10C0E00009F0A2BE84B12846FCF795FE00F11302C8
:10C0F00023460FA108480095FCF798F92846FCF75D
:10C100008AFE00F11401E8E7224610A10248FCF77C
:10C110008DF91421E1E700008F5501204150533182
:10C1200031303031353030323030310A00000000EB
:10C130004150533131253034643030323030302585
:10C1400031642573454E440A0000000041505331CC
:10C150003130303139303032303030253164454E75
:10C16000440A000070B50D46044641F65A210F48B6
:10C17000FCF746FF4CB10EA10C48FCF757F9102113
:10C18000BDE87040094809F04FBE2846FCF743FE61
:10C1900000F112022B460BA10448FCF747F9284690
:10C1A000FCF739FE00F11301EAE700008F5501208A
:10C1B0004150533131303031353030323230310A44
:10C1C00000000000415053313125303464303032AA
:10C1D0003230302573454E440A00000010B548B196
:10C1E00010A11548FCF722F91021BDE810401248B3
:10C1F00009F01ABE022211A10F48FCF717F90E48E8
:10C20000302264211130FCF7F3FE0B48452100F881
:10C21000751F4E214170442181700A21C17079211E
:10C22000E3E70000415053313130303135303030A8
:10C230003830310A000000008F5501204150533141
:10C2400031303132303030303830302530326400E7
:10C2500010B5044641F65A212748FCF7D1FE4CB1EF
:10C2600026A12548FCF7E2F81021BDE8104022483D
:10C2700009F0DABD26A12048FCF7D8F828481E4C62
:10C28000007E312835D03120E0731B483022103039
:10C290004FF49671FCF7ACFE452084F83C014E202B
:10C2A00084F83D01442084F83E0140F23F114FF4F0
:10C2B0007A7091FBF0F030306071642091FBF0F205
:10C2C0000A2092FBF0F300FB13223032A27191FBA3
:10C2D000F0F292FBF0F300FB13223032E27191FB9B
:10C2E000F0F200FB12113031217284F83F0141015C
:10C2F000BBE73220C8E700008F5501204150533181
:10C3000031303031353030323330310A0000000006
:10C3100041505331313030313530303233303000EC
:10C3200070BC00202DE9FC4105460C46002741F673
:10C330005A213F48FCF764FE4DB13EA13C48FCF752
:10C3400075F81021BDE8FC41394809F06DBD3EA1EA
:10C350003748FCF76BF80F26354D3AE060782178C6
:10C360007F1C00EB0110A0F54C708DF80000E07808
:10C37000A17800EB0110A0F54C708DF801006079F8
:10C38000217900EB0110A0F54C708DF80200E079E6
:10C39000A17900EB0110A0F54C708DF80300607AD4
:10C3A000217A00EB0110A0F54C708DF80400E07AC2
:10C3B000A17A963400EB0110A0F54C708DF80500C1
:10C3C000A81900990160BDF80410B61D8180782F6E
:10C3D00004DA2046FCF71FFD0C28BFD04520A855E5
:10C3E000761C4E20A855761C4420A855711C4FF48D
:10C3F0007A7091FBF0F030306871642091FBF0F2BC
:10C400000A2092FBF0F300FB13223032AA7191FB59
:10C41000F0F292FBF0F300FB13223032EA7191FB51
:10C42000F0F200FB121230322A726854491C89E77C
:10C430008F5501204150533131303031353030315A
:10C440003130310A00000000415053313130303179
:10C450003530303131303000F8B5054600200E4619
:10C460000090144641F65A212948FCF7C9FD012DD8
:10C4700043D0324627A12648FBF7D8FF244821683D
:10C48000234A40F8171FA18881801D326B46214640
:10C49000304627F0FBF9009800F11D0178B31C48E5
:10C4A00045224254491C4E224254491C44224254C3
:10C4B0004FF47A72491C91FBF2F2303242716422DD
:10C4C00091FBF2F30A2293FBF2F402FB14333033B4
:10C4D000837191FBF2F393FBF2F402FB14333033DC
:10C4E000C37191FBF2F302FB131330330372425416
:10C4F00011F1010109F098FCF8BD0BA101E0FFE783
:10C500000EA10348FBF792FF10210148F2E700005B
:10C510008F55012041505331313030313530303179
:10C520003730302573000000415053313130303105
:10C53000353030313730310A00000000415053317E
:10C5400031303031353030313730320A00000000C0
:10C550002DE9FC4104460D46002741F65A21454885
:10C56000FCF74EFD4CB144A14248FBF75FFF1021A0
:10C57000BDE8FC413F4809F057BC44A13D48FBF7EA
:10C5800055FF46483B4E10240078F07342E068782F
:10C5900029787F1C00EB0110A0F54C708DF800008D
:10C5A000E878A97800EB0110A0F54C708DF8010037
:10C5B0006879297900EB0110A0F54C708DF8020024
:10C5C000E879A97900EB0110A0F54C708DF8030013
:10C5D000687A297A00EB0110A0F54C708DF8040000
:10C5E000E87AA97A00EB0110A0F54C708DF80500EF
:10C5F000301900990160BDF80410818035F80D0FE5
:10C60000A41D000A3055641C15F8890B3055641CB4
:10C61000782F04DA2846FCF7FEFB0C28B7D045201B
:10C620003055611C4E207054A11C442070544FF4AE
:10C630007A70E11C91FBF0F030307071642091FB56
:10C64000F0F20A2092FBF0F300FB13223032B271B9
:10C6500091FBF0F292FBF0F300FB13223032F27107
:10C6600091FBF0F200FB1212303232727054491C0E
:10C670007EE700008F550120415053313130303179
:10C68000353030313830310A00000000415053312C
:10C69000313030313530303138303000D80400207E
:10C6A0002DE9F05F05460027FA4C41F65A21FA4879
:10C6B000FCF7A6FC2DB12A46F8A1F748FBF7B6FE19
:10C6C000E8E30E22FAA1FE48FCF74AFB00287CD0E2
:10C6D000FCA1F148FBF7AAFEF948EF4E53384FF69C
:10C6E000FF7BD0F86D10DFF8ECA3CA1701EB1262E4
:10C6F000130AF373317490F8541010F8532F18255F
:10C7000001EB0211A1F54C717174C1788278DFF8E8
:10C71000C89301EB0211A1F54C71B1744179027912
:10C7200001EB0211A1F54C71F174C179827901EB31
:10C730000211A1F54C713175417A027A01EB0211B7
:10C74000A1F54C717175C17A827A01EB0211A1F5E4
:10C750004C71B175417B007B01EB0010A0F54C7072
:10C76000F07562E3701920222146FCF7CAFB94F8A9
:10C7700036002035C0F3800070556D1C7019D4F858
:10C7800021100160D4F825104160B4F8291001810E
:10C7900005F10A003044D4F82B100160D4F82F10B2
:10C7A0004160B4F833100181D4F83700D0465146C7
:10C7B0003F3414353AF04CF839F0CAFF000A70558E
:10C7C00054F8080C41466D1C00E05FE33AF040F875
:10C7D00039F0BEFF705554F8040C41466D1C3AF018
:10C7E00037F839F0B5FF000A705554F8040C41468B
:10C7F0006D1C3AF02DF839F0ABFF705520684146BA
:10C800006D1C3AF025F839F0A3FF000A7055206836
:10C8100041466D1C3AF01CF839F09AFF705560687B
:10C8200041466D1C3AF014F839F092FF000A705539
:10C83000606841466D1C3AF00BF839F089FF70557D
:10C84000A06841466D1C3AF003F839F081FF000AF8
:10C850007055A06841466D1C39F0FAFF39F078FF39
:10C860007055E06841466D1C39F0F2FF39F070FFF9
:10C87000000A7055E06841466D1C39F0E9FF39F057
:10C8800067FF7055206941466D1C39F0E1FF39F0B2
:10C890005FFF000A7055206941466D1C39F0D8FFD2
:10C8A00039F056FF7055606941466D1C39F0D0FF74
:10C8B00039F04EFF000A7055606941466D1C39F031
:10C8C000C7FF39F045FF7055A06941466D1C39F02E
:10C8D000BFFF39F03DFF000A7055A06941466D1C4D
:10C8E00039F0B6FF39F034FF7055E06941466D1CF0
:10C8F00039F0AEFF39F02CFF000A7055E069C246EE
:10C9000041466D1C39F0A4FF39F022FF7055206AB2
:10C9100051466D1C39F09CFF39F01AFF000A705522
:10C92000206A51466D1C39F093FF39F011FF7055A4
:10C93000606A51466D1C39F08BFF39F009FF000A1F
:10C940007055606A51466D1C39F082FF39F000FF66
:10C950007055A06A49466D1C39F07AFF39F0F8FE2F
:10C96000000E7055A06A49466D1C39F071FF39F010
:10C97000EFFED846B0FBF8F07055A06A49466D1C32
:10C9800039F066FF39F0E4FE000A7055A06A4946A6
:10C990006D1C39F05DFF39F0DBFE7055E06A4946E9
:10C9A0006D1C39F055FF39F0D3FE000E7055E06A6A
:10C9B00049466D1C39F04CFF39F0CAFEB0FBF8F067
:10C9C0007055E06A49466D1C39F042FF39F0C0FEEF
:10C9D000000A7055E06A49466D1C39F039FF39F09C
:10C9E000B7FE7055206B49466D1C39F031FF39F0A8
:10C9F000AFFE000E7055206B49466D1C39F028FFC4
:10CA000039F0A6FEB0FBF8F07055206B49466D1C5E
:10CA100039F01EFF39F09CFE000A7055206B494624
:10CA20006D1C39F015FF39F093FE7055606B494667
:10CA30006D1C39F00DFF39F08BFE000E7055606BE8
:10CA400049466D1C39F004FF39F082FEB0FBF8F066
:10CA50007055606B49466D1C39F0FAFE39F078FE6E
:10CA6000000A7055606B49466D1C39F0F1FE39F0D3
:10CA70006FFE7055A06B49466D1C39F0E9FE39F028
:10CA800067FE000E7055A06B49466D1C39F0E0FE44
:10CA900024E00000EC7101208F55012041505331FA
:10CAA000313030313530303334253032640A0000D3
:10CAB00030303030303030303030303030300000D6
:10CAC000C3BC00204150533131303030303030332E
:10CAD00034303000000020410000C84239F038FEF8
:10CAE000B0FBF8F07055A06B49466D1C39F0B0FEF4
:10CAF00039F02EFE000A7055A06B49466D1C39F0C6
:10CB0000A7FE39F025FE7055E06B49466D1C39F0E3
:10CB10009FFE39F01DFE000E7055E06B49466D1CFE
:10CB200039F096FE39F014FEB0FBF8F07055E06B6A
:10CB300049466D1C39F08CFE39F00AFE000A70552A
:10CB4000E06B49466D1C39F083FE39F001FE7055EB
:10CB5000206CD04651466D1C39F07AFE39F0F8FD54
:10CB6000000A7055206C41466D1C39F071FE39F099
:10CB7000EFFD7055606C41466D1C39F069FE39F06F
:10CB8000E7FD000A7055606C41466D1C39F060FE8F
:10CB900039F0DEFD7055A06C41466D1C39F058FE31
:10CBA00039F0D6FD000A7055A06C41466D1C39F075
:10CBB0004FFE39F0CDFD7055E06C41466D1C39F0EB
:10CBC00047FE39F0C5FD000A7055E06C41466D1C0A
:10CBD00039F03EFE39F0BCFD7055206D41466D1CAC
:10CBE00039F036FE39F0B4FD000A7055206D41462B
:10CBF0006D1C39F02DFE39F0ABFD7055606D41466E
:10CC00006D1C39F025FE39F0A3FD000A7055606DEA
:10CC100041466D1C39F01CFE39F09AFD7055A06D2F
:10CC200041466D1C39F014FE39F092FD000A705532
:10CC3000A06D41466D1C39F00BFE39F089FD705531
:10CC4000E06D41466D1C39F003FE39F081FD000AAC
:10CC50007055E06D41466D1C39F0FAFD39F078FDF4
:10CC60007055206E41466D1C39F0F2FD39F070FDB3
:10CC7000000A7055206E41466D1C39F0E9FD39F00F
:10CC800067FD7055606E49466D1C39F00FFC4146DA
:10CC900039F0DEFD39F05CFD000A7055606E4946E2
:10CCA0006D1C39F003FC414639F0D2FD39F050FDDE
:10CCB0007055E06E6D1CC11700EB11200016705509
:10CCC000E06E6D1CC11700EB114000147055E06E52
:10CCD0006D1CC11700EB1160001270556D1CE06EE9
:10CCE0007055A06E6D1CC11700EB11200016705519
:10CCF000A06E6D1CC11700EB114000147055A06EA2
:10CD00006D1CC11700EB1160001270556D1CA06EF8
:10CD10007055206F62496D1C39F09AFD39F018FD8D
:10CD2000000A7055206F5E496D1C39F091FD39F095
:10CD30000FFD7055E06F41466D1C39F089FD6FF0B5
:10CD4000170139F05AFF39F003FD7055E06F414685
:10CD50006D1C39F07DFD6FF00F0139F04EFF39F099
:10CD6000F7FC7055E06F41466D1C39F071FD6FF0B6
:10CD7000070139F042FF39F0EBFC7055E06F414696
:10CD80006D1C39F065FD39F0E3FC7055606F41466C
:10CD90006D1C39F05DFD39F0DBFC000E7055606FE5
:10CDA00041466D1C39F054FD6FF00F0139F025FF3D
:10CDB00039F0CEFC7055606F41466D1C39F048FD6E
:10CDC0006FF0070139F019FF39F0C2FC7055606F40
:10CDD00041466D1C39F03CFD39F0BAFC7055A06F2E
:10CDE0006FF017016D1C39F008FF39F0B1FC705578
:10CDF000A06F6FF00F016D1C39F0FFFE39F0A8FC39
:10CE00007055A06F6FF007016D1C39F0F6FE39F018
:10CE10009FFC7055A06F3F3C6D1C39F099FC70551C
:10CE2000C33433357F1C142F05DA2046FBF7F3FF9C
:10CE300000283FF797AC45207055691C4E20705470
:10CE4000A91C442070544FF47A70E91C91FBF0F057
:10CE500030307071642091FBF0F20A2092FBF0F305
:10CE600000FB13223032B27191FBF0F292FBF0F32F
:10CE700000FB13223032F27191FBF0F200FB121230
:10CE80003032327270540748491C05E006A105484B
:10CE9000FBF7CCFA03481021BDE8F05F08F0C4BFEF
:10CEA00000007A448F5501204150533131303031E8
:10CEB00035303033343032640A00000070B50D462E
:10CEC000044641F65A210A48FCF79AF84CB109A1E8
:10CED0000748FBF7ABFA1021BDE87040044808F0A2
:10CEE000A3BF2A4608A10248FBF7A0FA2121F3E7D5
:10CEF0008F55012041505331313030313530303190
:10CF00003230310A000000004150533131303033AB
:10CF1000323030313230302573454E440A00000043
:10CF20002DE9F04F89B004460020DDF86CB0DDF843
:10CF300080A0DDF85890249D8846049005900690C6
:10CF4000079017461E4641F65A214348FCF758F809
:10CF50004148012C224641A17AD0FBF767FA3E4CAA
:10CF60003020B8F1000FE07300D0312020746774D6
:10CF7000A6741298E074139820751498607515982B
:10CF8000A07584F8179017982076189860761998ED
:10CF9000A0761A98E07684F81CB01C9860771D98EB
:10CFA000A0771E98E0771F9884F8200084F821A0CD
:10CFB000219884F82200229884F82300239884F88A
:10CFC0002400A8786B792A79E9788DE80F006B78CE
:10CFD0002A7827A104A8641DFBF728FA1E480499A3
:10CFE00040F8251F0599416006998160452084F825
:10CFF0002C004E2084F82D00442084F82E0034218B
:10D000004FF47A7091FBF0F030302070642091FB87
:10D01000F0F20A2092FBF0F300FB13223032627030
:10D0200091FBF0F292FBF0F300FB13223032A2707E
:10D0300091FBF0F200FB12113031E17084F82F0007
:10D040003521054808F0F0FE09B0BDE8F08FFFE794
:10D05000FBF7ECF91021F4E78F55012041505331D3
:10D06000313030313530303134253032640A00000F
:10D0700025303278253032782530327825303278B4
:10D080002530327825303278000000002DE9FC5F31
:10D090004FF000080400CDF80080464641F65A21C2
:10D0A000CDF8048018D0012C16D0022C7ED15A481D
:10D0B000FBF7A6FF0E2259A15C48FBF751FE0028A2
:10D0C00072D05BA15448FBF7B1F9584F0F24DFF839
:10D0D00070A1514D533F5FE04F48FBF791FF22464F
:10D0E00058A14D48FBF7A2F9102164E0C6EB0610E9
:10D0F00000EB8002CDF800800AEB4200CDF80480FE
:10D1000043781AF81210814603EB0111A1F54C7116
:10D110008DF80010C17882784FF0070B01EB0211F7
:10D12000A1F54C718DF801104179027901EB0211E2
:10D13000A1F54C718DF80210C179827901EB0211D1
:10D14000A1F54C718DF80310417A027A01EB0211BE
:10D15000A1F54C718DF80410C17A827A09F156005C
:10D1600001EB0211A1F54C718DF805100E222BA1D7
:10D17000FBF7F6FD20B199F81A00C0F3400000E07B
:10D1800002208DF8060028195A466946FBF7B9FEB9
:10D19000E41D761C782E03DAD7F81D00B042A5DC1A
:10D1A000D7F81D0000280BDC2BA100E006E01A4890
:10D1B000FBF73CF91321184808F036FEBDE8FC9F48
:10D1C00045202855611C4E206854A11C44206854F9
:10D1D0004FF47A70E11C91FBF0F0303068716420FC
:10D1E00091FBF0F20A2092FBF0F300FB13223032A5
:10D1F000AA7191FBF0F292FBF0F300FB13223032A4
:10D20000EA7191FBF0F200FB121230322A7268547C
:10D210000148491CD0E700008F55012030303030E4
:10D22000303030303030303030300000C3BC00207F
:10D2300041505331313030313530303136303000BB
:10D240001805002041505331313030313530303104
:10D2500036253032640A00004150533131303031CC
:10D2600038303031363030454E440A0038B5044647
:10D2700000200D46009041F65A212248FBF7C0FEDF
:10D28000012C38D020A11F48FBF7D0F81D496A4671
:10D290000F31284626F076FD00991A480F314522B5
:10D2A0004254491C4E224254491C442242544FF4D9
:10D2B0007A72491C91FBF2F230324271642291FB86
:10D2C000F2F30A2293FBF2F402FB1433303383713E
:10D2D00091FBF2F393FBF2F402FB14333033C3718E
:10D2E00091FBF2F302FB1313303303724254491CD7
:10D2F00008F09AFD38BD08A10248FBF797F8102105
:10D300000048F5E78F55012041505331313030311D
:10D3100035303030333030004150533131303031DE
:10D32000353030303330310A00000000F0B50D46A2
:10D3300004468FB00027414E41F65A214048FBF782
:10D340005FFE002D71D1012C6FD0022C6AD13DA15E
:10D350003B48FBF76BF81124394D32E03821684621
:10D36000FBF770FE202231466846FBF7CAFD96F8AF
:10D3700020008DF82000D6F82100CDF82100D6F845
:10D380002500CDF82500B6F82900ADF82900D6F81B
:10D390002B00CDF82B00D6F82F00CDF82F00B6F8D3
:10D3A0003300ADF8330096F835008DF835002819B4
:10D3B00036226946FBF7A5FD3634C3367F1C142F91
:10D3C00004DA3046FBF727FD0028C7DC4520285546
:10D3D000641C4E202855641C44202855611C4FF4C1
:10D3E0007A7091FBF0F030306871642091FBF0F2BC
:10D3F0000A2092FBF0F300FB13223032AA7191FB5A
:10D40000F0F292FBF0F300FB13223032EA7191FB51
:10D41000F0F200FB121230322A7268540848491C9C
:10D4200008F002FD0FB0F0BDFFE72B4622460AA12F
:10D430000348FAF7FBFF12210148F1E7EC710120E4
:10D440008F55012041505331313030313530303338
:10D450003330323030000000415053313130303100
:10D46000373030333325303264253032640A0000DF
:10D470002DE9F0410C46054641F65A216A48FBF772
:10D48000BFFD55B1227869A16748FAF7CFFF122195
:10D49000BDE8F041644808F0C7BC204607F042FCF4
:10D4A000601CFBF7B8FC054620785F4E4FF0000883
:10D4B00006F11407012840D0022841D003286DD07E
:10D4C000042873D0052873D0062873D0072873D09A
:10D4D00008286AD108225BA15348FAF7A7FF204623
:10D4E00008F004FB112145207054491C4E20705453
:10D4F000491C442070544FF47A70491C91FBF0F0A1
:10D5000030307071642091FBF0F20A2092FBF0F34E
:10D5100000FB13223032B27191FBF0F292FBF0F378
:10D5200000FB13223032F27191FBF0F200FB121279
:10D53000303232727054491CAAE72B46012201E0B6
:10D540002B46022244A13848FAF770FF38462A4693
:10D55000611CFBF7D6FC05F1140194F865007054CA
:10D5600005F1150114F8660F7054491C6078705469
:10D57000491CA0787054A088491C000A7054491CAA
:10D5800020797054E088491C000A7054491CA07925
:10D590007054491C404606F801803EE02B460322A9
:10D5A000D0E703E004E005E006E03AE0042292E779
:10D5B000052290E706228EE72B46072226A11A486D
:10D5C000FAF734FF38462A46611CFBF79AFC05F14E
:10D5D000140194F86500705405F1150114F8660FF4
:10D5E0007054491C60787054491CA0787054A0880D
:10D5F000491C000A7054491C20797054E088491C69
:10D60000000A7054491CA0797054491C06F8018026
:10D61000491C06F80180207A3030491C7054491C9E
:10D6200061E7BDE8F08100008F5501204150533182
:10D630003130303137303032342530326430310AD5
:10D64000000000004150533131303031353030323C
:10D650003425303264303000415053313130303174
:10D660003530303234253032643030253033640088
:10D6700070B50E460446154641F65A210B48FBF795
:10D68000BFFC012C0BD02B46324609A10748FAF704
:10D69000CDFE1821BDE87040044808F0C5BB0BA1C1
:10D6A0000248FAF7C3FE1021F4E700008F5501206D
:10D6B0004150533131303032333030313530302514
:10D6C00030327825303364454E440A00415053319E
:10D6D00031303031353030313530310A0000000022
:10D6E00010B5044641F65A210648FBF789FC22464C
:10D6F00005A10448FAF79AFEBDE810401021014840
:10D7000008F092BB8F5501204150533131303031F8
:10D710003530303231253032640A000010B504460D
:10D7200041F65A210648FBF76BFC224605A1044846
:10D73000FAF77CFEBDE810401021014808F074BBE8
:10D740008F55012041505331313030313530303038
:10D7500035253032640A000010B5044641F65A21DE
:10D760000648FBF74DFC224605A10448FAF75EFE89
:10D77000BDE810401021014808F056BB8F5501202C
:10D780004150533131303031353030303625303240
:10D79000640A000010B5044641F65A210648FBF71A
:10D7A0002FFC224605A10448FAF740FEBDE81040D0
:10D7B0001021014808F038BB8F55012041505331EA
:10D7C000313030313530303130253032640A0000AC
:10D7D00010B5044641F65A210648FBF711FC2246D3
:10D7E00005A10448FAF722FEBDE8104010210148C7
:10D7F00008F01ABB8F550120415053313130303180
:10D800003530303037253032640A00002DE9F043DE
:10D8100093B0074600200C460F9010901190129084
:10D8200015463C216846FBF70DFC002641F65A21BF
:10D83000CF48FBF7E5FB0E22CE490FA8FBF761FBB3
:10D84000012F5FD00E22CCA10FA8FBF789FA002888
:10D850007DD0CDA1C648FAF7E9FDDFF81483302169
:10D86000404688F80F10322188F81010E91705EBB0
:10D8700011610A0A88F81120294688F812109DF8CB
:10D880003D109DF83C201A2701EB0211A1F54C71C7
:10D8900088F813109DF83F109DF83E2001EB02110F
:10D8A000A1F54C7101759DF841109DF8402001EBE8
:10D8B0000211A1F54C7141759DF843109DF842206D
:10D8C00001EB0211A1F54C7181759DF845109DF891
:10D8D000442001EB0211A1F54C71C1759DF8471070
:10D8E0009DF8462001EB0211A1F54C7101769DF8DF
:10D8F00049109DF8482001EB0211A1F54C7188F800
:10D900001910F3E0A4A127E13C216846FBF79AFB3C
:10D9100014F8010F4FF0390914F8011C00EB011045
:10D92000A0F54C708DF80000A078617800EB011034
:10D93000A0F54C708DF801002079E17800EB011022
:10D94000A0F54C708DF80200A079617900E00DE13E
:10D9500000EB0110A0F54C708DF80300207AE179FE
:10D9600000EB0110A0F54C708DF80400A07A617AEC
:10D9700000EB0110A0F54C708DF80500607EC0F33F
:10D9800001118DF806109DF8071000F001021143F7
:10D99000C0F3400241EA4201C0F3800241EA820141
:10D9A000C0F3C00041EAC0008DF80700B4F81500CC
:10D9B000010A8DF808108DF80900B4F81700010A63
:10D9C0008DF80A108DF80B00A07F8DF80C00208CCC
:10D9D000010A8DF80D108DF80E00608C8DF8100086
:10D9E000010A8DF80F10A08C010A8DF811108DF826
:10D9F0001200E08C8DF81400010A8DF81310206FCE
:10DA0000616F38F053F9C11700EB11610A0A8DF804
:10DA100015208DF81600A06FE16F143438F046F928
:10DA2000C11700EB11610A0A8DF817208DF8180054
:10DA3000A08A010A8DF819108DF81A00E08A8DF875
:10DA40001C00010A8DF81B10A08B010A8DF81D1017
:10DA50008DF81E00A07F8DF81F00606F2421B0FBA1
:10DA6000F1F0020E8DF82020020C8DF82120020A20
:10DA70008DF822208DF82300A06FB0FBF1F0020E8C
:10DA80008DF82420020C8DF82520020A8DF826201E
:10DA90008DF82700E06F4A46B0FBF1F0010E8DF8DB
:10DAA0002810010C8DF82910010A8DF82A108DF824
:10DAB0002B0094F82B008DF82C0034F8010C010A8F
:10DAC0008DF82D108DF82E0014F8060C8DF82F000F
:10DAD000E07A8DF8300008EB07006946153CFBF74B
