:020000040800F2
:10800000D86A0120B182000877170108958300081B
:108010007517010875DC00084D41010800000000DB
:10802000000000000000000000000000852D010895
:10803000F9ED0008000000001F830008AD300108C2
:10804000CB820008CB820008CB820008CB820008DC
:10805000CB820008CB820008CB820008CB820008CC
:10806000CB820008CB820008CB820008CB820008BC
:10807000CB820008CB820008CB8200081DE40008F8
:10808000CB820008CB820008CB820008CB8200089C
:10809000CB820008CB820008CB8200085101010886
:1080A000CB820008CB820008CB820008CB8200087C
:1080B0001D310108B9310108CB820008CB820008CC
:1080C000CB820008CB820008CB820008CB8200085C
:1080D000CB820008ED380108CB820008CB82000873
:1080E000CB820008CB820008CB8200080000000091
:1080F0000000000000000000000000000000000080
:108100000000000000000000CB820008CB820008C5
:108110006D38010891380108CB820008CB82000835
:10812000CB820008CB82000835E40008CB8200082F
:10813000CB82000845F80008CB820008CB820008FB
:10814000CB820008CB820008CB820008CB820008DB
:1081500000F002F800F082F80AA090E8000C8244D7
:108160008344AAF10107DA4501D100F077F8AFF2B4
:10817000090EBAE80F0013F0010F18BFFB1A43F005
:108180000103184794620300B46203000A444FF0ED
:10819000000C10F8013B13F0070408BF10F8014B66
:1081A0001D1108BF10F8015B641E05D010F8016BAB
:1081B000641E01F8016BF9D113F0080F1EBF10F80F
:1081C000014BAD1C0C1B09D16D1E58BF01F801CB32
:1081D000FAD505E014F8016B01F8016B6D1EF9D5B5
:1081E0009142D6D3704700000023002400250026CA
:1081F000103A28BF78C1FBD8520728BF30C148BF0A
:108200000B607047662933F03683642900F07E8165
:10821000752900F07B81782900F0B481632901F091
:108220000883732901F00D83002070471FB500F00B
:1082300042FD01F09BFE04000020002132F034FCDE
:10824000401C60600020002132F018FCE06002F069
:1082500097F91FBD10B502F0FCF910BD02F048FA05
:108260001146FFF7E3FF1EF035F902F00EFD03B4EF
:10827000FFF7F0FF03BC0DF05AF900000B49D1F8ED
:1082800000C04A685CF8043B1068184442F8040BCC
:108290008C4528BFA1F1DC0C8A4228BFA1F1DC0289
:1082A000C1F800C04A6020F00040704770630120B0
:1082B0000948804709480047FEE7FEE7FEE7FEE77A
:1082C000FEE7FEE7FEE7FEE7FEE7FEE704480549B6
:1082D000054A064B70470000C13001085181000873
:1082E000D8640120D86A0120D8660120D866012010
:1082F000EFF3108072B6704780F310887047314AF0
:108300001368012B04D04FF0010313602E4A106054
:108310002E4A11602E484FF0805101607047EFF3F4
:10832000108272B62748016891B14FF000010160D8
:108330002548016829B1EFF3098121E9F00F0068B0
:108340000160224909680968B1E8F00F81F30988E2
:1083500082F310884EF0040E70471C4908601A49D9
:108360004FF00000086017494FF0010008601948FD
:108370004FF47F01D0F8002041EA02010160144867
:108380004FF08051016014480068006880F308884D
:1083900062B670471EF0040F14BFEFF30880EFF3CE
:1083A000098020E9F00F40F804ED14BF80F308883D
:1083B00080F3098800B524F0A5FC5DF804EB4EF0CD
:1083C000040E704750010020480100204C0100209D
:1083D00004ED00E020ED00E008ED00E0704770479C
:1083E000704700000FB4044910B503AA029801F0C9
:1083F0002DFA10BC5DF814FBCC6301200FB40146CC
:1084000010B504AA039801F021FA10BC5DF814FB22
:108410000FB41CB5074B06AA7B446946009005982B
:1084200001F0DDF90020694601F0ECF91CBC5DF8B3
:1084300014FB0000E91300000FB41CB50C0007AAE0
:10844000009001D02044401E074B7B4469460190B8
:10845000069801F0C4F9002C03D06946002001F011
:10846000D1F91CBC5DF814FBC113000070B50446C3
:1084700085690068C10601D5302600E02026C007C6
:1084800007D070BDD4E9012130469047206A401CD6
:1084900020626D1EF6D570BD70B504468569007802
:1084A000C00707D170BDD4E9012120209047206A80
:1084B000401C20626D1EF6D570BD70B50C46054699
:1084C000012A05D02878800600D5EA69002302E059
:1084D000012305E05B1C934202D2E05C0028F9D145
:1084E000A869E618C01AA861286A184428622846B4
:1084F000FFF7BCFF04E0D5E9012114F8010B904718
:10850000B442F8D32846FFF7C7FF70BD2DE9F0410C
:108510000646002410687529314616A510D0AFF321
:108520000080002802DA404213A507E031688A077C
:1085300001D512A502E0490704D511A5012401E0E7
:10854000AFF3008000210A2206F1240709E0B0FB06
:10855000F2FCB0FBF2F302FB1C00303078541846FA
:10856000491C0028F3D123462A463046BDE8F04195
:1085700000F0C9BE000000002D0000002B0000002C
:108580002000000070B504460D4621461068AFF388
:1085900000802188090502D50F4A7A4402E00E4A7C
:1085A0007A440E32002104F1240305E000F00F06A6
:1085B0000009965D5E54491C0028F7D120780023FD
:1085C000000704D5702D02D009B1022311322046D4
:1085D000BDE8704000F097BE814803002DE9F05FD0
:1085E000894604464FF0000ADFF874B1FB44C0F836
:1085F00020A02046E1688847002874D0252806D0AE
:10860000D4E901219047206A401C2062F1E700264E
:108610005F462046E16888472028054607DB312D64
:1086200005D2781910F8200C08B10643F1E7B0071D
:1086300001D526F00406C4F81CA00027C4F818A031
:108640002A2D09D028460CF04BF838B304EB8708E4
:10865000303DC8F8185019E059F8041B204604EBC7
:1086600087029161E1688847012F054618D1E069CA
:10867000002820DA26F020061DE0D8F8180000EBCC
:10868000800005EB40003038C8F818002046E1684B
:10869000884705460CF024F80028EED1012F0AD0B7
:1086A0002E2D08D12046E16888477F1C0546022F01
:1086B00046F02006C4DBA069002803DA404246F0F9
:1086C0000106A061F00701D026F010066C2D0BD03A
:1086D000682D09D04C2D39D06A2D35D0742D35D068
:1086E0007A2D33D016E038E0E1682F4620468847DF
:1086F000B842054609D16C2F26D04FF48060E1685E
:10870000064320468847054604E06C2F1AD04FF4F4
:10871000807006430DB3A5F14100192802D8203519
:1087200046F400664A462946204626604E46FFF734
:1087300069FD80B101280BD0F61D26F0070000F17D
:10874000080956E74020E4E78020D8E70020D6E774
:1087500006F104094DE7284652E7206ABDE8F09F7C
:10876000574803000FB400B58DB010A909900091CF
:108770000B904FF0FF300A9000200C900648784490
:108780000690064878446A4607900F9909A801F0B8
:1087900083F80DB05DF814FB371100004F11000095
:1087A0002DE9FF5F1D464FF0FF3B91464FF000085B
:1087B0005F46D5E90146A96901987F1C8847296A67
:1087C000824688470028F6D1BAF1FF3F0CD0002E30
:1087D00024F4C06419DD600614D5BAF12B0F09D05A
:1087E000BAF12D0F0ED103E0584604B0BDE8F09F5A
:1087F00044F48064A96901987F1C8847761E8246EC
:10880000002E02DDBAF1300F03D0B9F1000F26D0EF
:1088100032E0A969761E01987F1C44F400748847F1
:10882000002E824605DDBAF1780F06D0BAF1580F56
:1088300003D0B9F1000F10D01EE0B9F1000F02D043
:10884000B9F1100F18D1A969761E01987F1C24F484
:10885000007488478246102002E0082000E00A20C9
:10886000814609E0A96908FB0908761E01987F1C6A
:1088700044F4007488478246002E05DD4946504680
:1088800000F0F6FF0028EDDAE96901988847A005B5
:1088900002D46FF00100A8E7E00725D1600613D5E8
:1088A000600502D5C8F1000000E0404629680A1DB5
:1088B0002A600968220501D5087015E0220701D554
:1088C000088011E008600FE02868011D2960006839
:1088D000210502D580F8008006E0210702D5A0F826
:1088E000008001E0C0F8008038467EE72DE9FF5F98
:1088F0004FF000089946144646469169D2E901A70F
:10890000DDF838B001988847054659EA0B0005D0D4
:1089100009E0A1690198761C88470546216A284626
:1089200088470028F5D1681C03D05FEACA7005D0DB
:1089300015E04FF0FF3004B0BDE8F09F2068011D46
:108940002160D0F800800AE05FEACA7001D108F81F
:10895000015BA169761C01987F1E88470546002FA0
:108960001ADD681C18D0B9F1000F0DD0E81705EB1F
:10897000D060421120F01F0059F822102A1A01205D
:1089800090400142E0D107E0BBF1000FDCD1284666
:10899000216A88470028D7D0E16901988847BBF150
:1089A000000F07D1002E05DD5FEACA7002D1002159
:1089B00088F80010A068B84203DDBBF1000F03D0B7
:1089C00017B16FF00100B6E73046B4E770B5064660
:1089D00000F08AFC0468054630460A22002100F0B7
:1089E000DBFF2C6070BD007B00F0400070472DE97C
:1089F000F04117460D4604460646012913DD384668
:108A000016F04EFF411C0CD0C0B20A2804F8010B2E
:108A100002D06D1E012DF2DC002020703046BDE832
:108A2000F081B44201D10020F9E7384600F0ECFFB4
:108A30000028F1D00026EFE770B50D46044604E0AB
:108A4000294618F00EFA401C04D014F8010B002837
:108A5000F6D170BD4FF0FF3070BD00002DE9F04140
:108A6000044616460D464769007B80072ED03846DF
:108A70000CF061FD50BB3EB3012E02D0022E25D179
:108A800004E0204601F0CCF905441DE038460CF026
:108A90004FFDE168002841F01001E16005DA204651
:108AA00001F0E0F90120BDE8F081C9030BD562684F
:108AB000E16A914200D81146A26911442269891ADB
:108AC000814200DD08460544002D01DA0220EAE774
:108AD000E16A6068E268814206D29103E06203D5F0
:108AE00022F4003141F01002A6690027AE4213DCE7
:108AF000E16A814201D90B4600E0034603EB060C14
:108B00002369ACEB030CAC4506DD814201D98C46F0
:108B100000E084469C4505D1A760276042F0200014
:108B2000A5620DE0AD1BE669AE1B8142A66000D9CF
:108B30000846C01A281A20605819606022F02000E8
:108B400003490840E060002084F84870ABE700006B
:108B5000BFCFD7FF2DE9F0410C4607461646104619
:108B600000F06EF82078611C61280AD0722802D0CB
:108B700077283CD102E00125002405E002250424E9
:108B800002E0082448F2020511F8010B2B2806D058
:108B9000622809D011F8010C74280AD00BE045F0C6
:108BA000030544F00204EFE745F0040544F0010436
:108BB000EAE744F01004384621460CF0BFFC411CA3
:108BC00015D00021316171604FF40071F560F161E1
:108BD0007061200704D5304602220021FFF73EFFD6
:108BE000306D40F0010030653046BDE8F081002076
:108BF000FBE72DE9F0410D460646104C206DC107FC
:108C000004D0410804D020F00104F7E722460EE02A
:108C100054201DF076FC07000ED0206D47F00101B6
:108C2000084354212065384600F0F4F93A462946B5
:108C30003046BDE8F0418DE70020D6E7786301209B
:108C40002DE9F04704464FF000094FF0FF37C568A3
:108C5000D4E90486A80707D0204601F037F930464A
:108C60000CF05EFC002802DA3846BDE8F0872805E3
:108C700002D5404618F002F94C21204600F0CAF90E
:108C8000206D20F0010020654846EEE70B4910B545
:108C9000A1F17C020A4CC2E93712372106E000EB51
:108CA000104342F82130074B00FB03400B1EA1F19B
:108CB0000101F4DC10BD0120E8E700001063012091
:108CC000E119D666CD0D010030B503461D781DB102
:108CD0000A4603E0AC4201D1181A30BD12F8014B2C
:108CE000002CF7D15B1CF1E710B5431E13F8014FC0
:108CF000002CFBD105E011F8014B002C03F8014BCF
:108D000003D0521EF7D20021197010BD30B50546B0
:108D10000B462A4613F8014B12F8010B08B1A0428A
:108D2000F8D01CB1002802D06D1CF1E7284630BDF8
:108D300040EA010310B59B070FD1042A0DD310C8D8
:108D400008C9121F9C42F8D020BA19BA884201D92A
:108D5000012010BD4FF0FF3010BD1AB1D30703D072
:108D6000521C07E0002010BD10F8013B11F8014B28
:108D70001B1B07D110F8013B11F8014B1B1B01D144
:108D8000921EF1D1184610BD40EA0103024630B5EB
:108D90009B0710D14FF0013400E008C208C91D1B29
:108DA0009D4315EAC41FF8D013F0FF0102F8011B20
:108DB0000DD01B0AF8E711F8013B002B02F8013B2C
:108DC00005D011F8013B002B02F8013BF3D130BD77
:108DD0000022CBB210F8011B994200D1421E00299B
:108DE000F8D11046704710B5431C02E010F8011B83
:108DF00071B18107FAD14FF0013202C88C1A8C434D
:108E000014EAC211F9D0C01A0A0603D0C01E10BD60
:108E1000C01A10BD0A0401D0801E10BD0902FCD08A
:108E2000401E10BD40EA010370B59B072ED14FF0E4
:108E30000136042A2AD308C810C99D1B9D43121F5E
:108E400015EAC61517D0D8B2E1B2401A50EA05614A
:108E500010D198B2A1B2401A50EA05410AD123F0CC
:108E60007F4024F07F41401A50EA052102D1180EBC
:108E7000A0EB146070BDA342DBD018BA21BA8842BF
:108E800001D9012070BD4FF0FF3070BD0AB900203C
:108E900070BD10F8013B11F8014B63B1A3420AD138
:108EA000521E08D010F8013B11F8014B1BB1A34230
:108EB00001D1521EEDD1181B70BD421E12F8013FA8
:108EC000002BFBD111F8013B002B02F8013BF9D13B
:108ED0007047032A40F2308010F0030C00F0158038
:108EE00011F8013BBCF1020F624498BF11F801CBAD
:108EF00000F8013B38BF11F8013BA2F1040298BF12
:108F000000F801CB38BF00F8013B11F0030300F07B
:108F10002580083AC0F0088051F8043B083A51F81F
:108F200004CBA0E80810F5E7121D5CBF51F8043B24
:108F300040F8043BAFF30080D20724BF11F8013B97
:108F400011F801CB48BF11F8012B24BF00F8013BF9
:108F500000F801CB48BF00F8012B704710B5203A4C
:108F6000C0F00B80B1E81850203AA0E81850B1E8E2
:108F70001850A0E81850BFF4F5AF5FEA027C24BF98
:108F8000B1E81850A0E8185044BF18C918C0BDE88F
:108F900010405FEA827C24BF51F8043B40F8043B58
:108FA00008BF7047D20728BF31F8023B48BF11F80D
:108FB000012B28BF20F8023B48BF00F8012B704767
:108FC00002F0FF0343EA032242EA024200F002B841
:108FD0004FF000020429C0F0128010F0030C00F0E2
:108FE0001B80CCF1040CBCF1020F18BF00F8012B60
:108FF000A8BF20F8022BA1EB0C0100F00DB85FEA2E
:10900000C17C24BF00F8012B00F8012B48BF00F8F9
:10901000012B70474FF0000200B513469446964668
:10902000203922BFA0E80C50A0E80C50B1F120017B
:10903000BFF4F7AF090728BFA0E80C5048BF0CC029
:109040005DF804EB890028BF40F8042B08BF704787
:1090500048BF20F8022B11F0804F18BF00F8012BF9
:10906000704710B5044610F0030F08BF11F0030F4E
:1090700040F015804FF0013E121FC0F20E8051F8F3
:10908000043BA3EB0E0C2CEA030C1CEACE1C08BF1D
:1090900040F8043BF0D0A1F1040102F10402521E99
:1090A00008DB11F8013B002B00F8013BF7D111461A
:1090B000FFF78EFF204610BD4FF0013C50F8042B07
:1090C00051F8043B9A4221D1A2EB0C03934313EADB
:1090D000CC1317D150F8042B51F8043B9A4215D108
:1090E000A2EB0C03934313EACC130BD150F8042BDF
:1090F00051F8043B9A4209D1A2EB0C03934313EAC3
:10910000CC13DBD04FF00000704700BFD01A01BA7B
:10911000B1FA81F101F0180122FA01F0CB40C1F15E
:109120002001DBB2C0B2C01A2CFA01F3D11A91436C
:1091300011EAC311E6D1704710B503681C1404EBA3
:1091400021449BB289B2194494FBF2F302FB13430E
:1091500094FBF2F401EB034393FBF2F102FB1131B8
:1091600093FBF2F301E05B1E11440029FBDB01607D
:1091700003EB044010BD2DE9F04704464FF0FF3AE1
:1091800086B00068029060680390A0680490E06870
:10919000019020690090656905F18040B0F1004FB1
:1091A0007DD83C22002102A8FFF7C6FF3C220146E1
:1091B00003A8FFF7C1FF1822014604A8FFF7BCFF70
:1091C000411E40F2B55201A8FFF7B6FF0C22064639
:1091D00068460021FFF7B0FF00EB860028443E4DB3
:1091E00000267D440FE09A1A491CCDE9001202299D
:1091F00002D00C2907D104E0810704D0521C01924F
:1092000001E0401C00960099019B6A5C9A42EADDED
:10921000012906D11C2B04D1810702D00221CDE9FE
:109220000016A0F146018B2940D20199009B002233
:109230000F4602E0AE5C521C31449A42FADB012B2D
:1092400002DD820700D0491E40F2B55540F26D168E
:10925000C21700EB927292106A4300F0030505FBFF
:10926000062285070A4400D1521E049D02EB4206E5
:10927000DDF80C80A94605EBC605184EC5EB0515B3
:10928000DDF808C008EB850535442E14ADB2C6EBF9
:109290000616C5EB0515B6000CEB850500E005E0EC
:1092A00006EB154666F31F45360C03D0504606B054
:1092B000BDE8F087C4E904307F1C0720521CC4E9D4
:1092C000029792FBF0F3E4E806C800FB132084E861
:1092D00003042846EBE70000723C0300A039CEFDF2
:1092E0007047704770470000004870477464012061
:1092F00010B5FFF7F9FF006810BD10B50446FFF781
:10930000F3FF046010BD2DE9F0470D4699469246E3
:10931000044600F124080168880604D5E06921F0BC
:109320001001216000E00120A84201DD471B00E0A0
:109330000027A1697A1902EB0900081AA0612078B8
:10934000C00602D42046FFF791F8002608E0D4E9D1
:1093500001211AF806009047206A401C761C206202
:109360004E45F4DB2078C0060AD52046FFF77EF88C
:1093700006E0D4E9012130209047206A401C206299
:10938000381EA7F10107F4DC07E0D4E9012118F841
:1093900005009047206A401C2062281EA5F10105A7
:1093A000F3DC2046FFF778F82078000602D502208B
:1093B000BDE8F0870120FBE770472DE9FF4F0C4621
:1093C0001E464FF0FF378BB0D2E90001DDF8608018
:1093D0000A908A46C1F30A5505B93D460021084660
:1093E0004FF00000BAF1000F00F4400005DA00EB86
:1093F00080004FF4400101EA50004FEA9059B9F162
:10940000010F00DDB9460A9850EA4A000ED044F632
:109410001050A5F2FF3545432F14B8F1000F1ED0B0
:109420007542291E1EDDC9F100021CE0B8F1010FD2
:109430004FF0000001D0302103E0F24305E0215459
:10944000401CB042FBDB30460022002121540B9926
:10945000C1F80880C1E900200FB0BDE8F08FBD1B46
:109460006D1CDEE74A4600DA694206A801F01AF8E8
:1094700006AB93E8070003AB83E8070050460A9960
:1094800001F082FE8DE80700A0F500501F38009023
:109490000398002D09DD42F21F014A46084403A942
:1094A0000390684602F00BF908E0A0F500504A4628
:1094B0001F3803A90390684602F029F98DE80700D8
:1094C0000004000C03D04FF0FF30410800E01046CC
:1094D000B8F1000F03D00022009215461EE0751E61
:1094E00005D400F047FD303262556D1EF9D5B34604
:1094F0000122084302D000227F1C04E0207830289B
:1095000001D100227F1E002A099786D01DE0112D6F
:1095100007DA00F02FFD303262556D1C50EA01026F
:10952000F5D1084302D00098C8B10EE00021681EB2
:1095300005E0235C625C63542254401E491C814256
:10954000F7DBAB46A81B401E0990002004F80B0077
:109550000B98099AC0F80880C0E9002B7CE7112617
:109560004FF0000859E72DE9F04F88460446D21D18
:1095700022F0070191B0D1E90001CDE90A010AF01A
:10958000FEFF02460B98C00F01D02D2007E0206897
:10959000810701D52B2002E0202101EAC000032A27
:1095A000099001D0072A05DB03464146204600F01A
:1095B0002FFD0BE12078800601D5E06900E0062050
:1095C000B8F1650F814606D0B8F1660F18D0B8F132
:1095D000670F70D131E00020B9F1110F009001DB6D
:1095E000112301E009F101030AAA01A90CA8FFF760
:1095F000E4FEDDE90C70002609F10105834647E031
:1096000001204B4600904FF000470AAA01A90CA880
:10961000FFF7D3FEDDE90DB00C995D46002610B9C9
:1096200009F101000D18B9EB050003D4C0F1FF36B4
:1096300009F10105A5EB09002BE0B9F1010F01DAF1
:109640004FF001090020B9F1110F0090484601DDEB
:10965000112300E003460AAA01A90CA8FFF7ADFEFA
:10966000DDE90C704D4600268346207800070AD4B9
:10967000AB4500DA5D4601A8012D04DD411911F862
:10968000011C302907D04F4502DA17F1040F04DA24
:10969000012082460FE06D1EEEE7002F02DCED1B7D
:1096A0003E4403E0781CA84200DD7D1CB81B00F19D
:1096B000010A4FF000472078000703D4AA4501DBD8
:1096C0004FF0FF3A0021B7F1004F0DF143088DF83C
:1096D000431024D002202B23002F01DA7F422D23B8
:1096E0000A21021EA0F1010000DC5FB197FBF1FC32
:1096F00097FBF1F201FB1C7C17460CF1300C08F8CB
:1097000001CDEEE7A8F1010003702188090501D51C
:10971000452100E06521A0F1010800F8011C09982D
:109720000FA9A1EB0807FF1D00B10120411901EBB2
:10973000EA70A1693844081A401EA0612078C0066A
:1097400002D42046FEF792FE099828B1D4E90121FF
:109750009047206A401C20622078C00622D520460F
:10976000FEF784FE1EE0002E04DBB34502DD01A8F7
:10977000805D00E03020D4E901219047206A401C40
:109780002062761CAAF101005FEA000A0AD100F00B
:10979000EDFBC0680168405CD4E901219047206A74
:1097A000401C2062281EA5F10105DCDC07E0D4E99D
:1097B000012118F8010B9047206A401C2062381ED6
:1097C000A7F10107F3DC2046FEF766FE032011B087
:1097D00043E6000001694A1C02610878704700B541
:1097E0008FB0CDE901310021059105497944CDE9DA
:1097F000031011466846FEF7F1FE0FB000BD0000F1
:10980000E5FFFFFF0A6802F8010B0A607047D1E923
:1098100000239A4202D2531C0B601070704710B59F
:10982000436913B1AFF3008001E0FEF746FE01206B
:1098300010BD127800F124010A7000224A70012242
:10984000EDE711684FF0FF32E9E70000074B70B514
:109850000D467B44FFF7C3FF0446284600F0D4F8CA
:1098600010B14FF0FF3070BD204670BD0D76010085
:109870003A2800D2303820F02002412A01D3A2F148
:109880003700884201D34FF0FF307047026811441F
:109890001378016018467047D160054979445161D9
:1098A00004497944116200211161114600F0F0BBB6
:1098B000EDFFFFFF59070000426842B1016811F84F
:1098C000013B23B1521EC0E9001218467047012126
:1098D000C160881E704742685AB1C368016843B9C5
:1098E00083688B4205D0491E521CC0E9001200203B
:1098F00070474FF0FF3070470FB4002300B589B0B8
:109900000CA900910B99CB60204B7B440693204B14
:109910007B44079304236FF00042CDE901321D4AD6
:109920007A446B4608920246002032F006F809B0ED
:109930005DF814FB70B506464FF0FF3015460C4637
:10994000324686B00091CDE90101694600200490BD
:1099500004A8FFF7D1FF03460498211825B108B1E8
:109960000A4600E022462A6000280DD0002B02DDC6
:109970000098884208D03246081B69460094CDE919
:10998000010404A8FFF7B8FF06B070BDABFFFFFFEE
:10999000C3FFFFFFDB0600002DE9F04791460F46AD
:1099A00080460446002614F8015B2DB100F0D6FA7B
:1099B0000068405DC007F6D12B2D02D02D2D18D0A8
:1099C000641E4A463946204600F01CFD27B139681E
:1099D000A14201D1C7F800804FF0020471050BD5F8
:1099E0004042002803DDFFF77FFC0460A007BDE8CC
:1099F000F08746F48066E4E70028F8DAFFF774FCA5
:109A000004606FF00040F2E7007B00F080007047D8
:109A100070B50D4601461446D36850692A460BF0CE
:109A2000CFFD002807DA411C07D0E16820F0004094
:109A300041F48041E160281A70BD204600F012FA1E
:109A40004FF0FF3070BDC1680022026021F48051E8
:109A500041F0400111F4C06FC16001D082607047D5
:109A600002694168891AC269891A816070472DE9C3
:109A7000F0470446C06840F48000E060010312D55E
:109A800020F40020E060810606D4E26A61688A4220
:109A900000D80A46511A216040F40010E06094F8A2
:109AA0002500BDE8F08720F40010E060800602D5B4
:109AB000204600F02EFAE06842F281014FF0FF39B3
:109AC0000140012903D0204600F0CCF9B6E021681E
:109AD000002600290ADAC94340F480502160C4E915
:109AE00002606068411C61600078DAE744F240017E
:109AF00008420CD020F4A04040F040002660E06016
:109B000021696068401AE169401AA06096E0216905
:109B100091B9C00310D4E0691CF0F3FC2061B0B12E
:109B2000E06840F4006010F4407FE06002D140F44F
:109B30008070E06020696060E068D4F814A0C1061D
:109B40001AD5C0030ED5204600F0C0F914E004F188
:109B5000240020610120E061E06820F4407040F4BE
:109B60008060E6E721696068401AA16901445046B7
:109B70000BF03BFD0028A6DBE068C0032AD5616836
:109B8000E06A884200D808462169451AE069471B07
:109B90001BD02046D4F8188000F098F908EB050196
:109BA0005046C4F818800BF020FD00288BDBE068DD
:109BB00040F40030E060000202D5A0692844A061B2
:109BC000E1692069C91B45180DE0204600F07EF9C7
:109BD000E769F5E725696168D4E90607491BE5628D
:109BE00008446560A061E06820F0100010F4C06FC8
:109BF000E06002D0204600F05FFDE06840F4805055
:109C0000C4E90260000205D52069E06260606FF07F
:109C1000010046E7224639462846FFF7F9FE411C77
:109C20000CD02918E16258B1401E2060681C6060A9
:109C3000E06840F40030E060287832E7484630E7DA
:109C400065602046FFF7FFFEF8E72DE9F04705467F
:109C50000C46C86820F4201040F48000C8608006DC
:109C600002D5084600F055F9E06841F282014FF054
:109C7000FF390140022903D0204600F0F3F8B5E097
:109C800000F42041B1F5004F0FD1C00306D5616843
:109C9000E06A884200D80846606006E02069E06219
:109CA000606060690BF044FCA061A0680022EEB225
:109CB00000280DDAE1688B050AD4C043A06041F4A6
:109CC00090302260E0606068411C61600670A5E031
:109CD000E0689046226040F40050E060206968BB74
:109CE00060690BF028FC012704F12405A0B1A089CC
:109CF00010F4407F08D0E0691CF003FC206118B12B
:109D0000E06840F4006016E0E7612561E06820F457
:109D1000407040F480600EE0E0691CF0F2FB002827
:109D20002061F1D0E06840F4006010F4407FE06012
:109D300002D140F48070E06020696060E0682569CD
:109D40006FF0010AC1051FD56168E06A884200D83A
:109D50000846411B04D02246284600F08DF8F0BB8F
:109D6000E068010203D5E562C4E9015854E0691CCA
:109D7000E1626160E16940F48030491EC4E902108B
:109D800030462E70BDE8F087010202D500F4803223
:109D90000AE06068411C61600670E0680A2E40F4C9
:109DA0008030E06006D00022E16A6068814203D919
:109DB0000B4602E00122F7E70346A7895B1B7F05FC
:109DC00003D4E7699F4200DDE2B1814200D8014639
:109DD000E5620F1AC4E90158002B09DD00E005E037
:109DE00022461946284600F047F808B14846C9E718
:109DF00047B1A069E5626560C01BA061E06840F002
:109E00001000E060E068000208D56168A069E562C2
:109E1000491B08446560A0615046B3E73046B1E78E
:109E200010B50146C268900703D0900607D5886A2E
:109E30000AE0FFF759FA01210160881E10BD8B6905
:109E4000486818440B69C01A91F848301BB191F862
:109E50004910401A10BD1103FCD50028FADD401E40
:109E600010BD0000C16821F4001141F08001C16003
:109E700000218160016070472DE9F047814614465A
:109E80000E464FF0FF383248D5685769054209D071
:109E90003846A1690BF0A9FB002811DB2C48C04310
:109EA0000540E5602B463246494638460BF0A6FB96
:109EB000A16920F00042B21A11440028A16103D028
:109EC0002046FFF7CFFF4046BDE8F08770B5044657
:109ED0000569C06A6168884200D80846E16821F4D3
:109EE0002011E160C90312D5A84208D02246411BC7
:109EF0002846FFF7C1FF10B14FF0FF3070BD0020C2
:109F0000E562C4E90150E06820F48030E0600020A0
:109F100070BD10B50446C06820F02000E060A16A62
:109F2000A06988420DD02046FFF7D0FFE06820F4FA
:109F3000405040F01000E060A06AA0612069E0623B
:109F4000606044F24001E0688843E06010BD0000BA
:109F500010000200004870477464012010B500F042
:109F600005F8001D10BD00BF410B030000487047FD
:109F70009464012030B5B0F10A024FEA900E71F1FD
:109F800000034EEA817EB0EB0E0061EB91014FEAD7
:109F9000101E4EEA017E10EB0E0041EB11114FEA4C
:109FA000102E4EEA016E10EB0E0041EB11214FEA2C
:109FB000104E4EEA014E10EB0E0041EB11414018DD
:109FC00041F100014FEAD00040EA41704FEAD1016F
:109FD00010EB80054FEA810444EA907444EB0104DD
:109FE0006D1944EB0404521BA3414FF0000348BF1A
:109FF0000A3200D530BD401C41F1000130BD10B522
:10A000000446FFF7ABFF0068005D00F0010010BDE3
:10A010002DE9F0411F46044603260168072A01F492
:10A02000006004DB08B116A505E016A503E008B141
:10A0300015A500E015A521F010002060A069C01E44
:10A04000A0610FB1401EA0612046FEF70FFA4FB18C
:10A05000D4E9012138469047206A401C2062C01C88
:10A06000206206E0206AFAE7D4E9012115F8010B25
:10A070009047761EF8D22046FEF70EFABDE8F08132
:10A080004E414E006E616E00494E4600696E66009C
:10A090002DE9F34F4FF0000A0C4656468DB00120D3
:10A0A0000C9001F10C000B9062690B980121904714
:10A0B00005002DD0252D2CD0216A8847C0B16269BA
:10A0C0000B9801219047216A88470028F7D16269DF
:10A0D000411E0B98904700E0761CA1690D988847B7
:10A0E000216A88470028F7D1E1690D988847DBE7A6
:10A0F000A1690D988847A842074601D1761CD3E78D
:10A10000E1690D9888477F1C02D1BAF1000F6FD02A
:10A110006BE162690B9800273D46394690472A2833
:10A1200004D162690B98012190470125DFF8D082A4
:10A1300062690B9801219047A0F130010A290AD2E7
:10A140004745E5DC07EB870100EB4107303FDFD4F3
:10A1500045F01005ECE7E90601D46FF000476C28E4
:10A160000AD04C2814D0682815D06A280DD074283D
:10A170001CD07A281AD01DE062690B980121904703
:10A180006C2802D045F0040514E045F002050DE00E
:10A1900045F020050AE062690B9801219047682884
:10A1A00002D045F0080505E045F4006562690B98AA
:10A1B00001219047C4E9015765283DD019DC582892
:10A1C0007AD00CDC452837D004DC252826D041285D
:10A1D0009ED131E046282FD0472899D12CE05B282A
:10A1E00077D0612828D063287CD0642823D15AE016
:10A1F000F6E06F2848D008DC66281DD067281BD001
:10A20000692821D06E2816D127E0702845D0732800
:10A2100068D0752847D078280DD14DE0A1690D98F8
:10A220008847252805463FF469AFE1690D988847BE
:10A230006D1C3FF46AAFD8E00D9923466A466FF073
:10A24000010031F07AFBC5E045F0400023464FF0B5
:10A2500000026060A80736D43EE0E8077FF447AF0D
:10A260002068011D21600068290501D506701BE7E3
:10A27000290701D5068017E7A90703D5F117C0E91B
:10A28000006111E706600FE745F0400023464FF0FC
:10A2900008026060A80716D41EE040F60E0125EA09
:10A2A0000100606016E045F0400023464FF00A02CE
:10A2B0006060A80707D40FE045F040006060A80781
:10A2C00008D5234610220D996FF00100AFF30080EE
:10A2D00080E007E0102223460D996FF00100FEF7A1
:10A2E0005FFA77E04FF0000963284F46C8464B46B7
:10A2F000CB4602D05B2806D038E0E80601D4012026
:10A30000A060012732E06269D4F80CB00B980121FB
:10A3100090475E2807D14FF0010949466269D4F899
:10A320000CB00B989047216939B900210A4603AB5C
:10A3300043F82120491C0829FADBD8B3216949B325
:10A3400008F1010862690B98012190475D28F4D15A
:10A35000B9F1000F09D0002003A951F82020D24301
:10A3600041F82020401C0828F7DB03AB20690028B7
:10A3700020794FEA40701ED05B462246CDF800801F
:10A38000CDE901970D9900286FF0010020DAAFF3B5
:10A3900000801FE0C11703AA00EBD1614B1121F02F
:10A3A0001F0102EB8302411A136801208840034316
:10A3B0001360C7E719E00D99224600286FF00100ED
:10A3C000009702DAAFF3008004E0FEF78FFA01E0B5
:10A3D000AFF3008000280ADA401C06D10C9820B1A7
:10A3E0004FF0FF300FB0BDE8F08F5046FAE7E907B5
:10A3F00001D10AF1010A064400200C9054E6000045
:10A40000CCCCCC0C2DE9F05F824615468B4600275C
:10A410000AF10104B9460078302801D09DB113E05B
:10A4200014F8010B0127782803D0582801D045B132
:10A430000AE00DB1102D07D1002714F8010B1025EB
:10A4400002E0082500E00A250026B0460EE005FBE4
:10A45000080005FB06F101271FFA80F801EB104602
:10A46000B6F5803F00D3B94614F8010B2946FFF733
:10A47000FFF90028EBDABBF1000F05D00FB1641E25
:10A4800000E05446CBF80040B9F1000F06D0FEF7CB
:10A490002BFF02210160C81EBDE8F09F48EA06407C
:10A4A000FAE700002DE9F047814616468AB03348A6
:10A4B00078440DC88DE80D0030487844801C03AC0A
:10A4C0000DC884E80D0041F69B300844372190FB0D
:10A4D000F1F290FBF1F5A5F1800501FB12041B3CA4
:10A4E00002D56442012000E00020DFF890A0804601
:10A4F0000027FA44AAF1BE0A0DE0E00709D032466F
:10A50000684607EB47010AEB810101F000F98DE88D
:10A51000070064107F1C002CEFD1184F7F44AC3F24
:10A5200018E0E80714D007EB04100DF1180A90E8C2
:10A530000E008AE80E00C068F04201D19819089018
:10A54000324606A903A801F0E2F803AB83E807004E
:10A550006D10641C002DE4D132466946B8F1000F3D
:10A5600003A802D001F0ABF801E001F0D0F8C9E98E
:10A570000001C9F808200AB0BDE8F0872C2A0300C2
:10A5800010B542485421FEF745FD41485421FEF7DD
:10A5900041FD40485421FEF73DFD3F493B483C4AC0
:10A5A0003F4B08603D490A603A491960531C0365F6
:10A5B000481C1065012008653B48344A39A178449D
:10A5C000FEF7C8FA20B9384878440A3800F063FB2F
:10A5D00037482F4A35A17844FEF7BCFA20B93448F1
:10A5E00078440A3800F057FB32482A4A2FA17844B1
:10A5F000FEF7B0FA20B92F4878440A3800F04BFB38
:10A6000040232248DC000021224600F01BFB20B141
:10A6100025487844543800F03EFB1D48224640232C
:10A62000002100F00FFB20B121487844543800F09D
:10A6300032FB184822461023002100F003FB0028BB
:10A6400006D01C487844BDE81040563800F023BBC3
:10A6500010BD104870B5006D20F001040B48FEF7E6
:10A66000EFFA0B48FEF7ECFA0A48FEF7E9FA09E0C0
:10A67000206D20F001052046FEF7E2FA204616F094
:10A68000FDFB2C46002CF3D170BD00007863012047
:10A69000CC63012020640120E0040020E4040020B9
:10A6A000E8040020720000004D2003007700000045
:10A6B0003B2003002A20030070B5054640F2022625
:10A6C0000A4C0FE094F85000C00708D0AC4206D006
:10A6D000E06836EA000002D1204600F081FA206DE1
:10A6E00020F00104002CEDD170BD00007863012042
:10A6F0007546FFF72FFCAE4605006946534620F02D
:10A700000700854618B020B5FDF7E0FDBDE8204004
:10A710004FF000064FF000074FF000084FF0000B1D
:10A7200021F00701AC46ACE8C009ACE8C009ACE8D0
:10A73000C009ACE8C0098D46704700002DE9FF4F05
:10A74000064689B00878FF2806D0491C2D2805D078
:10A7500000244FF0000908E000200CE00124F8E795
:10A7600009EB8903491C00EB43090878FF28F7D15E
:10A7700014B1C9F100008146107800252C46AA4684
:10A7800029462D2801D02B2804D1521C2D2813D066
:10A79000002082468B461078FF280FD04FF0000C27
:10A7A0000A21521CA5FB017804FB018105FB0C1159
:10A7B000C5194BEB0104EEE70120EAE7002108464A
:10A7C0004FF00000BAF1000F02D000EB800040080B
:10A7D000C0F38158B8F1010F01DD4FF0FF380C983C
:10A7E00009EB000755EA040009D04FF0020917F5FC
:10A7F000FA7F0BDA4FEACA70C6E900B012E04FEAFE
:10A80000CA70C6E900B00DB0BDE8F08FB7F5FA7FA9
:10A810000DDDF0487844D0E90010C6E9001040EAA8
:10A82000CA707060FEF760FDC0F80090EBE7391E5B
:10A8300002DAC8F1000200E0424600DA794206A8D6
:10A84000FFF730FE06AB93E8070003AB83E8070091
:10A8500044F23E005BEA04010090584604D144F201
:10A860001E012C465D460091210C0904014306D1CE
:10A870000099240444EA15442D041039009104F091
:10A880007F41014306D10099240244EA15642D0258
:10A890000839009104F07041014306D10099240168
:10A8A00044EA15742D01091F009104F04041014351
:10A8B00006D10099A40044EA9574AD00891E009168
:10A8C00004F00041084304D100986D196441401E12
:10A8D000009042466846002FCDE9014503A902DDFC
:10A8E00000F029FF01E000F0FEFEBAF1000F04467F
:10A8F0000D4601D084F0004440F2FF7724F0004080
:10A90000284303D0C4F30A50B84212D1FEF7ECFC3E
:10A91000C0F80090C4F30A50B8420AD1AE48784457
:10A92000D0E90010C6E9001004F00041084370604F
:10A9300069E7C6E9005466E72DE9FF4F1F464FF06F
:10A94000000A4FF0FF38454691B0D7E90146CDF8EF
:10A950003CA0FFF70BFBC0680168405C1090B96930
:10A9600012986D1C8847396A814688470028F6D1BD
:10A97000B9F1FF3F0AD0002E24F4D06411DDB9F103
:10A980002B0F08D0B9F12D0F0BD102E0404615B0C6
:10A990003AE744F48064B96912986D1C8847761EC2
:10A9A0008146600504A901D52D2000E02B20002E52
:10A9B00001F1010B0DF130088DF810003FDDB9F108
:10A9C000690F08D0B9F1490F05D0B9F16E0F02D067
:10A9D000B9F14E0F1CD13B4601A8009580E850020A
:10A9E000DDE912126FF0020030F0ABFFC11CCED1D6
:10A9F0000EE0B96912986D1C884781461398761E3F
:10AA000044F4007405600F98401C002E0F9016DD72
:10AA1000B9F1300FEDD0B9F1780F02D0B9F1580F7C
:10AA20000DD10F9801280AD13B46CDE90054DDE94C
:10AA30001212001F029630F082FFC11CA7D110999C
:10AA400089453ED144F0800406E01399681CAAF1C0
:10AA5000010A44F400740860B9696D1C1298761EEE
:10AA6000884730288146F0D02BE01099894505D1E0
:10AA7000200603D4761E44F0800418E0484609F00E
:10AA80002FFE08B3761E0DF123018B4544F40074AC
:10AA900008D2A9F130000BF8010B200607D5AAF166
:10AAA000010003E0200602D40AF101008246A0055D
:10AAB00002D51399681C0860B96912986D1C884703
:10AAC0008146002ED1DC53E0002E51DDB9F1650F37
:10AAD00002D0B9F1450F4BD1A00549D5B9696D1C1C
:10AAE0001298761E24F440748847002E81460CDDAF
:10AAF0002B2804D0B9F12D0F07D144F48074B96923
:10AB000012986D1C8847761E8146E00501D52D21DF
:10AB100000E02B2108F8011BCDF8008021E0761E13
:10AB20000DF13901884544F400740CD2A9F13000CC
:10AB300010F0FF0088F8000002D10099884509D97B
:10AB400008F1010806E0E00501D5244801E042F2E1
:10AB50000F708246B96912986D1C88478146139818
:10AB60000560002E04DD484609F0BAFD0028D6D164
:10AB7000F96912988847FF2053468BF8000088F83F
:10AB8000000000200A900B9004AA0CA90AA8FFF765
:10AB9000D5FDA00502D46FF00100F8E614F0240FF3
:10ABA0000AD0E00714D13868DDE90A12031D3B60C2
:10ABB0000068C0E900120BE00AA9684609F002FD2E
:10ABC000E00705D13868009A011D3960006802600D
:10ABD0002846DCE6303C0300263B0300F1D8FFFFAB
:10ABE00070B50446C068810713D0800601D5A56AF8
:10ABF00004E0A169606808442169451A2046FFF70E
:10AC000065F90022064629462046FDF727FF304613
:10AC100070BD002070BD70B510B1BDE87040DFE7B9
:10AC20000025074C6E1E07E02046FFF7D9FF00B154
:10AC30003546206D20F00104002CF5D1284670BD6A
:10AC40007863012070B5C468A50713D0650211D4DC
:10AC5000B2F5807F09D0B2F5007F06D0B2F5806FE3
:10AC600008D1012300F1240106E05D1E6FF07F464C
:10AC7000B54201D3012070BD0161C361416024F47C
:10AC800070611143C160002070BD0446AFF30080C5
:10AC90002046FDF7ECFA10B500F00AF8BDE81040C8
:10ACA000AFF30080002801D00AF041BC70470000DB
:10ACB00010B5014602A000F03BFA012010BD0000D3
:10ACC00053494752545245443A205265646972656B
:10ACD00063743A2063616E2774206F70656E3A204A
:10ACE000000000002DE9FF4F1F464FF03C0987B0E0
:10ACF0004FF00042DDE9141001F10108DDF858A021
:10AD000002EA405003900020049083460546044622
:10AD10000590B969461E08988847AAF1010A029071
:10AD2000BAF1000F37DD02982E2815D01021FEF75A
:10AD30009FFD00282ADB4FF0010B0499014316D038
:10AD4000B9F1000F0BDB4A46C11700F00AFA0543C0
:10AD50000C43A9F1040905E00120059007E008B1C2
:10AD600045F0010501200490059800B9361DB96928
:10AD7000089808F101088847BBF1000FAAF1010A01
:10AD80000290CDD00999C1F80080C9E702987028D7
:10AD900008D0502806D0F96908988847BBF1000F01
:10ADA00014D04FE0002002900120BBF1000F04906E
:10ADB00009D0B969089808F101088847AAF1010982
:10ADC000B9F1000F07DCF969089888476FF00100B6
:10ADD0000BB0BDE8F08F2B2804D02D280CD14FF0FC
:10ADE000FF300490B969089808F101088847A9F173
:10ADF0000109B9F1000FE6DD411CE4D00A21FEF79C
:10AE000037FD0028DFDB029908F1010801EB810121
:10AE100000EB41000290B969089888470A21FEF7C3
:10AE200027FD099AA9F10109B9F1000FC2F80080C4
:10AE300001DD0028E7DAF969089888470499029843
:10AE400000FB016655EA040004D004F0404109000B
:10AE500002D006E0039898E0A40044EA9574AD009F
:10AE6000B61E04F00041080002D16D196441761E3F
:10AE7000159810F0240F03D04FF00B095C4803E045
:10AE80004FF028096FF07D008246564507DAAAEB9D
:10AE900006018944B9F1410F01DD4FF0410901205C
:10AEA0000021A9F1010200F05CF9024628400B469E
:10AEB0002140084301D0012100E00021501E0291F1
:10AEC00043F1FF3128402140084301D0012000E038
:10AED00000200299834651EA0B014FD00021084619
:10AEE0004FF00000039900F4400039B100EB8000FE
:10AEF0004FF4400100EBD07001EA6000801501289A
:10AF000002DD4FF0FF3000E013D0401C36D0029835
:10AF100060B3BBF1000F0CD14A460120002100F0C4
:10AF200020F928402140084301D0012000E0002002
:10AF3000E0B101204A46002100F013F90346401910
:10AF40000A4661412D1A8C4111D3B9F1400F09DD38
:10AF5000159810F0240F02D0AAF1340603E0AAF1EC
:10AF6000170600E0761C00254FF0004406E05B1E4B
:10AF700042F1FF3220EA030521EA0204CAF101008E
:10AF8000B04206DA1B490398084301900020009064
:10AF90000EE0039AC4F3D321E80A0A43164940EAB3
:10AFA00044500A433146CDE90002684609F078FB77
:10AFB000159810F0240F0BD01598C00715D13868DC
:10AFC000DDE90012031D3B600068C0E900120CE0DF
:10AFD00002A8694609F0F6FA1598C00705D1386845
:10AFE000029A011D3960006802604046F0E60000E8
:10AFF00002FCFFFF0000F07F0000F03F2DE9FF4F53
:10B0000092461D4685B04FF00041DDE9124BDDE967
:10B0100014727F1E01EA4B50414940F0FF4940EA5B
:10B020000108002122F020004928049102D04E2876
:10B0300028D04CE03BA0012607C88DE80700A9698D
:10B040000698641C88477F1E014606D41DF806003A
:10B0500018B121F0200181420BD0E9690698884798
:10B06000032E34D0082E32D06FF0010009B0BDE8B5
:10B07000F08F761C032E01D0082EE0D1601CCAF898
:10B080000000DCE7A9690698641C88477F1E2AD463
:10B0900020F02000412826D1A9690698641C884721
:10B0A0007F1E20D420F020004E281CD1A9690698CC
:10B0B000641C88477F1E48F4002849F48009CAF8B8
:10B0C000004001D4282806D0E969069888475FEA3D
:10B0D000CB7012D022E0A9690698641C88477F1EB5
:10B0E00001D4002803DAE96906988847BCE72928D3
:10B0F000F1D1641CCAF80040E9E71BF0240F07D027
:10B1000028680499031D2B600068C0E9001805E059
:10B110002868021D2A600068C0F800902046A5E754
:10B120000000F07F494E46494E4954590000000046
:10B1300070B505460C460A2000E06D1C0AF07CFA4A
:10B1400035B128780028F8D102E0641C0AF074FABE
:10B1500014B120780028F8D1BDE870400A200AF028
:10B160006BBAB2F120030AD5C2F1200301FA02F151
:10B1700020FA03F300FA02F041EA0301704700FAF3
:10B1800003F14FF0000070475FEA400C08BF91F0F8
:10B19000000F4FEA8C234FEAC12243EA51514FEA94
:10B1A0001C5018BF00F5F0404FEA300018BF41F0C6
:10B1B00000415FEA6C5C00F02980BCF1FF3F08BFF2
:10B1C00040F080407047130C06BF12044FF0100C83
:10B1D0004FF0000C130E04BF12020CF1080C130FF9
:10B1E00004BF12010CF1040C930F04BF92000CF188
:10B1F000020CD30F04BF52000CF1010C11464FF0AA
:10B200000002A0F11F00A0EB0C00704711F0004FEE
:10B2100008BF704731F000413FF4D5AF0B0C06BFBB
:10B2200009044FF0100C4FF0000C0B0E04BF090284
:10B230000CF1080C0B0F04BF09010CF1040C8B0F6F
:10B2400004BF89000CF1020CCB0F04BF49000CF1C4
:10B25000010CCCF12003A0EB0C0022FA03F302FA5C
:10B260000CF241EA030100F10100704720F07F4C2D
:10B2700080EA030023F07F47ACEB070303F57C5320
:10B2800000F0004003F1FF032DE980494FEA154B20
:10B2900009B44FEA144325EA0B4E24EA03480FF29F
:10B2A000042606EB132749083E785FEA320203FBC7
:10B2B0000667C7F5000707FB06F64FEA54374FEA63
:10B2C000D64606F1020607FB066CCCF1005C4FEA9D
:10B2D0001C472CEA074C07FB06F40CFB06F504EBB5
:10B2E00015464FEA961634BF00204FF000404FEA53
:10B2F000D13706FB07FC4FEA1C4C0CFB0BF7D21BAB
:10B3000003FB0CF761EB07010CFB0EF7B0EB0740FA
:10B3100072EB17420CFB08F734BFA2EB0742B2EB0B
:10B32000074261EB17414FEA0C444FEA910706FBD5
:10B3300007FC4FEA1C4C0CFB0BF7B0EBC74072EB61
:10B34000573203FB0CF734BFA2EBC742B2EBC74244
:10B3500061EB57310CFB0EF7B0EBC70072EB577285
:10B360000CFB08F734BFA2EBC702B2EBC70261EBDC
:10B370005771039F4FEA816141EA921104EBCC04BB
:10B380004FEAD1374FEA826206FB07FC42EA90128D
:10B390004FEA80604FEA1C4C0CFB0BF7D21B03FBFF
:10B3A0000CF761EB07010CFB0EF7B0EB074072EBFB
:10B3B00017420CFB08F734BFA2EB0742B2EB07427F
:10B3C00061EB17414FEA8C554FEA910704EB9C243F
:10B3D00006FB07FC4FEA1C4C0CFB0BF7B0EBC7401D
:10B3E00072EB573203FB0CF734BFA2EBC742B2EB50
:10B3F000C74261EB57310CFB0EF7B0EBC70072EBA5
:10B4000057720CFB08F734BFA2EBC702B2EBC702BE
:10B4100061EB577115EB4C254FEA816141EA9211BE
:10B420004FEA82624FEAD13742EA901206FB07FCEC
:10B4300044F100044FEA80604FEA1C4C0CFB0BF710
:10B44000D21B03FB0CF761EB07010CFB0EF7B0EB13
:10B45000074072EB17420CFB08F734BFA2EB074220
:10B46000B2EB074261EB174115EB1C154FEA813136
:10B4700041EA92414FEA823242EA90424FEA8030FA
:10B480004FEA0C7644F1000448EA03434EEA0B48C5
:10B490004FF0000EB2EB080C71EB030724BF6246BD
:10B4A00039464EEB0E0E4FF0000B00185241494149
:10B4B0004BEB0B0BB2EB080C71EB03077BF1000BB2
:10B4C00024BF624639464EEB0E0E4FF0000B0018BB
:10B4D000524149414BEB0B0BB2EB080C71EB0307EC
:10B4E0007BF1000B24BF624639464EEB0E0E51EA4B
:10B4F000020718BF46F0010616EB0E7655F1000262
:10B5000054F1000103D5BDE88901BDE80088BDE81C
:10B510008901BDE80048B619524141EB0101A3F190
:10B520000103704780807F7E7D7C7B7A7978777697
:10B5300076757473727171706F6E6E6D6C6C6B6A10
:10B540006A696868676666656464636362616160AE
:10B55000605F5F5E5E5D5D5C5C5B5B5A5A5959582B
:10B560005857575656555555545453535252525195
:10B57000515050504F4F4F4E4E4D4D4D4C4C4C4BEB
:10B580004B4B4A4A4A494949484848474747474632
:10B59000464645454544444444434343434242426E
:10B5A0004241414146EA0646A3F570534FEA16462A
:10B5B00046EA42564FEAD22242EA415210B54FEAD9
:10B5C000D121A3F1010300F017F820F0004000F1B1
:10B5D000010C00F0004701EB00501146BCF5006F74
:10B5E00040EA070000D210BD02484FF0000140EAD7
:10B5F000070010BD0000F07F002B26D4770021D07B
:10B600001CB54FEA370703B44FF010004FF010019C
:10B610004FF000000FBCBDE810400BF1010BBBF177
:10B62000010F08BF5FEA170722BF12F1010211F1F3
:10B6300001014FF0004143F1000300F0004043EAF4
:10B6400000007047F9D35708DAE746EA064613F1D7
:10B65000400F4FEA16461FDD13F1200FDFBF1643E0
:10B660000A46002120335B42C8D0C3F1200746EAD6
:10B67000064602FA07F74FEA164646EA0706C3F1FE
:10B68000200722FA03F201FA07F721FA03F14FF03B
:10B69000000342EA0702B1E746EA020646EA064626
:10B6A0004FEA164646EA0106BCBF46EA0646360C95
:10B6B0004FF000034FF000024FF000019EE72DE92C
:10B6C000C048934630B491E8380007C831EA400CCE
:10B6D00048BF34EA430C03D5FFF7C8FDFFF78CFFE2
:10B6E000F0BCBDE800882DE9C048934630B491E82D
:10B6F000380007C831EA400C48BF34EA430C03D590
:10B70000FFF7B4FDFFF74EFFF0BCBDE800882DE960
:10B71000C048934630B491E8380007C810F0804F15
:10B7200008BF13F0804F03D100F019F8FFF764FF52
:10B73000F0BCBDE800882DE9C048934630B491E8DC
:10B74000380007C810F0804F08BF13F0804F03D1B6
:10B7500000F005F8FFF726FFF0BCBDE8008820F0F8
:10B760007F4780EA030023F07F4C07EB0C03A3F52F
:10B770007C5300F00040A3F1FE0392F0000F00F0B4
:10B78000B38095F0000F00F077802DE901494FEA72
:10B7900011404FEA144621EA004800FB06FC24EA67
:10B7A000064708FB06F607FB08F800FB07F718EB4F
:10B7B00006484CEB164C4FEA124B18EB07484FEA81
:10B7C00015464CEB174022EA0B4E0BFB06FC25EA14
:10B7D00006470EFB06F607FB0EFE0BFB07F71EEBFC
:10B7E000064E4CEB164C4FF000061EEB074E4CEB92
:10B7F000174B18EB0B0840F1000018EB0E0B58EB41
:10B80000000840F100008F1A4FF000013CBFC9430F
:10B81000661B14BFB5EB040C00213CBFC943F61BEB
:10B820004FEA17444EEA8E0E27EA04454FEA1C47BA
:10B8300004FB07622CEA074C05FB07F70CFB05F637
:10B8400004FB0CFC16EB074642EB174216EB0C46CA
:10B8500042EB1C421BEB060658EB0202414146EA52
:10B860009E0601D5BDE80189B619524141EB01019F
:10B87000A3F10103BDE801894FEA14454FEA1147DE
:10B8800024EA054621EA074C05FB07F406FB07F707
:10B890000CFB06F105FB0CFC11EB074144EB1744D4
:10B8A0004FEA124711EB0C4144EB1C4422EA074CCF
:10B8B00005FB07F206FB07F70CFB06F605FB0CFC85
:10B8C00016EB074642EB174216EB0C4642EB1C45C3
:10B8D0006A1854F1000148BF7047B619524141EB54
:10B8E0000101A3F10103704795F0000F37D04FEA33
:10B8F00011424FEA144721EA024624EA074C02FBB0
:10B9000007F106FB07F70CFB06F402FB0CFC14EB3B
:10B91000074441EB17414FEA154714EB0C4441EB48
:10B920001C4125EA074C02FB07F506FB07F70CFB59
:10B9300006F602FB0CFC16EB074645EB174516EB2B
:10B940000C4645EB1C42121951F1000148BF7047EB
:10B95000B619524141EB0101A3F1010370474FEACF
:10B9600014454FEA114724EA054621EA074C05FB36
:10B9700007F106FB07F70CFB06F24FF0000605FB8C
:10B980000CFC12EB074241EB174112EB0C4251EB5E
:10B990001C4148BF7047921841EB0101A3F101031C
:10B9A0007047000030B599B00C4600256421684608
:10B9B000FDF730FB22460FA102201DF029FD0C22CD
:10B9C000114904F10D00FDF7B3F938B16A46294673
:10B9D0005FF0010000F07AFA19B030BD684601F05E
:10B9E00037FBC4B2214609A0FCF7FCFC6A4621469D
:10B9F0000020EFE7574946495F526563765F457619
:10BA0000656E74203230200050B70020636F6E6E78
:10BA10006563745374617475733A25640A00000099
:10BA200030B585B000250C460A4600950195029573
:10BA3000039510A1022004951DF0EAFCE069009036
:10BA4000206A01908DF80850606A0390208DADF84F
:10BA500010000C220C4904F10D00FDF769F903AA4E
:10BA6000694628B15FF0010000F094FB05B030BDDD
:10BA70000020F9E7574946495F526563765F45768E
:10BA8000656E74203137200050B7002010B50C4689
:10BA90000A4609A102201DF0BBFC0C220B4904F14F
:10BAA0000D00FDF745F90A4920B10120BDE810401D
:10BAB00000F0ECBB0020F9E7574946495F52656347
:10BAC000765F4576656E74203138200050B70020CF
:10BAD000EC04002070B54FF480550C4628461AF04F
:10BAE00010FD06462946FDF773FA22460FA10220F3
:10BAF0001DF08EFC0C22124904F10D00FDF718F91F
:10BB000010B13146012007E0304601F043FB10F050
:10BB1000FF0F08D00BA1002000F02CFA3046BDE842
:10BB2000704015F0ABB93146F5E70000574946497A
:10BB30005F526563765F4576656E74203232200011
:10BB400050B70020000000000FB4FEB50020DDE972
:10BB50002371229D4A7FC2F301160CE0952202FB5D
:10BB60000012527FC2F30112B24201D0022606E057
:10BB7000401C782803DADDF83D208242EEDC08AA7A
:10BB800056A15A48FCF744FC584C3020584904F858
:10BB9000190F3220607014982FF02CFD2FF0DEFC6E
:10BBA000010EA170010CE170010A217160711798FA
:10BBB000C11700EB11200016A071179800EB11407F
:10BBC0000014E071179800EB1161081220721798A9
:10BBD0006072484916982FF00DFD2FF0BFFC010E42
:10BBE000A172010CE172010A21736073DDF83D005E
:10BBF000C11700EB1160010AA1739DF83D100846C2
:10BC0000E073DDF83900C11700EB1160010A2174FF
:10BC10009DF83910084660749DF8372036A16846B3
:10BC2000FCF7F6FB9DF80000A0749DF80100E0749D
:10BC30009DF8020020759DF8362031A102A8FCF77E
:10BC4000E7FB9DF8080060759DF80900A075303687
:10BC5000E6752A4628A101A8FCF7DAFB9DF8040046
:10BC600020769DF8050060769DF80600A0761F48B6
:10BC70003A46343024A1193CFCF7CAFB3435452040
:10BC800060556D1C4E206055691C442060544FF473
:10BC90007A70A91C91FBF0F030306071642091FB48
:10BCA000F0F20A2092FBF0F300FB13223032A27173
:10BCB00091FBF0F292FBF0F300FB13223032E271C1
:10BCC00091FBF0F200FB12123032227260540748EE
:10BCD000491C07F0B7F8FEBC5DF814FB4150533126
:10BCE0003130303030303030312573005F4001204A
:10BCF000000020410000C8422530336400000000ED
:10BD000025303278000000002573000070B50C4625
:10BD1000054641F65A212048FDF75AF92DB1BDE8F4
:10BD200070401EA11C48FCF773BB21A11A48FCF708
:10BD30006FFB1948210E1622C173210C0174210AD0
:10BD4000417484744521C1744E21017544214175AB
:10BD50004FF47A7192FBF1F130314171642192FB21
:10BD6000F1F30A2193FBF1F401FB143330338371B7
:10BD700092FBF1F393FBF1F401FB14333033C37105
:10BD800092FBF1F301FB1322303202728175BDE8A0
:10BD90007040172107F056B85F40012041505331E1
:10BDA00031303031353030313330310A000000006D
:10BDB0004150533131303030303030313330300059
:10BDC00030B585B0044600200D46009001900290E9
:10BDD0000390049041F65A213248FDF7F9F801A882
:10BDE00009F0F0FD012C0FD02FA12E48FCF710FB1D
:10BDF0002C4C0F20302204F11101302D0BD0312DAD
:10BE000010D0322D16D01EE02BA12648FCF700FBE7
:10BE10001021244841E0E27322746A4601A81EF012
:10BE200089FF0EE0E273312020746A4601A81EF0FB
:10BE3000CDFD06E0E273322020746A4601A81FF0AF
:10BE4000AFF80098113045212154401C4E21215457
:10BE5000401C44212154411C4FF47A7091FBF0F0B6
:10BE600030306071642091FBF0F20A2092FBF0F315
:10BE700000FB13223032A27191FBF0F292FBF0F33F
:10BE800000FB13223032E27191FBF0F200FB121240
:10BE90003032227260540348491C06F0D3FF05B0CB
:10BEA00030BD00005F40012041505331313030310E
:10BEB0003530303034303000415053313130303152
:10BEC000353030303430310A00000000F8B50C460F
:10BED000064615464FF480511348FDF779F84EB1E8
:10BEE00012A11148FCF794FA1021BDE8F8400E4861
:10BEF00006F0A8BF84B12846FCF775FF00F11302D5
:10BF000023460FA108480095FCF782FA2846FCF763
:10BF10006AFF00F11401E8E7224610A10248FCF78D
:10BF200077FA1421E1E700005F40012041505331CE
:10BF300031303031353030323030310A00000000DD
:10BF40004150533131253034643030323030302577
:10BF500031642573454E440A0000000041505331BE
:10BF60003130303139303032303030253164454E67
:10BF7000440A000070B50D4604464FF480510F4846
:10BF8000FDF726F84CB10EA10C48FCF741FA102140
:10BF9000BDE87040094806F055BF2846FCF723FF6E
:10BFA00000F112022B460BA10448FCF731FA284697
:10BFB000FCF719FF00F11301EAE700005F400120E0
:10BFC0004150533131303031353030323230310A36
:10BFD000000000004150533131253034643030329C
:10BFE0003230302573454E440A00000010B548B188
:10BFF00010A11548FCF70CFA1021BDE810401248BA
:10C0000006F020BF022211A10F48FCF701FA0E48EA
:10C01000302264211130FCF7D3FF0B48452100F892
:10C02000751F4E214170442181700A21C170792110
:10C03000E3E700004150533131303031353030309A
:10C040003830310A000000005F4001204150533178
:10C0500031303132303030303830302530326400D9
:10C060002DE9FC4105460C46002741F65A213F4880
:10C07000FCF7AEFF4DB13EA13C48FCF7C9F91021D9
:10C08000BDE8FC41394806F0DDBE3EA13748FCF76B
:10C09000BFF90F26354D3AE0607821787F1C00EB20
:10C0A0000110A0F54C708DF80000E078A17800EB4D
:10C0B0000110A0F54C708DF801006079217900EB3A
:10C0C0000110A0F54C708DF80200E079A17900EB29
:10C0D0000110A0F54C708DF80300607A217A00EB16
:10C0E0000110A0F54C708DF80400E07AA17A953427
:10C0F00000EB0110A0F54C708DF80500A81900990F
:10C100000160BDF80410B61D8180782F04DA204646
:10C11000FCF769FE0C28BFD04520A855761C4E20A0
:10C12000A855761C4420A855711C4FF47A7091FBD9
:10C13000F0F030306871642091FBF0F20A2092FB3D
:10C14000F0F300FB13223032AA7191FBF0F292FB64
:10C15000F0F300FB13223032EA7191FBF0F200FBA6
:10C16000121230322A726854491C89E75F4001205C
:10C170004150533131303031353030313130310A86
:10C180000000000041505331313030313530303112
:10C1900031303000F8B5054600200E4600901446B8
:10C1A00041F65A212948FCF713FF012D43D03246AE
:10C1B00027A12648FCF72CF924482168234A40F897
:10C1C000171FA18881801D326B46214630461EF024
:10C1D000EFFA009800F11D0178B31C484522425443
:10C1E000491C4E224254491C442242544FF47A7254
:10C1F000491C91FBF2F230324271642291FBF2F35E
:10C200000A2293FBF2F402FB14333033837191FB67
:10C21000F2F393FBF2F402FB14333033C37191FB5E
:10C22000F2F302FB131330330372425411F1010194
:10C2300006F008FEF8BD0BA101E0FFE70EA10348E0
:10C24000FCF7E6F810210148F2E700005F4001200A
:10C250004150533131303031353030313730302585
:10C2600073000000415053313130303135303031BE
:10C270003730310A00000000415053313130303145
:10C28000353030313730320A000000002DE9FC41F2
:10C2900004460D46002741F65A214548FCF798FE12
:10C2A0004CB144A14248FCF7B3F81021BDE8FC4171
:10C2B0003F4806F0C7BD44A13D48FCF7A9F84648F1
:10C2C0003B4E10240078F07342E0687829787F1C98
:10C2D00000EB0110A0F54C708DF80000E878A9780B
:10C2E00000EB0110A0F54C708DF8010068792979F8
:10C2F00000EB0110A0F54C708DF80200E879A979E7
:10C3000000EB0110A0F54C708DF80300687A297AD3
:10C3100000EB0110A0F54C708DF80400E87AA97AC2
:10C3200000EB0110A0F54C708DF805003019009954
:10C330000160BDF80410818035F80D0FA41D000ABE
:10C340003055641C15F8880B3055641C782F04DABE
:10C350002846FCF748FD0C28B7D045203055611C15
:10C360004E207054A11C442070544FF47A70E11C8C
:10C3700091FBF0F030307071642091FBF0F20A20F4
:10C3800092FBF0F300FB13223032B27191FBF0F21A
:10C3900092FBF0F300FB13223032F27191FBF0F2CA
:10C3A00000FB1212303232727054491C7EE70000DA
:10C3B0005F40012041505331313030313530303120
:10C3C0003830310A000000004150533131303031F3
:10C3D0003530303138303000CC04002070B50D4697
:10C3E00004464FF480510A48FCF7F2FD4CB109A114
:10C3F0000748FCF70DF81021BDE87040044806F02E
:10C4000021BD2A4608A10248FCF702F82121F3E7E2
:10C410005F400120415053313130303135303031BF
:10C420003230310A00000000415053313130303396
:10C43000323030313230302573454E440A0000002E
:10C440002DE9F04F89B004460020DDF86CB0DDF82E
:10C4500080A0DDF85890249D8846049005900690B1
:10C46000079017461E4641F65A214348FCF7B0FD97
:10C470004148012C224641A17AD0FBF7C9FF3E4C2E
:10C480003020B8F1000FE07300D0312020746774C1
:10C49000A6741298E0741398207514986075159816
:10C4A000A07584F8179017982076189860761998D8
:10C4B000A0761A98E07684F81CB01C9860771D98D6
:10C4C000A0771E98E0771F9884F8200084F821A0B8
:10C4D000219884F82200229884F82300239884F875
:10C4E0002400A8786B792A79E9788DE80F006B78B9
:10C4F0002A7827A104A8641DFBF78AFF1E48049927
:10C5000040F8251F0599416006998160452084F80F
:10C510002C004E2084F82D00442084F82E00342175
:10C520004FF47A7091FBF0F030302070642091FB72
:10C53000F0F20A2092FBF0F300FB1322303262701B
:10C5400091FBF0F292FBF0F300FB13223032A27069
:10C5500091FBF0F200FB12113031E17084F82F00F2
:10C560003521054806F06EFC09B0BDE8F08FFFE705
:10C57000FBF74EFF1021F4E75F400120415053319B
:10C58000313030313530303134253032640A0000FA
:10C59000253032782530327825303278253032789F
:10C5A00025303278253032780000000010B504467E
:10C5B00041F65A210648FCF70BFD224605A1044826
:10C5C000FBF726FFBDE810401021014806F03ABCF9
:10C5D0005F400120415053313130303135303031FE
:10C5E00036253032640A000038B5044600200D4676
:10C5F000009041F65A212248FCF7EAFC012C38D081
:10C6000020A11F48FBF704FF1D496A460F31284649
:10C610001EF012FB00991A480F3145224254491C62
:10C620004E224254491C442242544FF47A72491C0F
:10C6300091FBF2F230324271642291FBF2F30A2252
:10C6400093FBF2F402FB14333033837191FBF2F36A
:10C6500093FBF2F402FB14333033C37191FBF2F31A
:10C6600002FB1313303303724254491C06F0EAFBF9
:10C6700038BD08A10248FBF7CBFE10210048F5E7C2
:10C680005F4001204150533131303031353030304E
:10C69000333030004150533131303031353030306B
:10C6A0003330310A0000000070B50E4604461546CE
:10C6B00041F65A210B48FCF78BFC012C0BD02B4682
:10C6C000324609A10748FBF7A3FE1821BDE87040D8
:10C6D000044806F0B7BB0BA10248FBF799FE1021F6
:10C6E000F4E700005F4001204150533131303032D7
:10C6F00033303031353030253032782530336445B1
:10C700004E440A00415053313130303135303031F0
:10C710003530310A0000000010B5044641F65A21B8
:10C720000648FCF755FC224605A10448FBF770FEBD
:10C73000BDE810401021014806F084BB5F40012095
:10C740004150533131303031353030323125303293
:10C75000640A000010B5044641F65A210648FCF769
:10C7600037FC224605A10448FBF752FEBDE8104005
:10C770001021014806F066BB5F4001204150533153
:10C78000313030313530303035253032640A0000F8
:10C7900010B5044641F65A210648FCF719FC22461A
:10C7A00005A10448FBF734FEBDE810401021014804
:10C7B00006F048BB5F4001204150533131303031E9
:10C7C0003530303036253032640A000010B504466A
:10C7D00041F65A210648FCF7FBFB224605A1044816
:10C7E000FBF716FEBDE810401021014806F02ABBF9
:10C7F0005F400120415053313130303135303031DC
:10C8000030253032640A000010B5044641F65A2142
:10C810000648FCF7DDFB224605A10448FBF7F8FDBE
:10C82000BDE810401021014806F00CBB5F4001201C
:10C83000415053313130303135303030372530329E
:10C84000640A00002DE9F04393B0074600200C462F
:10C850000F9010901190129015463C216846FCF7FD
:10C86000D9FB002641F65A21CC48FCF7B1FB0E2239
:10C87000CB490FA8FCF72DFB012F5FD00E22C9A1D9
:10C880000FA8FCF755FA00287DD0CAA1C348FBF7D2
:10C89000BFFDDFF808833021404688F80F103221B1
:10C8A00088F81010E91705EB11610A0A88F81120C1
:10C8B000294688F812109DF83D109DF83C201A2753
:10C8C00001EB0211A1F54C7188F813109DF83F108F
:10C8D0009DF83E2001EB0211A1F54C7101759DF808
:10C8E00041109DF8402001EB0211A1F54C714175FA
:10C8F0009DF843109DF8422001EB0211A1F54C7107
:10C9000081759DF845109DF8442001EB0211A1F5B9
:10C910004C71C1759DF847109DF8462001EB02113E
:10C92000A1F54C7101769DF849109DF8482001EB66
:10C930000211A1F54C7188F81910ECE0A1A120E1D9
:10C940003C216846FCF766FB607821784FF0390996
:10C9500000EB0110A0F54C708DF80000E078A17894
:10C9600000EB0110A0F54C708DF801006079217981
:10C9700000EB0110A0F54C708DF80200E079A17970
:10C9800000EB011000E006E1A0F54C708DF803000B
:10C99000607A217A00EB0110A0F54C708DF804004C
:10C9A000E07AA17A00EB0110A0F54C708DF805003B
:10C9B000607FC0F301118DF806109DF8071000F09C
:10C9C00001021143C0F3400241EA4201C0F3800278
:10C9D00041EA8201C0F3C00041EAC0008DF80700BF
:10C9E000B4F81900010A8DF808108DF80900B4F8A0
:10C9F0001B00010A8DF80A108DF80B00E07F8DF8FE
:10CA00000C00208C010A8DF80D108DF80E00608C42
:10CA10008DF81000010A8DF80F10A08C010A8DF816
:10CA200011108DF81200E08C8DF81400010A8DF8B9
:10CA30001310206F616F2EF077F9C11700EB1161B1
:10CA40000A0A8DF815208DF81600A06FE16F2EF000
:10CA50006BF9C11700EB11610A0A8DF817208DF8E8
:10CA60001800208D010A8DF819108DF81A00608DBC
:10CA70008DF81C00010A8DF81B10208E010A8DF81C
:10CA80001D108DF81E0094F832008DF81F00D4F8A8
:10CA900088002421B0FBF1F0020E8DF82020020C5A
:10CAA0008DF82120020A8DF822208DF82300D4F879
:10CAB0008C00B0FBF1F0020E8DF82420020C8DF8F2
:10CAC0002520020A8DF826208DF82700D4F8900042
:10CAD0004A46B0FBF1F0010E8DF82810010C8DF8DC
:10CAE0002910010A8DF82A108DF82B0094F83F00C8
:10CAF0008DF82C00B4F81700010A8DF82D108DF870
:10CB00002E0008EB07006946FCF7E3F99534761C24
:10CB10003937782E02DAAE42FFF612AF002D3ADD39
:10CB2000452108F80710791C4E2208F80120B91C8D
:10CB3000442208F801204FF47A72F91C91FBF2F2BA
:10CB4000303288F80520642291FBF2F30A2293FB2D
:10CB5000F2F402FB143340463033837191FBF2F35D
:10CB600093FBF2F402FB14333033C37191FBF2F305
:10CB700002FB13133033037208F801200748491CE5
:10CB800004E00648FBF744FC1021044806F05AF97B
:10CB900013B0BDE8F08310A1F3E700005F4001206F
:10CBA000A3B70020303030303030303030303030CB
:10CBB0003030000041505331313030313530303079
:10CBC0003230300041505331313030313530303037
:10CBD0003230310A000000004150533131303031E1
:10CBE000353030303230320A0000000010B50C46CB
:10CBF0000A46B6B017A102201CF00AFC0C221A4902
:10CC000004F10D00FCF794F828B136B00120BDE81E
:10CC10001040FFF781BD642101A8FCF7FBF96421F6
:10CC20001AA8FCF7F7F91E3434AB1AAA33A901A8E5
:10CC3000009405F059FC1AAA01A90CA0FBF7D2FB3D
:10CC40000020FFF769FD1AA901A800F0CFF936B05E
:10CC500010BD0000574946495F526563765F4576CF
:10CC6000656E74203231200050B700205353494480
:10CC70003A202025732020202C5041535357443A0A
:10CC8000202573200A00000070B59AB000256421A9
:10CC90006846FCF7BFF9144C002614A1E6806846EC
:10CCA000FBF7B6FB694619A0FBF79CFB6846FCF74F
:10CCB0009AF8411C684607F0BFFAE0880BF0A8FF1D
:10CCC00001280AD0012023F0D7F86D1CC82DF4DB11
:10CCD000E6804FF0FF301AB070BD0DA0FBF782FB6D
:10CCE000E6800020F7E70000AC01002041542B4310
:10CCF000495041505F4445463D2231302E31302E5F
:10CD00003130302E323534220D0A000025730000F8
:10CD100041542B41545F43495041505F44454620A4
:10CD20003A2B6F6B0A000000F0B599B0074600255A
:10CD300064216846FCF76EF9154C00263A46E680F9
:10CD400014A16846FBF764FB6846FCF74CF8411CED
:10CD5000684607F071FAE0880BF05AFF01280FD0FF
:10CD6000E0880BF0AFFF01280AD0012023F084F8FF
:10CD70006D1C642DEFDBE6804FF0FF3019B0F0BD85
:10CD8000394609A0FBF72EFBE6800020F6E70000FD
:10CD9000AC01002041542B434950434C4F53453D77
:10CDA00025630D0A0000000041542B41545F4349A4
:10CDB00050434C4F5345203A2563202B6F6B0A009C
:10CDC00070B50D4C00252E46E5800D210BA007F017
:10CDD00033FAE0880BF01CFF012809D0012023F072
:10CDE0004BF86D1CC82DF4DBE6804FF0FF3070BDB2
:10CDF000E680002070BD0000AC01002041542B43B0
:10CE000049504D55583D310D0A0000002DE9F041C3
:10CE10009AB00F468046002564216846FCF7FAF870
:10CE2000114C00263B46E680424610A16846FBF7BF
:10CE3000EFFA6846FBF7D7FF411C684607F0FCF99C
:10CE4000E0880BF0E5FE01280BD0012023F014F858
:10CE50006D1CC82DF4DBE6804FF0FF301AB0BDE842
:10CE6000F081E6800020F9E7AC01002041542B431B
:10CE7000495053454E443D25632C25640D0A00005E
:10CE800070B50D4C00252E46E58015210BA007F04E
:10CE9000D3F9E0880BF0BCFE012809D0012022F074
:10CEA000EBFF6D1CC82DF4DBE6804FF0FF3070BD4A
:10CEB000E680002070BD0000AC01002041542B43EF
:10CEC00049505345525645523D312C383839390D69
:10CED0000A0000002DE9F0479CB08946824698463A
:10CEE00017460025642102A8FCF794F8154C00268B
:10CEF0004B46E680CDE90078524613A102A8FBF725
:10CF000087FA02A8FBF76FFF411C02A807F094F90B
:10CF10004FF4FA77E0880BF07BFE01280BD001205C
:10CF200022F0AAFF6D1CBD42F4DBE6804FF0FF301B
:10CF30001CB0BDE8F08702A90BA0FBF753FAE6800E
:10CF40000020F5E7AC01002041542B4349505354D5
:10CF50004152543D25632C222573222C2225732215
:10CF60002C25640D0A0000002573202B6F6B0A002E
:10CF700070B59AB0002564216846FCF74BF8124C56
:10CF8000002612A1E6806846FBF742FA6846FBF7E6
:10CF90002AFF411C684607F04FF9E0880BF038FE85
:10CFA00001280AD0012022F067FF6D1CC82DF4DB98
:10CFB000E6804FF0FF301AB070BD08A107201CF0CA
:10CFC00069FCE6800020F6E7AC01002041542B43C9
:10CFD000495053544F3D32300D0A000041545F43D5
:10CFE000495053544F203A2B6F6B000030B599B025
:10CFF0000C46054664216846FCF70CF80B490020F6
:10D000002346C8802A460AA16846FBF701FA69460A
:10D010000EA0FBF7E7F96846FBF7E5FE411C684602
:10D0200007F00AF919B0002030BD0000AC01002063
:10D0300041542B43574A41505F4445463D22257396
:10D04000222C222573220D0A000000002573000007
:10D05000F0B59BB00746002564216846FBF7DAFF70
:10D06000154C002615A1E6806846FBF7D1F9694604
:10D0700015A0FBF7B7F96846FBF7B5FE411C6846FB
:10D0800007F0DAF819AA3946E0880BF021FD0128EB
:10D0900009D0012022F0F0FE6D1CC82DF2DBE680E5
:10D0A00000201BB0F0BD9DF8641008A0FBF79AF9B2
:10D0B000E6809DF86400F4E7AC01002041542B4366
:10D0C000574A41503F0D0A002573000041542B413F
:10D0D000545F43574A4150537461747573203A2B1F
:10D0E0006F6B3A25640A00002DE9F0419AB00F46B3
:10D0F0008046002564216846FBF78CFF164C00260D
:10D100003B46E680424615A16846FBF781F9694631
:10D1100019A0FBF767F96846FBF765FE411C6846F6
:10D1200007F08AF840F2DC57E0880BF071FD012827
:10D130000BD0012022F0A0FE6D1CBD42F4DBE68086
:10D140004FF0FF301AB0BDE8F0810CA0FBF74AF9B0
:10D15000E6800020F6E70000AC01002041542B439C
:10D16000574A41505F4445463D222573222C2225D3
:10D1700073220D0A000000002573000041542B416A
:10D18000545F43574A41505F444546203A2B6F6BEA
:10D190000A0000002DE9F0419AB080460025642184
:10D1A0006846FBF737FF164C002616A1E680684656
:10D1B000FBF72EF9694616A0FBF714F96846FBF752
:10D1C00012FE411C684607F037F84FF416774146C7
:10D1D000E0880BF0D1FC01280BD0012022F04CFE9E
:10D1E0006D1CBD42F3DBE6804FF0FF301AB0BDE8A6
:10D1F000F08108A0FBF7F6F8E6800020F6E70000D3
:10D20000AC01002041542B43574C41500D0A000003
:10D210002573000041542B41545F43574C41504CFF
:10D22000697374203A2B6F6B0A00000070B50E4CC6
:10D2300000252E46E58011210CA006F0FDFFE088B8
:10D240000BF0E6FC012809D0012022F015FE6D1C30
:10D25000642DF4DBE6804FF0FF3070BD08A0FBF7D3
:10D26000C1F8E680002070BDAC01002041542B4382
:10D27000574D4F44455F4445463D330D0A0000007D
:10D2800041542B43574D4F444533203A2B6F6B0A83
:10D29000000000002DE9F0419AB00F4680460025BD
:10D2A00064216846FBF7B6FE154C00263B46E68037
:10D2B000424614A16846FBF7ABF869461AA0FBF793
:10D2C00091F86846FBF78FFD411C684606F0B4FFF5
:10D2D000E0880BF09DFC01280BD0012022F0CCFD52
:10D2E0006D1CC82DF4DBE6804FF0FF301AB0BDE8AE
:10D2F000F0810EA0FBF776F8E6800020F6E700004C
:10D30000AC01002041542B43575341505F444546E4
:10D310003D224543555F525F2573222C22257322FF
:10D320002C31312C330D0A002573000041542B435E
:10D3300057534150203A2B6F6B0A000000B599B04B
:10D3400064216846FBF766FE6846FFF781FE19B068
:10D3500000BD70B54FF40064204619F0D2F80546C0
:10D360002146FBF735FE2846FFF714FF2846BDE8A7
:10D37000704013F083BD000070B50E4C00252E46A2
:10D38000E58008210CA006F057FFE0880BF040FC78
:10D39000012809D0012022F06FFD6D1CC82DF4DB9F
:10D3A000E6804FF0FF3070BD06A0FBF71BF8E6806B
:10D3B000002070BDAC01002041542B5253540D0A83
:10D3C0000000000041542B525354203A2B6F6B0A3B
:10D3D0000000000000B50A46C1B012A102201CF0F6
:10D3E00017F815A0009014A314A217A133A8FBF7F7
:10D3F0000FF816AB174A33A90C2083E80700572211
:10D4000015496846FBF765FD13496722103919A8CD
:10D41000FBF75FFD0DF1640C9CE80F00FEF794FB39
:10D4200041B000BD574946495F526563765F457616
:10D43000656E742031200000310000004543555FC7
:10D44000525F52530000000025735F25732E257331
:10D4500000000000EC04002060B7002010B50C466E
:10D460000A4608A102201BF0D3FF0C220A4904F14E
:10D470000D00FBF75DFC00B10120BDE81040FEF798
:10D48000B5BD0000574946495F526563765F4576F2
:10D49000656E74203820000050B700203EB50C4661
:10D4A0000A460EA102201BF0B3FF0C22104904F122
:10D4B0000D00FBF73DFC10B1002101200BE0694697
:10D4C0000CA00CF0B5FD08B1002103E00299009812
:10D4D0004843810A0020FEF719FC3EBD57494649E2
:10D4E0005F526563765F4576656E74203133000068
:10D4F00050B700202F00000010B50C460A4609A1C5
:10D5000002201BF085FF0C220B4904F10D00FBF7F4
:10D510000FFC617F20B10120BDE81040FEF750BC38
:10D520000020F9E7574946495F526563765F4576C3
:10D53000656E74203420000050B7002010B50C46F2
:10D540000A4609A102201BF063FF0C220B4904F1DB
:10D550000D00FBF7EDFB0A4920B10120BDE81040AA
:10D56000FEF77EBD0020F9E7574946495F526563E3
:10D57000765F4576656E74203131200050B700200B
:10D58000EC0400203EB50C460A460DA102201BF01B
:10D590003FFF002001900290E0690090206A019016
:10D5A0000C220C4904F10D00FBF7C2FB694620B1C7
:10D5B0005FF00100FFF718F83EBD0020FAE7000019
:10D5C000574946495F526563765F4576656E7420BC
:10D5D0003320000050B7002010B50C460A4610A1B9
:10D5E00002201BF015FF0C22124904F10D00FBF77D
:10D5F0009FFB50B110A1002005F04AF80022174906
:10D600000120BDE81040FFF71DB915A1002005F06D
:10D610003FF808481149D0F81D200020F1E700002C
:10D62000574946495F526563765F4576656E74205B
:10D630003220000050B70020434F4D4D414E445F13
:10D6400053595354454D494E464F2020204E6F7438
:10D65000204D617070696E6700000000EC040020CE
:10D66000434F4D4D414E445F53595354454D494EE0
:10D67000464F20204D617070696E670A00000000FF
:10D680007FB500250C460A460095019502950CA130
:10D69000022003951BF0BCFE684608F093F98DF854
:10D6A0000E500C220B4904F10D00FBF741FB6946BB
:10D6B00018B10120FEF792FE7FBD0020FAE70000BE
:10D6C000574946495F526563765F4576656E7420BB
:10D6D0003132200050B700202DE9F04F0C460A46A9
:10D6E00095B03DA102201BF093FE0C223F4904F1AE
:10D6F0000D00FBF71DFB3D4C2934E0B1CDE90FB522
:10D70000CDE911540CA829460A950B9580E802062C
:10D71000CDE9078509950295CDE90356CDE9055771
:10D720002B46009500211A4601200195FEF788FE40
:10D7300015B0BDE8F08F2E4801684868030EC0F3AD
:10D740000742CDE90023C0F30722C5B213928868CF
:10D75000070EC0F30743C0F30726C2B2CDE9022685
:10D76000CDE90437C86806AF030EC0F30742C0F323
:10D77000072187E80E00C6B200200EF09DFBC0F323
:10D780000721C2B2CDE909214FEA1068C0F307476B
:10D7900001200EF091FB010EC0F3074BC0F3072AE6
:10D7A00000F0FF090B9114F047FA0B99CDE90E9A9E
:10D7B000CDE910B11294DDE909120AAB83E88601C4
:10D7C00006AF97E80E0007AF069687E80E00C1B2D5
:10D7D0002A460020139BA9E7574946495F526563D3
:10D7E000765F4576656E74203134000050B70020B6
:10D7F0009C02002010B50C460A4617A102201BF01F
:10D8000007FE0C22194904F10D00FBF791FA30B123
:10D810000022BDE8104011460120FEF745BF134825
:10D82000C27D817D0020FEF73FFF04F11C0025F042
:10D83000C5FAC3B204F11E0025F0C0FAC4B21846FE
:10D8400023F0B4F9204623F08BF923F035F9BDE835
:10D85000104005201EF068BA574946495F5265637B
:10D86000765F4576656E74203135200050B7002014
:10D8700010B50C460A4613A102201BF0C9FD0C226C
:10D88000154904F10D00FBF753FA20B1BDE8104033
:10D890000120FEF78BBE0020FEF788FE607E4FF071
:10D8A000000230280BD002215FF0010023F0D2F8F3
:10D8B00023F008FBBDE8104005201EF035BA00211A
:10D8C0000220F3E7574946495F526563765F457624
:10D8D000656E74203136200050B700202DE9F041EC
:10D8E0000C460A461CA102201BF092FD0C221F4987
:10D8F00004F10D00FBF71CFA40B10120FEF72AFFEE
:10D90000BDE8F0411AA1002004F0C2BE2248062161
:10D91000002500681F4E1F38B0FBF1F739461FA0E5
:10D92000FAF760FD0020FEF715FF04F11C013846F0
:10D930001BF0ACFA0D220021304620F0A9FB6D1C33
:10D940009536782DF6DB134814F0B8FABDE8F041AF
:10D9500005201EF0E9B90000574946495F5265634A
:10D96000765F4576656E74203520000050B7002044
:10D97000434F4D4D414E445F5345544E4554574FD0
:10D98000524B2020204E6F74204D617070696E677D
:10D9900000000000EC040020B80100206E756D3A14
:10D9A00025640A0010B50C460A4688B01DA1022065
:10D9B0001BF02EFD0C22204904F10D00FBF7B8F9F5
:10D9C00008B101202AE0002000900190029003900D
:10D9D0000E2204F11C016846FBF77BFA04A807F04D
:10D9E000F1FF0822694615A0FBF7A2F918B9DDE995
:10D9F0000401CDE90001062213A002A9FBF798F962
:10DA000028B906980290BDF81C00ADF80C006846D5
:10DA100024F06AFE05201EF087F90020FEF7B8FE0C
:10DA200008B010BD574946495F526563765F457639
:10DA3000656E74203620000050B70020393939391E
:10DA4000393939390000000039393939393900009C
:10DA500010B50C460A46D0B024A102201BF0D8FC19
:10DA60000C22274904F10D00FBF762F928B150B0F0
:10DA70000120BDE81040FEF7A9BE64211BA8FBF7FA
:10DA8000C9FA642102A8FBF7C5FA642134A8FBF7A0
:10DA9000C1FA1C344EAB02AA4DA91BA8009404F095
:10DAA00023FD02A94E98CDE900011BAB15A1002072
:10DAB0004D9A04F0EDFD642134A804F0E9FC1BA9A3
:10DAC00034A84D9AFBF734F920B10220FEF77EFE10
:10DAD00050B010BD0020FEF779FE02A806F037FB1B
